{
  "contractName": "healthorganization",
  "abi": [
    {
      "inputs": [],
      "stateMutability": "nonpayable",
      "type": "constructor"
    },
    {
      "inputs": [],
      "name": "getHealthOrganization",
      "outputs": [
        {
          "internalType": "string",
          "name": "",
          "type": "string"
        },
        {
          "internalType": "string",
          "name": "",
          "type": "string"
        }
      ],
      "stateMutability": "view",
      "type": "function"
    }
  ],
  "bytecode": "0x60806040526040518060600160405280602781526020016107bb602791396001908161002b919061038a565b506040518060400160405280600d81526020017f68696f40676d61696c2e636f6d0000000000000000000000000000000000000081525060029081610070919061038a565b506100b56040518060400160405280600881526020017f70617373776f726400000000000000000000000000000000000000000000000081525061010a60201b60201c565b6003553480156100c457600080fd5b50336000806101000a81548173ffffffffffffffffffffffffffffffffffffffff021916908373ffffffffffffffffffffffffffffffffffffffff1602179055506104d9565b60008160405160200161011d91906104c2565b604051602081830303815290604052805190602001209050919050565b600081519050919050565b7f4e487b7100000000000000000000000000000000000000000000000000000000600052604160045260246000fd5b7f4e487b7100000000000000000000000000000000000000000000000000000000600052602260045260246000fd5b600060028204905060018216806101bb57607f821691505b6020821081036101ce576101cd610174565b5b50919050565b60008190508160005260206000209050919050565b60006020601f8301049050919050565b600082821b905092915050565b6000600883026102367fffffffffffffffffffffffffffffffffffffffffffffffffffffffffffffffff826101f9565b61024086836101f9565b95508019841693508086168417925050509392505050565b6000819050919050565b6000819050919050565b600061028761028261027d84610258565b610262565b610258565b9050919050565b6000819050919050565b6102a18361026c565b6102b56102ad8261028e565b848454610206565b825550505050565b600090565b6102ca6102bd565b6102d5818484610298565b505050565b5b818110156102f9576102ee6000826102c2565b6001810190506102db565b5050565b601f82111561033e5761030f816101d4565b610318846101e9565b81016020851015610327578190505b61033b610333856101e9565b8301826102da565b50505b505050565b600082821c905092915050565b600061036160001984600802610343565b1980831691505092915050565b600061037a8383610350565b9150826002028217905092915050565b6103938261013a565b67ffffffffffffffff8111156103ac576103ab610145565b5b6103b682546101a3565b6103c18282856102fd565b600060209050601f8311600181146103f457600084156103e2578287015190505b6103ec858261036e565b865550610454565b601f198416610402866101d4565b60005b8281101561042a57848901518255600182019150602085019450602081019050610405565b868310156104475784890151610443601f891682610350565b8355505b6001600288020188555050505b505050505050565b600081905092915050565b60005b8381101561048557808201518184015260208101905061046a565b60008484015250505050565b600061049c8261013a565b6104a6818561045c565b93506104b6818560208601610467565b80840191505092915050565b60006104ce8284610491565b915081905092915050565b6102d3806104e86000396000f3fe608060405234801561001057600080fd5b506004361061002b5760003560e01c80639cdb7b3f14610030575b600080fd5b61003861004f565b604051610046929190610206565b60405180910390f35b606080600160028180546100629061026c565b80601f016020809104026020016040519081016040528092919081815260200182805461008e9061026c565b80156100db5780601f106100b0576101008083540402835291602001916100db565b820191906000526020600020905b8154815290600101906020018083116100be57829003601f168201915b505050505091508080546100ee9061026c565b80601f016020809104026020016040519081016040528092919081815260200182805461011a9061026c565b80156101675780601f1061013c57610100808354040283529160200191610167565b820191906000526020600020905b81548152906001019060200180831161014a57829003601f168201915b50505050509050915091509091565b600081519050919050565b600082825260208201905092915050565b60005b838110156101b0578082015181840152602081019050610195565b60008484015250505050565b6000601f19601f8301169050919050565b60006101d882610176565b6101e28185610181565b93506101f2818560208601610192565b6101fb816101bc565b840191505092915050565b6000604082019050818103600083015261022081856101cd565b9050818103602083015261023481846101cd565b90509392505050565b7f4e487b7100000000000000000000000000000000000000000000000000000000600052602260045260246000fd5b6000600282049050600182168061028457607f821691505b6020821081036102975761029661023d565b5b5091905056fea264697066735822122089bfb9dbe985b61ae1b216eb74c86ff8d0745e2f770a57a78b264987eccb800d64736f6c634300081100334865616c746820616e64205175616c697479206f66204c696665204f7267616e697a6174696f6e",
  "immutableReferences": {},
  "source": "// SPDX-License-Identifier: UNLICENSED\r\n\r\npragma solidity ^0.8.0;\r\n\r\ncontract healthorganization {\r\n    // fields\r\n    address healthorganizationAddress;\r\n    string healthorganizationName = \"Health and Quality of Life Organization\";\r\n    string email = \"hio@gmail.com\";\r\n    bytes32 password = hashPassword(\"password\");\r\n\r\n     constructor() {\r\n        healthorganizationAddress = msg.sender; \r\n    }\r\n\r\n\r\n    // functions\r\n    function hashPassword(string memory _password) private pure returns (bytes32) {\r\n            return keccak256(abi.encodePacked(_password));\r\n    }\r\n\r\n    function getHealthOrganization() public view returns (string memory, string memory){\r\n        return (\r\n            healthorganizationName,\r\n            email\r\n        );\r\n    }\r\n\r\n}",
  "sourcePath": "C:\\Users\\avine\\OneDrive - Middlesex University\\Documents\\MDX\\Year 3\\CST3990 Undergraduate Individual Project\\Undergraduate-Individual-Project\\back-end\\contracts\\HealthOrganization.sol",
  "compiler": {
    "name": "solc",
    "version": "0.8.17+commit.8df45f5f.Emscripten.clang"
  },
  "schemaVersion": "3.4.11",
  "updatedAt": "2023-02-06T17:15:21.558Z",
  "devdoc": {
    "kind": "dev",
    "methods": {},
    "version": 1
  },
  "userdoc": {
    "kind": "user",
    "methods": {},
    "version": 1
  }
}