{
  "contractName": "individual",
  "abi": [
    {
      "anonymous": false,
      "inputs": [
        {
          "indexed": false,
          "internalType": "string",
          "name": "name",
          "type": "string"
        },
        {
          "indexed": false,
          "internalType": "string",
          "name": "email",
          "type": "string"
        }
      ],
      "name": "LogInsuredPersonRegistered",
      "type": "event"
    },
    {
      "inputs": [
        {
          "internalType": "uint32",
          "name": "",
          "type": "uint32"
        }
      ],
      "name": "individuals",
      "outputs": [
        {
          "internalType": "address",
          "name": "individualAddress",
          "type": "address"
        },
        {
          "internalType": "string",
          "name": "first_name",
          "type": "string"
        },
        {
          "internalType": "string",
          "name": "last_name",
          "type": "string"
        },
        {
          "internalType": "string",
          "name": "username",
          "type": "string"
        },
        {
          "internalType": "string",
          "name": "email",
          "type": "string"
        },
        {
          "internalType": "bytes32",
          "name": "password",
          "type": "bytes32"
        }
      ],
      "stateMutability": "view",
      "type": "function",
      "constant": true
    },
    {
      "inputs": [
        {
          "internalType": "string",
          "name": "_firstname",
          "type": "string"
        },
        {
          "internalType": "string",
          "name": "_lastname",
          "type": "string"
        },
        {
          "internalType": "string",
          "name": "_username",
          "type": "string"
        },
        {
          "internalType": "string",
          "name": "_email",
          "type": "string"
        },
        {
          "internalType": "string",
          "name": "_password",
          "type": "string"
        }
      ],
      "name": "registerProvider",
      "outputs": [
        {
          "internalType": "uint32",
          "name": "",
          "type": "uint32"
        }
      ],
      "stateMutability": "nonpayable",
      "type": "function"
    }
  ],
  "bytecode": "0x608060405260008060006101000a81548163ffffffff021916908363ffffffff16021790555034801561003157600080fd5b50610ca2806100416000396000f3fe608060405234801561001057600080fd5b50600436106100365760003560e01c8063bcb0ad3c1461003b578063e5df201d1461006b575b600080fd5b610055600480360381019061005091906105e6565b6100a0565b604051610062919061070c565b60405180910390f35b61008560048036038101906100809190610753565b6101e0565b60405161009796959493929190610859565b60405180910390f35b60008060008081819054906101000a900463ffffffff16809291906100c490610905565b91906101000a81548163ffffffff021916908363ffffffff160217905550905086600160008363ffffffff1663ffffffff16815260200190815260200160002060010190816101139190610b47565b5085600160008363ffffffff1663ffffffff16815260200190815260200160002060020190816101439190610b47565b5084600160008363ffffffff1663ffffffff16815260200190815260200160002060030190816101739190610b47565b5083600160008363ffffffff1663ffffffff16815260200190815260200160002060040190816101a39190610b47565b506101ad8361045c565b600160008363ffffffff1663ffffffff168152602001908152602001600020600501819055508091505095945050505050565b60016020528060005260406000206000915090508060000160009054906101000a900473ffffffffffffffffffffffffffffffffffffffff169080600101805461022990610960565b80601f016020809104026020016040519081016040528092919081815260200182805461025590610960565b80156102a25780601f10610277576101008083540402835291602001916102a2565b820191906000526020600020905b81548152906001019060200180831161028557829003601f168201915b5050505050908060020180546102b790610960565b80601f01602080910402602001604051908101604052809291908181526020018280546102e390610960565b80156103305780601f1061030557610100808354040283529160200191610330565b820191906000526020600020905b81548152906001019060200180831161031357829003601f168201915b50505050509080600301805461034590610960565b80601f016020809104026020016040519081016040528092919081815260200182805461037190610960565b80156103be5780601f10610393576101008083540402835291602001916103be565b820191906000526020600020905b8154815290600101906020018083116103a157829003601f168201915b5050505050908060040180546103d390610960565b80601f01602080910402602001604051908101604052809291908181526020018280546103ff90610960565b801561044c5780601f106104215761010080835404028352916020019161044c565b820191906000526020600020905b81548152906001019060200180831161042f57829003601f168201915b5050505050908060050154905086565b60008160405160200161046f9190610c55565b604051602081830303815290604052805190602001209050919050565b6000604051905090565b600080fd5b600080fd5b600080fd5b600080fd5b6000601f19601f8301169050919050565b7f4e487b7100000000000000000000000000000000000000000000000000000000600052604160045260246000fd5b6104f3826104aa565b810181811067ffffffffffffffff82111715610512576105116104bb565b5b80604052505050565b600061052561048c565b905061053182826104ea565b919050565b600067ffffffffffffffff821115610551576105506104bb565b5b61055a826104aa565b9050602081019050919050565b82818337600083830152505050565b600061058961058484610536565b61051b565b9050828152602081018484840111156105a5576105a46104a5565b5b6105b0848285610567565b509392505050565b600082601f8301126105cd576105cc6104a0565b5b81356105dd848260208601610576565b91505092915050565b600080600080600060a0868803121561060257610601610496565b5b600086013567ffffffffffffffff8111156106205761061f61049b565b5b61062c888289016105b8565b955050602086013567ffffffffffffffff81111561064d5761064c61049b565b5b610659888289016105b8565b945050604086013567ffffffffffffffff81111561067a5761067961049b565b5b610686888289016105b8565b935050606086013567ffffffffffffffff8111156106a7576106a661049b565b5b6106b3888289016105b8565b925050608086013567ffffffffffffffff8111156106d4576106d361049b565b5b6106e0888289016105b8565b9150509295509295909350565b600063ffffffff82169050919050565b610706816106ed565b82525050565b600060208201905061072160008301846106fd565b92915050565b610730816106ed565b811461073b57600080fd5b50565b60008135905061074d81610727565b92915050565b60006020828403121561076957610768610496565b5b60006107778482850161073e565b91505092915050565b600073ffffffffffffffffffffffffffffffffffffffff82169050919050565b60006107ab82610780565b9050919050565b6107bb816107a0565b82525050565b600081519050919050565b600082825260208201905092915050565b60005b838110156107fb5780820151818401526020810190506107e0565b60008484015250505050565b6000610812826107c1565b61081c81856107cc565b935061082c8185602086016107dd565b610835816104aa565b840191505092915050565b6000819050919050565b61085381610840565b82525050565b600060c08201905061086e60008301896107b2565b81810360208301526108808188610807565b905081810360408301526108948187610807565b905081810360608301526108a88186610807565b905081810360808301526108bc8185610807565b90506108cb60a083018461084a565b979650505050505050565b7f4e487b7100000000000000000000000000000000000000000000000000000000600052601160045260246000fd5b6000610910826106ed565b915063ffffffff8203610926576109256108d6565b5b600182019050919050565b7f4e487b7100000000000000000000000000000000000000000000000000000000600052602260045260246000fd5b6000600282049050600182168061097857607f821691505b60208210810361098b5761098a610931565b5b50919050565b60008190508160005260206000209050919050565b60006020601f8301049050919050565b600082821b905092915050565b6000600883026109f37fffffffffffffffffffffffffffffffffffffffffffffffffffffffffffffffff826109b6565b6109fd86836109b6565b95508019841693508086168417925050509392505050565b6000819050919050565b6000819050919050565b6000610a44610a3f610a3a84610a15565b610a1f565b610a15565b9050919050565b6000819050919050565b610a5e83610a29565b610a72610a6a82610a4b565b8484546109c3565b825550505050565b600090565b610a87610a7a565b610a92818484610a55565b505050565b5b81811015610ab657610aab600082610a7f565b600181019050610a98565b5050565b601f821115610afb57610acc81610991565b610ad5846109a6565b81016020851015610ae4578190505b610af8610af0856109a6565b830182610a97565b50505b505050565b600082821c905092915050565b6000610b1e60001984600802610b00565b1980831691505092915050565b6000610b378383610b0d565b9150826002028217905092915050565b610b50826107c1565b67ffffffffffffffff811115610b6957610b686104bb565b5b610b738254610960565b610b7e828285610aba565b600060209050601f831160018114610bb15760008415610b9f578287015190505b610ba98582610b2b565b865550610c11565b601f198416610bbf86610991565b60005b82811015610be757848901518255600182019150602085019450602081019050610bc2565b86831015610c045784890151610c00601f891682610b0d565b8355505b6001600288020188555050505b505050505050565b600081905092915050565b6000610c2f826107c1565b610c398185610c19565b9350610c498185602086016107dd565b80840191505092915050565b6000610c618284610c24565b91508190509291505056fea2646970667358221220576e677c1040649772fe14f751e4d5d2cbc4c68cc866ef04b3a0fe72ce22eebf64736f6c63430008110033",
  "immutableReferences": {},
  "source": "// SPDX-License-Identifier: UNLICENSED\r\n\r\npragma solidity ^0.8.0;\r\n\r\ncontract individual {\r\n    uint32 individual_id = 0;\r\n\r\n    // structure for a sinhgle insured person\r\n    struct Individual{\r\n        address individualAddress;\r\n        string first_name;\r\n        string last_name;\r\n        string username;\r\n        string email;\r\n        bytes32 password;\r\n    }\r\n     // Mapping from usernames to provider addresses\r\n    mapping (uint32 => Individual) public individuals;\r\n\r\n    // Events\r\n    event LogInsuredPersonRegistered(string name, string email);\r\n\r\n    // functions\r\n\r\n    // Function to register a new provider\r\n    function registerProvider(string memory _firstname, string memory _lastname, string memory _username, string memory _email, string memory _password) public returns (uint32){\r\n        // Check if the username is not already taken\r\n        // require(individuals[_username] == address(0), \"Username is already taken\");\r\n\r\n        // Create a new provider\r\n        // Individual memory newIndividual = Individual({\r\n        //     individualAddress: msg.sender,\r\n        //     first_name: _firstname,\r\n        //     last_name: _lastname,\r\n        //     username: _username,\r\n        //     email: _email,\r\n        //     password: hashPassword(_password)\r\n        // });\r\n\r\n        // // Add the new provider to the mapping and provider list\r\n        // individuals[_username] = newIndividual.individualAddress;\r\n        // individualList.push(newIndividual);\r\n        uint32 userId = individual_id++;\r\n        individuals[userId].first_name = _firstname;\r\n        individuals[userId].last_name = _lastname;\r\n        individuals[userId].username = _username;\r\n        individuals[userId].email = _email;\r\n        individuals[userId].password = hashPassword(_password);\r\n\r\n        // Emit a NewProvider event\r\n        // emit LogInsuredPersonRegistered(username, newIndividual.email);\r\n        return userId;\r\n    }\r\n\r\n    function hashPassword(string memory _password) private pure returns (bytes32) {\r\n        return keccak256(abi.encodePacked(_password));\r\n    }\r\n\r\n\r\n    // function getIndividual(uint32 _individual_id) public view returns (string memory, address, string memory){\r\n    //     return (\r\n    //         individualList[_individual_id].username,\r\n    //         individualList[_individual_id].individualAddress,\r\n    //         individualList[_individual_id].email\r\n    //     );\r\n    // }\r\n}",
  "sourcePath": "C:\\Users\\avine\\OneDrive - Middlesex University\\Documents\\MDX\\Year 3\\CST3990 Undergraduate Individual Project\\Undergraduate-Individual-Project\\back-end\\contracts\\Individual.sol",
  "compiler": {
    "name": "solc",
    "version": "0.8.17+commit.8df45f5f.Emscripten.clang"
  },
  "schemaVersion": "3.4.11",
  "updatedAt": "2023-02-06T17:15:27.227Z",
  "networkType": "ethereum",
  "devdoc": {
    "kind": "dev",
    "methods": {},
    "version": 1
  },
  "userdoc": {
    "kind": "user",
    "methods": {},
    "version": 1
  }
}