{
  "contractName": "individual",
  "abi": [
    {
      "anonymous": false,
      "inputs": [
        {
          "indexed": false,
          "internalType": "string",
          "name": "name",
          "type": "string"
        },
        {
          "indexed": false,
          "internalType": "string",
          "name": "email",
          "type": "string"
        }
      ],
      "name": "LogInsuredPersonRegistered",
      "type": "event"
    },
    {
      "inputs": [
        {
          "internalType": "uint256",
          "name": "",
          "type": "uint256"
        }
      ],
      "name": "individualList",
      "outputs": [
        {
          "internalType": "address",
          "name": "individualAddress",
          "type": "address"
        },
        {
          "internalType": "string",
          "name": "first_name",
          "type": "string"
        },
        {
          "internalType": "string",
          "name": "last_name",
          "type": "string"
        },
        {
          "internalType": "string",
          "name": "username",
          "type": "string"
        },
        {
          "internalType": "string",
          "name": "email",
          "type": "string"
        },
        {
          "internalType": "bytes32",
          "name": "password",
          "type": "bytes32"
        }
      ],
      "stateMutability": "view",
      "type": "function",
      "constant": true
    },
    {
      "inputs": [
        {
          "internalType": "string",
          "name": "",
          "type": "string"
        }
      ],
      "name": "individuals",
      "outputs": [
        {
          "internalType": "address",
          "name": "",
          "type": "address"
        }
      ],
      "stateMutability": "view",
      "type": "function",
      "constant": true
    },
    {
      "inputs": [
        {
          "internalType": "string",
          "name": "_firstname",
          "type": "string"
        },
        {
          "internalType": "string",
          "name": "_lastname",
          "type": "string"
        },
        {
          "internalType": "string",
          "name": "_username",
          "type": "string"
        },
        {
          "internalType": "string",
          "name": "_email",
          "type": "string"
        },
        {
          "internalType": "string",
          "name": "_password",
          "type": "string"
        }
      ],
      "name": "registerProvider",
      "outputs": [],
      "stateMutability": "nonpayable",
      "type": "function"
    },
    {
      "inputs": [
        {
          "internalType": "uint32",
          "name": "_individual_id",
          "type": "uint32"
        }
      ],
      "name": "getIndividual",
      "outputs": [
        {
          "internalType": "string",
          "name": "",
          "type": "string"
        },
        {
          "internalType": "address",
          "name": "",
          "type": "address"
        },
        {
          "internalType": "string",
          "name": "",
          "type": "string"
        }
      ],
      "stateMutability": "view",
      "type": "function",
      "constant": true
    }
  ],
  "bytecode": "0x608060405260008060006101000a81548163ffffffff021916908363ffffffff16021790555034801561003157600080fd5b506111b8806100416000396000f3fe608060405234801561001057600080fd5b506004361061004c5760003560e01c80630eb8554a146100515780635e54069b14610083578063bcb0ad3c146100b3578063dd9b23e3146100cf575b600080fd5b61006b600480360381019061006691906108a3565b610104565b60405161007a939291906109a1565b60405180910390f35b61009d60048036038101906100989190610b1b565b6102d1565b6040516100aa9190610b64565b60405180910390f35b6100cd60048036038101906100c89190610b7f565b61031a565b005b6100e960048036038101906100e49190610cbc565b610597565b6040516100fb96959493929190610d02565b60405180910390f35b60606000606060028463ffffffff168154811061012457610123610d7f565b5b906000526020600020906006020160030160028563ffffffff168154811061014f5761014e610d7f565b5b906000526020600020906006020160000160009054906101000a900473ffffffffffffffffffffffffffffffffffffffff1660028663ffffffff168154811061019b5761019a610d7f565b5b90600052602060002090600602016004018280546101b890610ddd565b80601f01602080910402602001604051908101604052809291908181526020018280546101e490610ddd565b80156102315780601f1061020657610100808354040283529160200191610231565b820191906000526020600020905b81548152906001019060200180831161021457829003601f168201915b5050505050925080805461024490610ddd565b80601f016020809104026020016040519081016040528092919081815260200182805461027090610ddd565b80156102bd5780601f10610292576101008083540402835291602001916102bd565b820191906000526020600020905b8154815290600101906020018083116102a057829003601f168201915b505050505090509250925092509193909250565b6001818051602081018201805184825260208301602085012081835280955050505050506000915054906101000a900473ffffffffffffffffffffffffffffffffffffffff1681565b600073ffffffffffffffffffffffffffffffffffffffff166001846040516103429190610e4a565b908152602001604051809103902060009054906101000a900473ffffffffffffffffffffffffffffffffffffffff1673ffffffffffffffffffffffffffffffffffffffff16146103c7576040517f08c379a00000000000000000000000000000000000000000000000000000000081526004016103be90610ead565b60405180910390fd5b60006040518060c001604052803373ffffffffffffffffffffffffffffffffffffffff16815260200187815260200186815260200185815260200184815260200161041184610823565b8152509050806000015160018560405161042b9190610e4a565b908152602001604051809103902060006101000a81548173ffffffffffffffffffffffffffffffffffffffff021916908373ffffffffffffffffffffffffffffffffffffffff160217905550600281908060018154018082558091505060019003906000526020600020906006020160009091909190915060008201518160000160006101000a81548173ffffffffffffffffffffffffffffffffffffffff021916908373ffffffffffffffffffffffffffffffffffffffff16021790555060208201518160010190816104ff9190611079565b5060408201518160020190816105159190611079565b50606082015181600301908161052b9190611079565b5060808201518160040190816105419190611079565b5060a0820151816005015550507f87b4fff81d882b5e5c9e54ce34f7d4c1c50df0dfac136b8339954e21f74ae8748160600151826080015160405161058792919061114b565b60405180910390a1505050505050565b600281815481106105a757600080fd5b90600052602060002090600602016000915090508060000160009054906101000a900473ffffffffffffffffffffffffffffffffffffffff16908060010180546105f090610ddd565b80601f016020809104026020016040519081016040528092919081815260200182805461061c90610ddd565b80156106695780601f1061063e57610100808354040283529160200191610669565b820191906000526020600020905b81548152906001019060200180831161064c57829003601f168201915b50505050509080600201805461067e90610ddd565b80601f01602080910402602001604051908101604052809291908181526020018280546106aa90610ddd565b80156106f75780601f106106cc576101008083540402835291602001916106f7565b820191906000526020600020905b8154815290600101906020018083116106da57829003601f168201915b50505050509080600301805461070c90610ddd565b80601f016020809104026020016040519081016040528092919081815260200182805461073890610ddd565b80156107855780601f1061075a57610100808354040283529160200191610785565b820191906000526020600020905b81548152906001019060200180831161076857829003601f168201915b50505050509080600401805461079a90610ddd565b80601f01602080910402602001604051908101604052809291908181526020018280546107c690610ddd565b80156108135780601f106107e857610100808354040283529160200191610813565b820191906000526020600020905b8154815290600101906020018083116107f657829003601f168201915b5050505050908060050154905086565b6000816040516020016108369190610e4a565b604051602081830303815290604052805190602001209050919050565b6000604051905090565b600080fd5b600080fd5b600063ffffffff82169050919050565b61088081610867565b811461088b57600080fd5b50565b60008135905061089d81610877565b92915050565b6000602082840312156108b9576108b861085d565b5b60006108c78482850161088e565b91505092915050565b600081519050919050565b600082825260208201905092915050565b60005b8381101561090a5780820151818401526020810190506108ef565b60008484015250505050565b6000601f19601f8301169050919050565b6000610932826108d0565b61093c81856108db565b935061094c8185602086016108ec565b61095581610916565b840191505092915050565b600073ffffffffffffffffffffffffffffffffffffffff82169050919050565b600061098b82610960565b9050919050565b61099b81610980565b82525050565b600060608201905081810360008301526109bb8186610927565b90506109ca6020830185610992565b81810360408301526109dc8184610927565b9050949350505050565b600080fd5b600080fd5b7f4e487b7100000000000000000000000000000000000000000000000000000000600052604160045260246000fd5b610a2882610916565b810181811067ffffffffffffffff82111715610a4757610a466109f0565b5b80604052505050565b6000610a5a610853565b9050610a668282610a1f565b919050565b600067ffffffffffffffff821115610a8657610a856109f0565b5b610a8f82610916565b9050602081019050919050565b82818337600083830152505050565b6000610abe610ab984610a6b565b610a50565b905082815260208101848484011115610ada57610ad96109eb565b5b610ae5848285610a9c565b509392505050565b600082601f830112610b0257610b016109e6565b5b8135610b12848260208601610aab565b91505092915050565b600060208284031215610b3157610b3061085d565b5b600082013567ffffffffffffffff811115610b4f57610b4e610862565b5b610b5b84828501610aed565b91505092915050565b6000602082019050610b796000830184610992565b92915050565b600080600080600060a08688031215610b9b57610b9a61085d565b5b600086013567ffffffffffffffff811115610bb957610bb8610862565b5b610bc588828901610aed565b955050602086013567ffffffffffffffff811115610be657610be5610862565b5b610bf288828901610aed565b945050604086013567ffffffffffffffff811115610c1357610c12610862565b5b610c1f88828901610aed565b935050606086013567ffffffffffffffff811115610c4057610c3f610862565b5b610c4c88828901610aed565b925050608086013567ffffffffffffffff811115610c6d57610c6c610862565b5b610c7988828901610aed565b9150509295509295909350565b6000819050919050565b610c9981610c86565b8114610ca457600080fd5b50565b600081359050610cb681610c90565b92915050565b600060208284031215610cd257610cd161085d565b5b6000610ce084828501610ca7565b91505092915050565b6000819050919050565b610cfc81610ce9565b82525050565b600060c082019050610d176000830189610992565b8181036020830152610d298188610927565b90508181036040830152610d3d8187610927565b90508181036060830152610d518186610927565b90508181036080830152610d658185610927565b9050610d7460a0830184610cf3565b979650505050505050565b7f4e487b7100000000000000000000000000000000000000000000000000000000600052603260045260246000fd5b7f4e487b7100000000000000000000000000000000000000000000000000000000600052602260045260246000fd5b60006002820490506001821680610df557607f821691505b602082108103610e0857610e07610dae565b5b50919050565b600081905092915050565b6000610e24826108d0565b610e2e8185610e0e565b9350610e3e8185602086016108ec565b80840191505092915050565b6000610e568284610e19565b915081905092915050565b7f557365726e616d6520697320616c72656164792074616b656e00000000000000600082015250565b6000610e976019836108db565b9150610ea282610e61565b602082019050919050565b60006020820190508181036000830152610ec681610e8a565b9050919050565b60008190508160005260206000209050919050565b60006020601f8301049050919050565b600082821b905092915050565b600060088302610f2f7fffffffffffffffffffffffffffffffffffffffffffffffffffffffffffffffff82610ef2565b610f398683610ef2565b95508019841693508086168417925050509392505050565b6000819050919050565b6000610f76610f71610f6c84610c86565b610f51565b610c86565b9050919050565b6000819050919050565b610f9083610f5b565b610fa4610f9c82610f7d565b848454610eff565b825550505050565b600090565b610fb9610fac565b610fc4818484610f87565b505050565b5b81811015610fe857610fdd600082610fb1565b600181019050610fca565b5050565b601f82111561102d57610ffe81610ecd565b61100784610ee2565b81016020851015611016578190505b61102a61102285610ee2565b830182610fc9565b50505b505050565b600082821c905092915050565b600061105060001984600802611032565b1980831691505092915050565b6000611069838361103f565b9150826002028217905092915050565b611082826108d0565b67ffffffffffffffff81111561109b5761109a6109f0565b5b6110a58254610ddd565b6110b0828285610fec565b600060209050601f8311600181146110e357600084156110d1578287015190505b6110db858261105d565b865550611143565b601f1984166110f186610ecd565b60005b82811015611119578489015182556001820191506020850194506020810190506110f4565b868310156111365784890151611132601f89168261103f565b8355505b6001600288020188555050505b505050505050565b600060408201905081810360008301526111658185610927565b905081810360208301526111798184610927565b9050939250505056fea2646970667358221220f12846e6e44f007505eee91d00a2186852deedc5c4a6166bf4dd5b1d135fe76a64736f6c63430008110033",
  "immutableReferences": {},
  "source": "// SPDX-License-Identifier: UNLICENSED\r\n\r\npragma solidity ^0.8.0;\r\n\r\ncontract individual {\r\n    uint32 individual_id = 0;\r\n\r\n    // structure for a sinhgle insured person\r\n    struct Individual{\r\n        address individualAddress;\r\n        string first_name;\r\n        string last_name;\r\n        string username;\r\n        string email;\r\n        bytes32 password;\r\n    }\r\n     // Mapping from usernames to provider addresses\r\n    mapping (string => address) public individuals;\r\n\r\n    // Array of all registered providers\r\n    Individual[] public individualList;\r\n\r\n    // Events\r\n    event LogInsuredPersonRegistered(string name, string email);\r\n\r\n    // functions\r\n\r\n    // Function to register a new provider\r\n    function registerProvider(string memory _firstname, string memory _lastname, string memory _username, string memory _email, string memory _password) public {\r\n        // Check if the username is not already taken\r\n        require(individuals[_username] == address(0), \"Username is already taken\");\r\n\r\n        // Create a new provider\r\n        Individual memory newIndividual = Individual({\r\n            individualAddress: msg.sender,\r\n            first_name: _firstname,\r\n            last_name: _lastname,\r\n            username: _username,\r\n            email: _email,\r\n            password: hashPassword(_password)\r\n        });\r\n\r\n        // Add the new provider to the mapping and provider list\r\n        individuals[_username] = newIndividual.individualAddress;\r\n        individualList.push(newIndividual);\r\n\r\n        // Emit a NewProvider event\r\n        emit LogInsuredPersonRegistered(newIndividual.username, newIndividual.email);\r\n    }\r\n\r\n    function hashPassword(string memory _password) private pure returns (bytes32) {\r\n        return keccak256(abi.encodePacked(_password));\r\n    }\r\n\r\n\r\n    function getIndividual(uint32 _individual_id) public view returns (string memory, address, string memory){\r\n        return (\r\n            individualList[_individual_id].username,\r\n            individualList[_individual_id].individualAddress,\r\n            individualList[_individual_id].email\r\n        );\r\n    }\r\n}",
  "sourcePath": "C:\\Users\\avine\\OneDrive - Middlesex University\\Documents\\MDX\\Year 3\\CST3990 Undergraduate Individual Project\\Undergraduate-Individual-Project\\back-end\\contracts\\Individual.sol",
  "compiler": {
    "name": "solc",
    "version": "0.8.17+commit.8df45f5f.Emscripten.clang"
  },
  "schemaVersion": "3.4.11",
  "updatedAt": "2023-02-03T18:02:13.944Z",
  "networkType": "ethereum",
  "devdoc": {
    "kind": "dev",
    "methods": {},
    "version": 1
  },
  "userdoc": {
    "kind": "user",
    "methods": {},
    "version": 1
  }
}