{
  "contractName": "insuranceprovider",
  "abi": [
    {
      "anonymous": false,
      "inputs": [
        {
          "indexed": false,
          "internalType": "string",
          "name": "provider_name",
          "type": "string"
        },
        {
          "indexed": false,
          "internalType": "string",
          "name": "username",
          "type": "string"
        }
      ],
      "name": "NewProvider",
      "type": "event"
    },
    {
      "inputs": [],
      "name": "getInsuranceProvider",
      "outputs": [
        {
          "internalType": "string",
          "name": "",
          "type": "string"
        },
        {
          "internalType": "string",
          "name": "",
          "type": "string"
        }
      ],
      "stateMutability": "view",
      "type": "function"
    },
    {
      "inputs": [
        {
          "internalType": "string",
          "name": "_name",
          "type": "string"
        },
        {
          "internalType": "string",
          "name": "_email",
          "type": "string"
        },
        {
          "internalType": "string",
          "name": "_password",
          "type": "string"
        }
      ],
      "name": "registerProvider",
      "outputs": [],
      "stateMutability": "nonpayable",
      "type": "function"
    }
  ],
  "bytecode": "0x608060405234801561001057600080fd5b506108a2806100206000396000f3fe608060405234801561001057600080fd5b50600436106100365760003560e01c806346c8913c1461003b578063af3f6ac61461005a575b600080fd5b610043610076565b60405161005192919061030a565b60405180910390f35b610074600480360381019061006f919061048a565b61019d565b005b6060806001600281805461008990610560565b80601f01602080910402602001604051908101604052809291908181526020018280546100b590610560565b80156101025780601f106100d757610100808354040283529160200191610102565b820191906000526020600020905b8154815290600101906020018083116100e557829003601f168201915b5050505050915080805461011590610560565b80601f016020809104026020016040519081016040528092919081815260200182805461014190610560565b801561018e5780601f106101635761010080835404028352916020019161018e565b820191906000526020600020905b81548152906001019060200180831161017157829003601f168201915b50505050509050915091509091565b336000806101000a81548173ffffffffffffffffffffffffffffffffffffffff021916908373ffffffffffffffffffffffffffffffffffffffff16021790555082600190816101ec9190610747565b5081600290816101fc9190610747565b506102068161024a565b6003819055507f6ffb0260e7f629aacdf7dd2a92109e71c0cbd6ca450f139ac3c8d45fa8706a48838360405161023d92919061030a565b60405180910390a1505050565b60008160405160200161025d9190610855565b604051602081830303815290604052805190602001209050919050565b600081519050919050565b600082825260208201905092915050565b60005b838110156102b4578082015181840152602081019050610299565b60008484015250505050565b6000601f19601f8301169050919050565b60006102dc8261027a565b6102e68185610285565b93506102f6818560208601610296565b6102ff816102c0565b840191505092915050565b6000604082019050818103600083015261032481856102d1565b9050818103602083015261033881846102d1565b90509392505050565b6000604051905090565b600080fd5b600080fd5b600080fd5b600080fd5b7f4e487b7100000000000000000000000000000000000000000000000000000000600052604160045260246000fd5b610397826102c0565b810181811067ffffffffffffffff821117156103b6576103b561035f565b5b80604052505050565b60006103c9610341565b90506103d5828261038e565b919050565b600067ffffffffffffffff8211156103f5576103f461035f565b5b6103fe826102c0565b9050602081019050919050565b82818337600083830152505050565b600061042d610428846103da565b6103bf565b9050828152602081018484840111156104495761044861035a565b5b61045484828561040b565b509392505050565b600082601f83011261047157610470610355565b5b813561048184826020860161041a565b91505092915050565b6000806000606084860312156104a3576104a261034b565b5b600084013567ffffffffffffffff8111156104c1576104c0610350565b5b6104cd8682870161045c565b935050602084013567ffffffffffffffff8111156104ee576104ed610350565b5b6104fa8682870161045c565b925050604084013567ffffffffffffffff81111561051b5761051a610350565b5b6105278682870161045c565b9150509250925092565b7f4e487b7100000000000000000000000000000000000000000000000000000000600052602260045260246000fd5b6000600282049050600182168061057857607f821691505b60208210810361058b5761058a610531565b5b50919050565b60008190508160005260206000209050919050565b60006020601f8301049050919050565b600082821b905092915050565b6000600883026105f37fffffffffffffffffffffffffffffffffffffffffffffffffffffffffffffffff826105b6565b6105fd86836105b6565b95508019841693508086168417925050509392505050565b6000819050919050565b6000819050919050565b600061064461063f61063a84610615565b61061f565b610615565b9050919050565b6000819050919050565b61065e83610629565b61067261066a8261064b565b8484546105c3565b825550505050565b600090565b61068761067a565b610692818484610655565b505050565b5b818110156106b6576106ab60008261067f565b600181019050610698565b5050565b601f8211156106fb576106cc81610591565b6106d5846105a6565b810160208510156106e4578190505b6106f86106f0856105a6565b830182610697565b50505b505050565b600082821c905092915050565b600061071e60001984600802610700565b1980831691505092915050565b6000610737838361070d565b9150826002028217905092915050565b6107508261027a565b67ffffffffffffffff8111156107695761076861035f565b5b6107738254610560565b61077e8282856106ba565b600060209050601f8311600181146107b1576000841561079f578287015190505b6107a9858261072b565b865550610811565b601f1984166107bf86610591565b60005b828110156107e7578489015182556001820191506020850194506020810190506107c2565b868310156108045784890151610800601f89168261070d565b8355505b6001600288020188555050505b505050505050565b600081905092915050565b600061082f8261027a565b6108398185610819565b9350610849818560208601610296565b80840191505092915050565b60006108618284610824565b91508190509291505056fea26469706673582212209618f9072c466aec64e22552f8d829cfb6dcb039aae5ec047093165d79fd0c1c64736f6c63430008110033",
  "immutableReferences": {},
  "source": "// SPDX-License-Identifier: UNLICENSED\r\n\r\npragma solidity ^0.8.0;\r\n\r\ncontract insuranceprovider {\r\n    // fields\r\n    address insuranceProviderAddress;\r\n    string insuranceName;\r\n    string email;\r\n    bytes32 password;\r\n    address healthContractAddress;\r\n\r\n    // Events\r\n    event NewProvider(string provider_name, string username);\r\n\r\n    // functions\r\n    function getInsuranceProvider() public view returns (string memory, string memory){\r\n        return (\r\n            insuranceName,\r\n            email\r\n        );\r\n    }\r\n\r\n    // Function to register a single provider\r\n    function registerProvider(string memory _name, string memory _email, string memory _password) public {\r\n        insuranceProviderAddress= msg.sender;\r\n        insuranceName= _name;\r\n        email= _email;\r\n        password= hashPassword(_password);\r\n\r\n        // Emit a NewProvider event\r\n        emit NewProvider(_name, _email);\r\n    }\r\n\r\n    function hashPassword(string memory _password) private pure returns (bytes32) {\r\n        return keccak256(abi.encodePacked(_password));\r\n    }\r\n}",
  "sourcePath": "C:\\Users\\avine\\OneDrive - Middlesex University\\Documents\\MDX\\Year 3\\CST3990 Undergraduate Individual Project\\Undergraduate-Individual-Project\\back-end\\contracts\\InsuranceProvider.sol",
  "compiler": {
    "name": "solc",
    "version": "0.8.17+commit.8df45f5f.Emscripten.clang"
  },
  "schemaVersion": "3.4.11",
  "updatedAt": "2023-02-03T18:02:06.048Z",
  "devdoc": {
    "kind": "dev",
    "methods": {},
    "version": 1
  },
  "userdoc": {
    "kind": "user",
    "methods": {},
    "version": 1
  }
}