{
  "contractName": "ClaimContract",
  "abi": [
    {
      "anonymous": false,
      "inputs": [
        {
          "indexed": false,
          "internalType": "address",
          "name": "",
          "type": "address"
        }
      ],
      "name": "HealthOrganizationAddressSetup",
      "type": "event"
    },
    {
      "anonymous": false,
      "inputs": [
        {
          "indexed": false,
          "internalType": "address",
          "name": "",
          "type": "address"
        }
      ],
      "name": "InsuranceAddressSetup",
      "type": "event"
    },
    {
      "anonymous": false,
      "inputs": [
        {
          "indexed": false,
          "internalType": "uint256",
          "name": "",
          "type": "uint256"
        }
      ],
      "name": "LogClaimLimit",
      "type": "event"
    },
    {
      "anonymous": false,
      "inputs": [
        {
          "indexed": false,
          "internalType": "uint32",
          "name": "healthContractId",
          "type": "uint32"
        }
      ],
      "name": "NewPolicy",
      "type": "event"
    },
    {
      "anonymous": false,
      "inputs": [
        {
          "indexed": false,
          "internalType": "uint256",
          "name": "id",
          "type": "uint256"
        }
      ],
      "name": "returnClaimID",
      "type": "event"
    },
    {
      "inputs": [
        {
          "internalType": "uint256",
          "name": "",
          "type": "uint256"
        }
      ],
      "name": "claims",
      "outputs": [
        {
          "internalType": "uint32",
          "name": "id",
          "type": "uint32"
        },
        {
          "internalType": "string",
          "name": "requester",
          "type": "string"
        },
        {
          "internalType": "string",
          "name": "claimant",
          "type": "string"
        },
        {
          "components": [
            {
              "internalType": "uint32",
              "name": "healthcontractID",
              "type": "uint32"
            },
            {
              "internalType": "uint32",
              "name": "premium",
              "type": "uint32"
            },
            {
              "internalType": "string",
              "name": "coverageType",
              "type": "string"
            },
            {
              "internalType": "uint32",
              "name": "dental",
              "type": "uint32"
            },
            {
              "internalType": "uint32",
              "name": "eyeCare",
              "type": "uint32"
            },
            {
              "internalType": "uint32",
              "name": "generalCare",
              "type": "uint32"
            },
            {
              "internalType": "bool",
              "name": "approval",
              "type": "bool"
            }
          ],
          "internalType": "struct HealthPolicy.HealthContract",
          "name": "healthContract",
          "type": "tuple"
        },
        {
          "internalType": "enum ClaimContract.ClaimStatus",
          "name": "status",
          "type": "uint8"
        },
        {
          "internalType": "uint32",
          "name": "claimAmount",
          "type": "uint32"
        },
        {
          "internalType": "string",
          "name": "claimType",
          "type": "string"
        }
      ],
      "stateMutability": "view",
      "type": "function",
      "constant": true
    },
    {
      "inputs": [],
      "name": "getAllHealthContracts",
      "outputs": [
        {
          "components": [
            {
              "internalType": "uint32",
              "name": "healthcontractID",
              "type": "uint32"
            },
            {
              "internalType": "uint32",
              "name": "premium",
              "type": "uint32"
            },
            {
              "internalType": "string",
              "name": "coverageType",
              "type": "string"
            },
            {
              "internalType": "uint32",
              "name": "dental",
              "type": "uint32"
            },
            {
              "internalType": "uint32",
              "name": "eyeCare",
              "type": "uint32"
            },
            {
              "internalType": "uint32",
              "name": "generalCare",
              "type": "uint32"
            },
            {
              "internalType": "bool",
              "name": "approval",
              "type": "bool"
            }
          ],
          "internalType": "struct HealthPolicy.HealthContract[]",
          "name": "",
          "type": "tuple[]"
        }
      ],
      "stateMutability": "view",
      "type": "function",
      "constant": true
    },
    {
      "inputs": [
        {
          "internalType": "uint32",
          "name": "_healthContractId",
          "type": "uint32"
        }
      ],
      "name": "getHealthContract",
      "outputs": [
        {
          "components": [
            {
              "internalType": "uint32",
              "name": "healthcontractID",
              "type": "uint32"
            },
            {
              "internalType": "uint32",
              "name": "premium",
              "type": "uint32"
            },
            {
              "internalType": "string",
              "name": "coverageType",
              "type": "string"
            },
            {
              "internalType": "uint32",
              "name": "dental",
              "type": "uint32"
            },
            {
              "internalType": "uint32",
              "name": "eyeCare",
              "type": "uint32"
            },
            {
              "internalType": "uint32",
              "name": "generalCare",
              "type": "uint32"
            },
            {
              "internalType": "bool",
              "name": "approval",
              "type": "bool"
            }
          ],
          "internalType": "struct HealthPolicy.HealthContract",
          "name": "",
          "type": "tuple"
        }
      ],
      "stateMutability": "view",
      "type": "function",
      "constant": true
    },
    {
      "inputs": [],
      "name": "getInsuranceCompanyAddress",
      "outputs": [
        {
          "internalType": "address",
          "name": "",
          "type": "address"
        }
      ],
      "stateMutability": "view",
      "type": "function",
      "constant": true
    },
    {
      "inputs": [
        {
          "internalType": "uint256",
          "name": "",
          "type": "uint256"
        }
      ],
      "name": "healthContracts",
      "outputs": [
        {
          "internalType": "uint32",
          "name": "healthcontractID",
          "type": "uint32"
        },
        {
          "internalType": "uint32",
          "name": "premium",
          "type": "uint32"
        },
        {
          "internalType": "string",
          "name": "coverageType",
          "type": "string"
        },
        {
          "internalType": "uint32",
          "name": "dental",
          "type": "uint32"
        },
        {
          "internalType": "uint32",
          "name": "eyeCare",
          "type": "uint32"
        },
        {
          "internalType": "uint32",
          "name": "generalCare",
          "type": "uint32"
        },
        {
          "internalType": "bool",
          "name": "approval",
          "type": "bool"
        }
      ],
      "stateMutability": "view",
      "type": "function",
      "constant": true
    },
    {
      "inputs": [],
      "name": "healthOrganizationAddress",
      "outputs": [
        {
          "internalType": "address",
          "name": "",
          "type": "address"
        }
      ],
      "stateMutability": "view",
      "type": "function",
      "constant": true
    },
    {
      "inputs": [
        {
          "internalType": "string",
          "name": "",
          "type": "string"
        },
        {
          "internalType": "uint32",
          "name": "",
          "type": "uint32"
        },
        {
          "internalType": "uint256",
          "name": "",
          "type": "uint256"
        }
      ],
      "name": "individualByClaim",
      "outputs": [
        {
          "internalType": "string",
          "name": "",
          "type": "string"
        }
      ],
      "stateMutability": "view",
      "type": "function",
      "constant": true
    },
    {
      "inputs": [
        {
          "internalType": "string",
          "name": "",
          "type": "string"
        }
      ],
      "name": "iscoverageTypeExists",
      "outputs": [
        {
          "internalType": "bool",
          "name": "",
          "type": "bool"
        }
      ],
      "stateMutability": "view",
      "type": "function",
      "constant": true
    },
    {
      "inputs": [],
      "name": "setInsuranceCompanyAddress",
      "outputs": [],
      "stateMutability": "nonpayable",
      "type": "function"
    },
    {
      "inputs": [
        {
          "internalType": "string",
          "name": "_coverageType",
          "type": "string"
        },
        {
          "internalType": "uint32",
          "name": "_premium",
          "type": "uint32"
        },
        {
          "internalType": "uint32",
          "name": "_dental",
          "type": "uint32"
        },
        {
          "internalType": "uint32",
          "name": "_eyeCare",
          "type": "uint32"
        },
        {
          "internalType": "uint32",
          "name": "_generalCare",
          "type": "uint32"
        },
        {
          "internalType": "bool",
          "name": "_approval",
          "type": "bool"
        }
      ],
      "name": "uploadPolicy",
      "outputs": [],
      "stateMutability": "nonpayable",
      "type": "function"
    },
    {
      "inputs": [],
      "name": "setHealthOrganizationAddress",
      "outputs": [],
      "stateMutability": "nonpayable",
      "type": "function"
    },
    {
      "inputs": [
        {
          "internalType": "string",
          "name": "_username",
          "type": "string"
        },
        {
          "internalType": "uint32",
          "name": "_healthContractID",
          "type": "uint32"
        },
        {
          "internalType": "string",
          "name": "_claimType",
          "type": "string"
        }
      ],
      "name": "hasIndividualClaim",
      "outputs": [
        {
          "internalType": "bool",
          "name": "",
          "type": "bool"
        }
      ],
      "stateMutability": "view",
      "type": "function",
      "constant": true
    },
    {
      "inputs": [
        {
          "internalType": "string",
          "name": "_username",
          "type": "string"
        },
        {
          "internalType": "string",
          "name": "_individual",
          "type": "string"
        },
        {
          "internalType": "uint32",
          "name": "_claimAmount",
          "type": "uint32"
        },
        {
          "internalType": "uint32",
          "name": "_healthContractID",
          "type": "uint32"
        },
        {
          "internalType": "string",
          "name": "_claimType",
          "type": "string"
        }
      ],
      "name": "submitClaim",
      "outputs": [],
      "stateMutability": "nonpayable",
      "type": "function"
    },
    {
      "inputs": [
        {
          "internalType": "string",
          "name": "_username",
          "type": "string"
        },
        {
          "internalType": "uint32",
          "name": "_claimAmount",
          "type": "uint32"
        },
        {
          "internalType": "uint32",
          "name": "_healthContractID",
          "type": "uint32"
        },
        {
          "internalType": "string",
          "name": "_claimType",
          "type": "string"
        }
      ],
      "name": "requestClaim",
      "outputs": [],
      "stateMutability": "nonpayable",
      "type": "function"
    },
    {
      "inputs": [
        {
          "internalType": "uint256",
          "name": "_claimId",
          "type": "uint256"
        }
      ],
      "name": "approveClaim",
      "outputs": [],
      "stateMutability": "nonpayable",
      "type": "function"
    },
    {
      "inputs": [
        {
          "internalType": "uint256",
          "name": "_claimID",
          "type": "uint256"
        }
      ],
      "name": "adminApproval",
      "outputs": [],
      "stateMutability": "nonpayable",
      "type": "function"
    },
    {
      "inputs": [
        {
          "internalType": "uint256",
          "name": "_claimID",
          "type": "uint256"
        }
      ],
      "name": "adminDisapproval",
      "outputs": [],
      "stateMutability": "nonpayable",
      "type": "function"
    },
    {
      "inputs": [],
      "name": "getAllClaims",
      "outputs": [
        {
          "components": [
            {
              "internalType": "uint32",
              "name": "id",
              "type": "uint32"
            },
            {
              "internalType": "string",
              "name": "requester",
              "type": "string"
            },
            {
              "internalType": "string",
              "name": "claimant",
              "type": "string"
            },
            {
              "components": [
                {
                  "internalType": "uint32",
                  "name": "healthcontractID",
                  "type": "uint32"
                },
                {
                  "internalType": "uint32",
                  "name": "premium",
                  "type": "uint32"
                },
                {
                  "internalType": "string",
                  "name": "coverageType",
                  "type": "string"
                },
                {
                  "internalType": "uint32",
                  "name": "dental",
                  "type": "uint32"
                },
                {
                  "internalType": "uint32",
                  "name": "eyeCare",
                  "type": "uint32"
                },
                {
                  "internalType": "uint32",
                  "name": "generalCare",
                  "type": "uint32"
                },
                {
                  "internalType": "bool",
                  "name": "approval",
                  "type": "bool"
                }
              ],
              "internalType": "struct HealthPolicy.HealthContract",
              "name": "healthContract",
              "type": "tuple"
            },
            {
              "internalType": "enum ClaimContract.ClaimStatus",
              "name": "status",
              "type": "uint8"
            },
            {
              "internalType": "uint32",
              "name": "claimAmount",
              "type": "uint32"
            },
            {
              "internalType": "string",
              "name": "claimType",
              "type": "string"
            }
          ],
          "internalType": "struct ClaimContract.Claim[]",
          "name": "",
          "type": "tuple[]"
        }
      ],
      "stateMutability": "view",
      "type": "function",
      "constant": true
    },
    {
      "inputs": [
        {
          "internalType": "string",
          "name": "_username",
          "type": "string"
        }
      ],
      "name": "getOrganizationClaims",
      "outputs": [
        {
          "components": [
            {
              "internalType": "uint32",
              "name": "id",
              "type": "uint32"
            },
            {
              "internalType": "string",
              "name": "requester",
              "type": "string"
            },
            {
              "internalType": "string",
              "name": "claimant",
              "type": "string"
            },
            {
              "components": [
                {
                  "internalType": "uint32",
                  "name": "healthcontractID",
                  "type": "uint32"
                },
                {
                  "internalType": "uint32",
                  "name": "premium",
                  "type": "uint32"
                },
                {
                  "internalType": "string",
                  "name": "coverageType",
                  "type": "string"
                },
                {
                  "internalType": "uint32",
                  "name": "dental",
                  "type": "uint32"
                },
                {
                  "internalType": "uint32",
                  "name": "eyeCare",
                  "type": "uint32"
                },
                {
                  "internalType": "uint32",
                  "name": "generalCare",
                  "type": "uint32"
                },
                {
                  "internalType": "bool",
                  "name": "approval",
                  "type": "bool"
                }
              ],
              "internalType": "struct HealthPolicy.HealthContract",
              "name": "healthContract",
              "type": "tuple"
            },
            {
              "internalType": "enum ClaimContract.ClaimStatus",
              "name": "status",
              "type": "uint8"
            },
            {
              "internalType": "uint32",
              "name": "claimAmount",
              "type": "uint32"
            },
            {
              "internalType": "string",
              "name": "claimType",
              "type": "string"
            }
          ],
          "internalType": "struct ClaimContract.Claim[]",
          "name": "",
          "type": "tuple[]"
        }
      ],
      "stateMutability": "view",
      "type": "function",
      "constant": true
    },
    {
      "inputs": [
        {
          "internalType": "string",
          "name": "_username",
          "type": "string"
        }
      ],
      "name": "getIndividualClaims",
      "outputs": [
        {
          "components": [
            {
              "internalType": "uint32",
              "name": "id",
              "type": "uint32"
            },
            {
              "internalType": "string",
              "name": "requester",
              "type": "string"
            },
            {
              "internalType": "string",
              "name": "claimant",
              "type": "string"
            },
            {
              "components": [
                {
                  "internalType": "uint32",
                  "name": "healthcontractID",
                  "type": "uint32"
                },
                {
                  "internalType": "uint32",
                  "name": "premium",
                  "type": "uint32"
                },
                {
                  "internalType": "string",
                  "name": "coverageType",
                  "type": "string"
                },
                {
                  "internalType": "uint32",
                  "name": "dental",
                  "type": "uint32"
                },
                {
                  "internalType": "uint32",
                  "name": "eyeCare",
                  "type": "uint32"
                },
                {
                  "internalType": "uint32",
                  "name": "generalCare",
                  "type": "uint32"
                },
                {
                  "internalType": "bool",
                  "name": "approval",
                  "type": "bool"
                }
              ],
              "internalType": "struct HealthPolicy.HealthContract",
              "name": "healthContract",
              "type": "tuple"
            },
            {
              "internalType": "enum ClaimContract.ClaimStatus",
              "name": "status",
              "type": "uint8"
            },
            {
              "internalType": "uint32",
              "name": "claimAmount",
              "type": "uint32"
            },
            {
              "internalType": "string",
              "name": "claimType",
              "type": "string"
            }
          ],
          "internalType": "struct ClaimContract.Claim[]",
          "name": "",
          "type": "tuple[]"
        }
      ],
      "stateMutability": "view",
      "type": "function",
      "constant": true
    },
    {
      "inputs": [
        {
          "internalType": "string",
          "name": "individual",
          "type": "string"
        },
        {
          "internalType": "uint32",
          "name": "healthContractId",
          "type": "uint32"
        }
      ],
      "name": "checkHealthContractMapping",
      "outputs": [
        {
          "internalType": "bool",
          "name": "",
          "type": "bool"
        }
      ],
      "stateMutability": "view",
      "type": "function",
      "constant": true
    }
  ],
  "bytecode": "0x608060405260016000806101000a81548163ffffffff021916908363ffffffff1602179055506000600360146101000a81548163ffffffff021916908363ffffffff16021790555034801561005357600080fd5b50615fb580620000646000396000f3fe608060405234801561001057600080fd5b50600436106101375760003560e01c806377ca2602116100b8578063b2e85a041161007c578063b2e85a041461032c578063c1e71f0b1461034a578063ce42d7b514610380578063d81ad3091461039c578063dd056b12146103cc578063f4a7eb42146103fc57610137565b806377ca2602146102845780637f2d36a8146102b4578063a57a9055146102be578063a888c2cd146102da578063aa5a9a9b1461031057610137565b80634f01babf116100ff5780634f01babf146101de57806355b33e0a146101fc5780635b23c27d1461021857806366480ce014610236578063757506911461026657610137565b80631a5c3ced1461013c5780631ccc39291461016c5780633c3fdc421461019c578063437b2931146101b857806346e30135146101c2575b600080fd5b6101566004803603810190610151919061490c565b61042c565b6040516101639190614c94565b60405180910390f35b61018660048036038101906101819190614ce2565b610b08565b6040516101939190614d4d565b60405180910390f35b6101b660048036038101906101b19190614d68565b610b53565b005b6101c061104b565b005b6101dc60048036038101906101d79190614e6d565b611178565b005b6101e6611a2c565b6040516101f39190614f5c565b60405180910390f35b61021660048036038101906102119190614e6d565b611bf6565b005b610220612202565b60405161022d9190614c94565b60405180910390f35b610250600480360381019061024b9190614f7e565b6126ad565b60405161025d9190615037565b60405180910390f35b61026e612789565b60405161027b919061509a565b60405180910390f35b61029e6004803603810190610299919061490c565b6127af565b6040516102ab9190614d4d565b60405180910390f35b6102bc6127e5565b005b6102d860048036038101906102d391906150e1565b612912565b005b6102f460048036038101906102ef9190614e6d565b612c89565b6040516103079796959493929190615244565b60405180910390f35b61032a60048036038101906103259190614e6d565b613015565b005b610334613621565b604051610341919061509a565b60405180910390f35b610364600480360381019061035f9190614e6d565b61364b565b60405161037797969594939291906152cf565b60405180910390f35b61039a60048036038101906103959190615345565b613782565b005b6103b660048036038101906103b1919061490c565b613be9565b6040516103c39190614c94565b60405180910390f35b6103e660048036038101906103e191906153e4565b614235565b6040516103f39190615411565b60405180910390f35b61041660048036038101906104119190615433565b6144f1565b6040516104239190614d4d565b60405180910390f35b6060600660009054906101000a900473ffffffffffffffffffffffffffffffffffffffff1673ffffffffffffffffffffffffffffffffffffffff163373ffffffffffffffffffffffffffffffffffffffff16146104be576040517f08c379a00000000000000000000000000000000000000000000000000000000081526004016104b590615530565b60405180910390fd5b6000805b6005805490508110156105ad57610586600582815481106104e6576104e5615550565b5b90600052602060002090600802016001018054610502906155ae565b80601f016020809104026020016040519081016040528092919081815260200182805461052e906155ae565b801561057b5780601f106105505761010080835404028352916020019161057b565b820191906000526020600020905b81548152906001019060200180831161055e57829003601f168201915b505050505085614507565b1561059a5781806105969061560e565b9250505b80806105a59061560e565b9150506104c2565b5060008167ffffffffffffffff8111156105ca576105c96147e1565b5b60405190808252806020026020018201604052801561060357816020015b6105f061461a565b8152602001906001900390816105e85790505b5090506000805b600580549050811015610afc576106ce6005828154811061062e5761062d615550565b5b9060005260206000209060080201600101805461064a906155ae565b80601f0160208091040260200160405190810160405280929190818152602001828054610676906155ae565b80156106c35780601f10610698576101008083540402835291602001916106c3565b820191906000526020600020905b8154815290600101906020018083116106a657829003601f168201915b505050505087614507565b15610ae957600581815481106106e7576106e6615550565b5b90600052602060002090600802016040518060e00160405290816000820160009054906101000a900463ffffffff1663ffffffff1663ffffffff168152602001600182018054610736906155ae565b80601f0160208091040260200160405190810160405280929190818152602001828054610762906155ae565b80156107af5780601f10610784576101008083540402835291602001916107af565b820191906000526020600020905b81548152906001019060200180831161079257829003601f168201915b505050505081526020016002820180546107c8906155ae565b80601f01602080910402602001604051908101604052809291908181526020018280546107f4906155ae565b80156108415780601f1061081657610100808354040283529160200191610841565b820191906000526020600020905b81548152906001019060200180831161082457829003601f168201915b50505050508152602001600382016040518060e00160405290816000820160009054906101000a900463ffffffff1663ffffffff1663ffffffff1681526020016000820160049054906101000a900463ffffffff1663ffffffff1663ffffffff1681526020016001820180546108b6906155ae565b80601f01602080910402602001604051908101604052809291908181526020018280546108e2906155ae565b801561092f5780601f106109045761010080835404028352916020019161092f565b820191906000526020600020905b81548152906001019060200180831161091257829003601f168201915b505050505081526020016002820160009054906101000a900463ffffffff1663ffffffff1663ffffffff1681526020016002820160049054906101000a900463ffffffff1663ffffffff1663ffffffff1681526020016002820160089054906101000a900463ffffffff1663ffffffff1663ffffffff16815260200160028201600c9054906101000a900460ff16151515158152505081526020016006820160009054906101000a900460ff1660028111156109ee576109ed614ad6565b5b6002811115610a00576109ff614ad6565b5b81526020016006820160019054906101000a900463ffffffff1663ffffffff1663ffffffff168152602001600782018054610a3a906155ae565b80601f0160208091040260200160405190810160405280929190818152602001828054610a66906155ae565b8015610ab35780601f10610a8857610100808354040283529160200191610ab3565b820191906000526020600020905b815481529060010190602001808311610a9657829003601f168201915b505050505081525050838381518110610acf57610ace615550565b5b60200260200101819052508180610ae59061560e565b9250505b8080610af49061560e565b91505061060a565b50819350505050919050565b600080600484604051610b1b9190615692565b908152602001604051809103902060008463ffffffff1663ffffffff1681526020019081526020016000208054905011905092915050565b600660009054906101000a900473ffffffffffffffffffffffffffffffffffffffff1673ffffffffffffffffffffffffffffffffffffffff163373ffffffffffffffffffffffffffffffffffffffff1614610be3576040517f08c379a0000000000000000000000000000000000000000000000000000000008152600401610bda90615530565b60405180910390fd5b610bed8483610b08565b15610c4257610bfd848383614560565b15610c3d576040517f08c379a0000000000000000000000000000000000000000000000000000000008152600401610c349061571b565b60405180910390fd5b610ce1565b600067ffffffffffffffff811115610c5d57610c5c6147e1565b5b604051908082528060200260200182016040528015610c9057816020015b6060815260200190600190039081610c7b5790505b50600485604051610ca19190615692565b908152602001604051809103902060008463ffffffff1663ffffffff1681526020019081526020016000209080519060200190610cdf92919061467b565b505b600484604051610cf19190615692565b908152602001604051809103902060008363ffffffff1663ffffffff16815260200190815260200160002081908060018154018082558091505060019003906000526020600020016000909190919091509081610d4e91906158e7565b506000610d5a83614235565b905060006003601481819054906101000a900463ffffffff1680929190610d80906159b9565b91906101000a81548163ffffffff021916908363ffffffff160217905550905060006040518060e001604052808363ffffffff16815260200189815260200188815260200184815260200160006002811115610ddf57610dde614ad6565b5b81526020018763ffffffff168152602001858152509050600581908060018154018082558091505060019003906000526020600020906008020160009091909190915060008201518160000160006101000a81548163ffffffff021916908363ffffffff1602179055506020820151816001019081610e5e91906158e7565b506040820151816002019081610e7491906158e7565b5060608201518160030160008201518160000160006101000a81548163ffffffff021916908363ffffffff16021790555060208201518160000160046101000a81548163ffffffff021916908363ffffffff1602179055506040820151816001019081610ee191906158e7565b5060608201518160020160006101000a81548163ffffffff021916908363ffffffff16021790555060808201518160020160046101000a81548163ffffffff021916908363ffffffff16021790555060a08201518160020160086101000a81548163ffffffff021916908363ffffffff16021790555060c082015181600201600c6101000a81548160ff021916908315150217905550505060808201518160060160006101000a81548160ff02191690836002811115610fa457610fa3614ad6565b5b021790555060a08201518160060160016101000a81548163ffffffff021916908363ffffffff16021790555060c0820151816007019081610fe591906158e7565b5050508260c001511561100657611005816000015163ffffffff16611178565b5b7f43b2ecffc1430095f472e76b4b6ce881d48ad26ae0051b5f0d67a0ef6c9493c181600001516040516110399190615a16565b60405180910390a15050505050505050565b600073ffffffffffffffffffffffffffffffffffffffff16600360009054906101000a900473ffffffffffffffffffffffffffffffffffffffff1673ffffffffffffffffffffffffffffffffffffffff16146110dc576040517f08c379a00000000000000000000000000000000000000000000000000000000081526004016110d390615aa3565b60405180910390fd5b33600360006101000a81548173ffffffffffffffffffffffffffffffffffffffff021916908373ffffffffffffffffffffffffffffffffffffffff1602179055507fb25c977d989f4187a94e00597c58c74e9ed5170ac48853fe1ce61a5892470ee3600360009054906101000a900473ffffffffffffffffffffffffffffffffffffffff1660405161116e919061509a565b60405180910390a1565b6000600580549050116111c0576040517f08c379a00000000000000000000000000000000000000000000000000000000081526004016111b790615b0f565b60405180910390fd5b6005805490508110611207576040517f08c379a00000000000000000000000000000000000000000000000000000000081526004016111fe90615ba1565b60405180910390fd5b60006005828154811061121d5761121c615550565b5b90600052602060002090600802016040518060e00160405290816000820160009054906101000a900463ffffffff1663ffffffff1663ffffffff16815260200160018201805461126c906155ae565b80601f0160208091040260200160405190810160405280929190818152602001828054611298906155ae565b80156112e55780601f106112ba576101008083540402835291602001916112e5565b820191906000526020600020905b8154815290600101906020018083116112c857829003601f168201915b505050505081526020016002820180546112fe906155ae565b80601f016020809104026020016040519081016040528092919081815260200182805461132a906155ae565b80156113775780601f1061134c57610100808354040283529160200191611377565b820191906000526020600020905b81548152906001019060200180831161135a57829003601f168201915b50505050508152602001600382016040518060e00160405290816000820160009054906101000a900463ffffffff1663ffffffff1663ffffffff1681526020016000820160049054906101000a900463ffffffff1663ffffffff1663ffffffff1681526020016001820180546113ec906155ae565b80601f0160208091040260200160405190810160405280929190818152602001828054611418906155ae565b80156114655780601f1061143a57610100808354040283529160200191611465565b820191906000526020600020905b81548152906001019060200180831161144857829003601f168201915b505050505081526020016002820160009054906101000a900463ffffffff1663ffffffff1663ffffffff1681526020016002820160049054906101000a900463ffffffff1663ffffffff1663ffffffff1681526020016002820160089054906101000a900463ffffffff1663ffffffff1663ffffffff16815260200160028201600c9054906101000a900460ff16151515158152505081526020016006820160009054906101000a900460ff16600281111561152457611523614ad6565b5b600281111561153657611535614ad6565b5b81526020016006820160019054906101000a900463ffffffff1663ffffffff1663ffffffff168152602001600782018054611570906155ae565b80601f016020809104026020016040519081016040528092919081815260200182805461159c906155ae565b80156115e95780601f106115be576101008083540402835291602001916115e9565b820191906000526020600020905b8154815290600101906020018083116115cc57829003601f168201915b50505050508152505090506000600281111561160857611607614ad6565b5b8160800151600281111561161f5761161e614ad6565b5b1461165f576040517f08c379a000000000000000000000000000000000000000000000000000000000815260040161165690615c33565b60405180910390fd5b60006116a48260c001516040518060400160405280600781526020017f6579654361726500000000000000000000000000000000000000000000000000815250614507565b156116de5760648260600151608001518360600151602001516116c79190615c53565b6116d19190615cbf565b63ffffffff16905061178d565b6117218260c001516040518060400160405280600b81526020017f67656e6572616c43617265000000000000000000000000000000000000000000815250614507565b1561175b576064826060015160a001518360600151602001516117449190615c53565b61174e9190615cbf565b63ffffffff16905061178c565b60648260600151606001518360600151602001516117799190615c53565b6117839190615cbf565b63ffffffff1690505b5b808260a0015163ffffffff16116117d4576001826080019060028111156117b7576117b6614ad6565b5b908160028111156117cb576117ca614ad6565b5b81525050611806565b6002826080019060028111156117ed576117ec614ad6565b5b9081600281111561180157611800614ad6565b5b815250505b816005848154811061181b5761181a615550565b5b906000526020600020906008020160008201518160000160006101000a81548163ffffffff021916908363ffffffff160217905550602082015181600101908161186591906158e7565b50604082015181600201908161187b91906158e7565b5060608201518160030160008201518160000160006101000a81548163ffffffff021916908363ffffffff16021790555060208201518160000160046101000a81548163ffffffff021916908363ffffffff16021790555060408201518160010190816118e891906158e7565b5060608201518160020160006101000a81548163ffffffff021916908363ffffffff16021790555060808201518160020160046101000a81548163ffffffff021916908363ffffffff16021790555060a08201518160020160086101000a81548163ffffffff021916908363ffffffff16021790555060c082015181600201600c6101000a81548160ff021916908315150217905550505060808201518160060160006101000a81548160ff021916908360028111156119ab576119aa614ad6565b5b021790555060a08201518160060160016101000a81548163ffffffff021916908363ffffffff16021790555060c08201518160070190816119ec91906158e7565b509050507f1d7759e5a73c56f481f0729564a9376123b3a028ae79cc545e6fd202ffa962d881604051611a1f9190615cff565b60405180910390a1505050565b60606001805480602002602001604051908101604052809291908181526020016000905b82821015611bed57838290600052602060002090600302016040518060e00160405290816000820160009054906101000a900463ffffffff1663ffffffff1663ffffffff1681526020016000820160049054906101000a900463ffffffff1663ffffffff1663ffffffff168152602001600182018054611acf906155ae565b80601f0160208091040260200160405190810160405280929190818152602001828054611afb906155ae565b8015611b485780601f10611b1d57610100808354040283529160200191611b48565b820191906000526020600020905b815481529060010190602001808311611b2b57829003601f168201915b505050505081526020016002820160009054906101000a900463ffffffff1663ffffffff1663ffffffff1681526020016002820160049054906101000a900463ffffffff1663ffffffff1663ffffffff1681526020016002820160089054906101000a900463ffffffff1663ffffffff1663ffffffff16815260200160028201600c9054906101000a900460ff16151515158152505081526020019060010190611a50565b50505050905090565b600060058281548110611c0c57611c0b615550565b5b90600052602060002090600802016040518060e00160405290816000820160009054906101000a900463ffffffff1663ffffffff1663ffffffff168152602001600182018054611c5b906155ae565b80601f0160208091040260200160405190810160405280929190818152602001828054611c87906155ae565b8015611cd45780601f10611ca957610100808354040283529160200191611cd4565b820191906000526020600020905b815481529060010190602001808311611cb757829003601f168201915b50505050508152602001600282018054611ced906155ae565b80601f0160208091040260200160405190810160405280929190818152602001828054611d19906155ae565b8015611d665780601f10611d3b57610100808354040283529160200191611d66565b820191906000526020600020905b815481529060010190602001808311611d4957829003601f168201915b50505050508152602001600382016040518060e00160405290816000820160009054906101000a900463ffffffff1663ffffffff1663ffffffff1681526020016000820160049054906101000a900463ffffffff1663ffffffff1663ffffffff168152602001600182018054611ddb906155ae565b80601f0160208091040260200160405190810160405280929190818152602001828054611e07906155ae565b8015611e545780601f10611e2957610100808354040283529160200191611e54565b820191906000526020600020905b815481529060010190602001808311611e3757829003601f168201915b505050505081526020016002820160009054906101000a900463ffffffff1663ffffffff1663ffffffff1681526020016002820160049054906101000a900463ffffffff1663ffffffff1663ffffffff1681526020016002820160089054906101000a900463ffffffff1663ffffffff1663ffffffff16815260200160028201600c9054906101000a900460ff16151515158152505081526020016006820160009054906101000a900460ff166002811115611f1357611f12614ad6565b5b6002811115611f2557611f24614ad6565b5b81526020016006820160019054906101000a900463ffffffff1663ffffffff1663ffffffff168152602001600782018054611f5f906155ae565b80601f0160208091040260200160405190810160405280929190818152602001828054611f8b906155ae565b8015611fd85780601f10611fad57610100808354040283529160200191611fd8565b820191906000526020600020905b815481529060010190602001808311611fbb57829003601f168201915b5050505050815250509050600181608001906002811115611ffc57611ffb614ad6565b5b908160028111156120105761200f614ad6565b5b81525050806005838154811061202957612028615550565b5b906000526020600020906008020160008201518160000160006101000a81548163ffffffff021916908363ffffffff160217905550602082015181600101908161207391906158e7565b50604082015181600201908161208991906158e7565b5060608201518160030160008201518160000160006101000a81548163ffffffff021916908363ffffffff16021790555060208201518160000160046101000a81548163ffffffff021916908363ffffffff16021790555060408201518160010190816120f691906158e7565b5060608201518160020160006101000a81548163ffffffff021916908363ffffffff16021790555060808201518160020160046101000a81548163ffffffff021916908363ffffffff16021790555060a08201518160020160086101000a81548163ffffffff021916908363ffffffff16021790555060c082015181600201600c6101000a81548160ff021916908315150217905550505060808201518160060160006101000a81548160ff021916908360028111156121b9576121b8614ad6565b5b021790555060a08201518160060160016101000a81548163ffffffff021916908363ffffffff16021790555060c08201518160070190816121fa91906158e7565b509050505050565b6060600360009054906101000a900473ffffffffffffffffffffffffffffffffffffffff1673ffffffffffffffffffffffffffffffffffffffff163373ffffffffffffffffffffffffffffffffffffffff1614612294576040517f08c379a000000000000000000000000000000000000000000000000000000000815260040161228b90615d8c565b60405180910390fd5b6005805480602002602001604051908101604052809291908181526020016000905b828210156126a457838290600052602060002090600802016040518060e00160405290816000820160009054906101000a900463ffffffff1663ffffffff1663ffffffff16815260200160018201805461230f906155ae565b80601f016020809104026020016040519081016040528092919081815260200182805461233b906155ae565b80156123885780601f1061235d57610100808354040283529160200191612388565b820191906000526020600020905b81548152906001019060200180831161236b57829003601f168201915b505050505081526020016002820180546123a1906155ae565b80601f01602080910402602001604051908101604052809291908181526020018280546123cd906155ae565b801561241a5780601f106123ef5761010080835404028352916020019161241a565b820191906000526020600020905b8154815290600101906020018083116123fd57829003601f168201915b50505050508152602001600382016040518060e00160405290816000820160009054906101000a900463ffffffff1663ffffffff1663ffffffff1681526020016000820160049054906101000a900463ffffffff1663ffffffff1663ffffffff16815260200160018201805461248f906155ae565b80601f01602080910402602001604051908101604052809291908181526020018280546124bb906155ae565b80156125085780601f106124dd57610100808354040283529160200191612508565b820191906000526020600020905b8154815290600101906020018083116124eb57829003601f168201915b505050505081526020016002820160009054906101000a900463ffffffff1663ffffffff1663ffffffff1681526020016002820160049054906101000a900463ffffffff1663ffffffff1663ffffffff1681526020016002820160089054906101000a900463ffffffff1663ffffffff1663ffffffff16815260200160028201600c9054906101000a900460ff16151515158152505081526020016006820160009054906101000a900460ff1660028111156125c7576125c6614ad6565b5b60028111156125d9576125d8614ad6565b5b81526020016006820160019054906101000a900463ffffffff1663ffffffff1663ffffffff168152602001600782018054612613906155ae565b80601f016020809104026020016040519081016040528092919081815260200182805461263f906155ae565b801561268c5780601f106126615761010080835404028352916020019161268c565b820191906000526020600020905b81548152906001019060200180831161266f57829003601f168201915b505050505081525050815260200190600101906122b6565b50505050905090565b60048380516020810182018051848252602083016020850120818352809550505050505060205281600052604060002081815481106126eb57600080fd5b9060005260206000200160009250925050508054612708906155ae565b80601f0160208091040260200160405190810160405280929190818152602001828054612734906155ae565b80156127815780601f1061275657610100808354040283529160200191612781565b820191906000526020600020905b81548152906001019060200180831161276457829003601f168201915b505050505081565b600660009054906101000a900473ffffffffffffffffffffffffffffffffffffffff1681565b6002818051602081018201805184825260208301602085012081835280955050505050506000915054906101000a900460ff1681565b600073ffffffffffffffffffffffffffffffffffffffff16600660009054906101000a900473ffffffffffffffffffffffffffffffffffffffff1673ffffffffffffffffffffffffffffffffffffffff1614612876576040517f08c379a000000000000000000000000000000000000000000000000000000000815260040161286d90615e1e565b60405180910390fd5b33600660006101000a81548173ffffffffffffffffffffffffffffffffffffffff021916908373ffffffffffffffffffffffffffffffffffffffff1602179055507f13e4cfeb5819fe9c69a6eb7df82a31c944b9e4c6d3b5d2cd2df8f94b4557a767600660009054906101000a900473ffffffffffffffffffffffffffffffffffffffff16604051612908919061509a565b60405180910390a1565b600360009054906101000a900473ffffffffffffffffffffffffffffffffffffffff1673ffffffffffffffffffffffffffffffffffffffff163373ffffffffffffffffffffffffffffffffffffffff16146129a2576040517f08c379a000000000000000000000000000000000000000000000000000000000815260040161299990615d8c565b60405180910390fd5b6002866040516129b29190615692565b908152602001604051809103902060009054906101000a900460ff1615612a0e576040517f08c379a0000000000000000000000000000000000000000000000000000000008152600401612a0590615e8a565b60405180910390fd5b612a166146d4565b600080600081819054906101000a900463ffffffff1680929190612a39906159b9565b91906101000a81548163ffffffff021916908363ffffffff160217905550905080826000019063ffffffff16908163ffffffff168152505087826040018190525086826020019063ffffffff16908163ffffffff168152505085826060019063ffffffff16908163ffffffff168152505084826080019063ffffffff16908163ffffffff1681525050838260a0019063ffffffff16908163ffffffff1681525050828260c00190151590811515815250506001600289604051612afc9190615692565b908152602001604051809103902060006101000a81548160ff021916908315150217905550600182908060018154018082558091505060019003906000526020600020906003020160009091909190915060008201518160000160006101000a81548163ffffffff021916908363ffffffff16021790555060208201518160000160046101000a81548163ffffffff021916908363ffffffff1602179055506040820151816001019081612bb091906158e7565b5060608201518160020160006101000a81548163ffffffff021916908363ffffffff16021790555060808201518160020160046101000a81548163ffffffff021916908363ffffffff16021790555060a08201518160020160086101000a81548163ffffffff021916908363ffffffff16021790555060c082015181600201600c6101000a81548160ff02191690831515021790555050507f031d20a59b889ee74434a2a116512fa3ae2bd590c47882d5b7333db6cbe305c481604051612c779190615eaa565b60405180910390a15050505050505050565b60058181548110612c9957600080fd5b90600052602060002090600802016000915090508060000160009054906101000a900463ffffffff1690806001018054612cd2906155ae565b80601f0160208091040260200160405190810160405280929190818152602001828054612cfe906155ae565b8015612d4b5780601f10612d2057610100808354040283529160200191612d4b565b820191906000526020600020905b815481529060010190602001808311612d2e57829003601f168201915b505050505090806002018054612d60906155ae565b80601f0160208091040260200160405190810160405280929190818152602001828054612d8c906155ae565b8015612dd95780601f10612dae57610100808354040283529160200191612dd9565b820191906000526020600020905b815481529060010190602001808311612dbc57829003601f168201915b505050505090806003016040518060e00160405290816000820160009054906101000a900463ffffffff1663ffffffff1663ffffffff1681526020016000820160049054906101000a900463ffffffff1663ffffffff1663ffffffff168152602001600182018054612e4a906155ae565b80601f0160208091040260200160405190810160405280929190818152602001828054612e76906155ae565b8015612ec35780601f10612e9857610100808354040283529160200191612ec3565b820191906000526020600020905b815481529060010190602001808311612ea657829003601f168201915b505050505081526020016002820160009054906101000a900463ffffffff1663ffffffff1663ffffffff1681526020016002820160049054906101000a900463ffffffff1663ffffffff1663ffffffff1681526020016002820160089054906101000a900463ffffffff1663ffffffff1663ffffffff16815260200160028201600c9054906101000a900460ff161515151581525050908060060160009054906101000a900460ff16908060060160019054906101000a900463ffffffff1690806007018054612f92906155ae565b80601f0160208091040260200160405190810160405280929190818152602001828054612fbe906155ae565b801561300b5780601f10612fe05761010080835404028352916020019161300b565b820191906000526020600020905b815481529060010190602001808311612fee57829003601f168201915b5050505050905087565b60006005828154811061302b5761302a615550565b5b90600052602060002090600802016040518060e00160405290816000820160009054906101000a900463ffffffff1663ffffffff1663ffffffff16815260200160018201805461307a906155ae565b80601f01602080910402602001604051908101604052809291908181526020018280546130a6906155ae565b80156130f35780601f106130c8576101008083540402835291602001916130f3565b820191906000526020600020905b8154815290600101906020018083116130d657829003601f168201915b5050505050815260200160028201805461310c906155ae565b80601f0160208091040260200160405190810160405280929190818152602001828054613138906155ae565b80156131855780601f1061315a57610100808354040283529160200191613185565b820191906000526020600020905b81548152906001019060200180831161316857829003601f168201915b50505050508152602001600382016040518060e00160405290816000820160009054906101000a900463ffffffff1663ffffffff1663ffffffff1681526020016000820160049054906101000a900463ffffffff1663ffffffff1663ffffffff1681526020016001820180546131fa906155ae565b80601f0160208091040260200160405190810160405280929190818152602001828054613226906155ae565b80156132735780601f1061324857610100808354040283529160200191613273565b820191906000526020600020905b81548152906001019060200180831161325657829003601f168201915b505050505081526020016002820160009054906101000a900463ffffffff1663ffffffff1663ffffffff1681526020016002820160049054906101000a900463ffffffff1663ffffffff1663ffffffff1681526020016002820160089054906101000a900463ffffffff1663ffffffff1663ffffffff16815260200160028201600c9054906101000a900460ff16151515158152505081526020016006820160009054906101000a900460ff16600281111561333257613331614ad6565b5b600281111561334457613343614ad6565b5b81526020016006820160019054906101000a900463ffffffff1663ffffffff1663ffffffff16815260200160078201805461337e906155ae565b80601f01602080910402602001604051908101604052809291908181526020018280546133aa906155ae565b80156133f75780601f106133cc576101008083540402835291602001916133f7565b820191906000526020600020905b8154815290600101906020018083116133da57829003601f168201915b505050505081525050905060028160800190600281111561341b5761341a614ad6565b5b9081600281111561342f5761342e614ad6565b5b81525050806005838154811061344857613447615550565b5b906000526020600020906008020160008201518160000160006101000a81548163ffffffff021916908363ffffffff160217905550602082015181600101908161349291906158e7565b5060408201518160020190816134a891906158e7565b5060608201518160030160008201518160000160006101000a81548163ffffffff021916908363ffffffff16021790555060208201518160000160046101000a81548163ffffffff021916908363ffffffff160217905550604082015181600101908161351591906158e7565b5060608201518160020160006101000a81548163ffffffff021916908363ffffffff16021790555060808201518160020160046101000a81548163ffffffff021916908363ffffffff16021790555060a08201518160020160086101000a81548163ffffffff021916908363ffffffff16021790555060c082015181600201600c6101000a81548160ff021916908315150217905550505060808201518160060160006101000a81548160ff021916908360028111156135d8576135d7614ad6565b5b021790555060a08201518160060160016101000a81548163ffffffff021916908363ffffffff16021790555060c082015181600701908161361991906158e7565b509050505050565b6000600360009054906101000a900473ffffffffffffffffffffffffffffffffffffffff16905090565b6001818154811061365b57600080fd5b90600052602060002090600302016000915090508060000160009054906101000a900463ffffffff16908060000160049054906101000a900463ffffffff16908060010180546136aa906155ae565b80601f01602080910402602001604051908101604052809291908181526020018280546136d6906155ae565b80156137235780601f106136f857610100808354040283529160200191613723565b820191906000526020600020905b81548152906001019060200180831161370657829003601f168201915b5050505050908060020160009054906101000a900463ffffffff16908060020160049054906101000a900463ffffffff16908060020160089054906101000a900463ffffffff169080600201600c9054906101000a900460ff16905087565b61378c8483610b08565b156137e15761379c848383614560565b156137dc576040517f08c379a00000000000000000000000000000000000000000000000000000000081526004016137d39061571b565b60405180910390fd5b613880565b600067ffffffffffffffff8111156137fc576137fb6147e1565b5b60405190808252806020026020018201604052801561382f57816020015b606081526020019060019003908161381a5790505b506004856040516138409190615692565b908152602001604051809103902060008463ffffffff1663ffffffff168152602001908152602001600020908051906020019061387e92919061467b565b505b6004846040516138909190615692565b908152602001604051809103902060008363ffffffff1663ffffffff168152602001908152602001600020819080600181540180825580915050600190039060005260206000200160009091909190915090816138ed91906158e7565b5060006138f983614235565b905060006003601481819054906101000a900463ffffffff168092919061391f906159b9565b91906101000a81548163ffffffff021916908363ffffffff160217905550905060006040518060e001604052808363ffffffff1681526020018881526020018881526020018481526020016000600281111561397e5761397d614ad6565b5b81526020018763ffffffff168152602001858152509050600581908060018154018082558091505060019003906000526020600020906008020160009091909190915060008201518160000160006101000a81548163ffffffff021916908363ffffffff16021790555060208201518160010190816139fd91906158e7565b506040820151816002019081613a1391906158e7565b5060608201518160030160008201518160000160006101000a81548163ffffffff021916908363ffffffff16021790555060208201518160000160046101000a81548163ffffffff021916908363ffffffff1602179055506040820151816001019081613a8091906158e7565b5060608201518160020160006101000a81548163ffffffff021916908363ffffffff16021790555060808201518160020160046101000a81548163ffffffff021916908363ffffffff16021790555060a08201518160020160086101000a81548163ffffffff021916908363ffffffff16021790555060c082015181600201600c6101000a81548160ff021916908315150217905550505060808201518160060160006101000a81548160ff02191690836002811115613b4357613b42614ad6565b5b021790555060a08201518160060160016101000a81548163ffffffff021916908363ffffffff16021790555060c0820151816007019081613b8491906158e7565b5050508260c0015115613ba557613ba4816000015163ffffffff16611178565b5b7f43b2ecffc1430095f472e76b4b6ce881d48ad26ae0051b5f0d67a0ef6c9493c18160000151604051613bd89190615a16565b60405180910390a150505050505050565b60606000805b600580549050811015613cda57613cb360058281548110613c1357613c12615550565b5b90600052602060002090600802016002018054613c2f906155ae565b80601f0160208091040260200160405190810160405280929190818152602001828054613c5b906155ae565b8015613ca85780601f10613c7d57610100808354040283529160200191613ca8565b820191906000526020600020905b815481529060010190602001808311613c8b57829003601f168201915b505050505085614507565b15613cc7578180613cc39061560e565b9250505b8080613cd29061560e565b915050613bef565b5060008167ffffffffffffffff811115613cf757613cf66147e1565b5b604051908082528060200260200182016040528015613d3057816020015b613d1d61461a565b815260200190600190039081613d155790505b5090506000805b60058054905081101561422957613dfb60058281548110613d5b57613d5a615550565b5b90600052602060002090600802016002018054613d77906155ae565b80601f0160208091040260200160405190810160405280929190818152602001828054613da3906155ae565b8015613df05780601f10613dc557610100808354040283529160200191613df0565b820191906000526020600020905b815481529060010190602001808311613dd357829003601f168201915b505050505087614507565b156142165760058181548110613e1457613e13615550565b5b90600052602060002090600802016040518060e00160405290816000820160009054906101000a900463ffffffff1663ffffffff1663ffffffff168152602001600182018054613e63906155ae565b80601f0160208091040260200160405190810160405280929190818152602001828054613e8f906155ae565b8015613edc5780601f10613eb157610100808354040283529160200191613edc565b820191906000526020600020905b815481529060010190602001808311613ebf57829003601f168201915b50505050508152602001600282018054613ef5906155ae565b80601f0160208091040260200160405190810160405280929190818152602001828054613f21906155ae565b8015613f6e5780601f10613f4357610100808354040283529160200191613f6e565b820191906000526020600020905b815481529060010190602001808311613f5157829003601f168201915b50505050508152602001600382016040518060e00160405290816000820160009054906101000a900463ffffffff1663ffffffff1663ffffffff1681526020016000820160049054906101000a900463ffffffff1663ffffffff1663ffffffff168152602001600182018054613fe3906155ae565b80601f016020809104026020016040519081016040528092919081815260200182805461400f906155ae565b801561405c5780601f106140315761010080835404028352916020019161405c565b820191906000526020600020905b81548152906001019060200180831161403f57829003601f168201915b505050505081526020016002820160009054906101000a900463ffffffff1663ffffffff1663ffffffff1681526020016002820160049054906101000a900463ffffffff1663ffffffff1663ffffffff1681526020016002820160089054906101000a900463ffffffff1663ffffffff1663ffffffff16815260200160028201600c9054906101000a900460ff16151515158152505081526020016006820160009054906101000a900460ff16600281111561411b5761411a614ad6565b5b600281111561412d5761412c614ad6565b5b81526020016006820160019054906101000a900463ffffffff1663ffffffff1663ffffffff168152602001600782018054614167906155ae565b80601f0160208091040260200160405190810160405280929190818152602001828054614193906155ae565b80156141e05780601f106141b5576101008083540402835291602001916141e0565b820191906000526020600020905b8154815290600101906020018083116141c357829003601f168201915b5050505050815250508383815181106141fc576141fb615550565b5b602002602001018190525081806142129061560e565b9250505b80806142219061560e565b915050613d37565b50819350505050919050565b61423d6146d4565b60005b6001805490508163ffffffff16101561445a578263ffffffff1660018263ffffffff168154811061427457614273615550565b5b906000526020600020906003020160000160009054906101000a900463ffffffff1663ffffffff16036144475760018163ffffffff16815481106142bb576142ba615550565b5b90600052602060002090600302016040518060e00160405290816000820160009054906101000a900463ffffffff1663ffffffff1663ffffffff1681526020016000820160049054906101000a900463ffffffff1663ffffffff1663ffffffff168152602001600182018054614330906155ae565b80601f016020809104026020016040519081016040528092919081815260200182805461435c906155ae565b80156143a95780601f1061437e576101008083540402835291602001916143a9565b820191906000526020600020905b81548152906001019060200180831161438c57829003601f168201915b505050505081526020016002820160009054906101000a900463ffffffff1663ffffffff1663ffffffff1681526020016002820160049054906101000a900463ffffffff1663ffffffff1663ffffffff1681526020016002820160089054906101000a900463ffffffff1663ffffffff1663ffffffff16815260200160028201600c9054906101000a900460ff1615151515815250509150506144ec565b8080614452906159b9565b915050614240565b506040518060e00160405280600063ffffffff168152602001600063ffffffff1681526020016040518060400160405280600581526020017f656d7074790000000000000000000000000000000000000000000000000000008152508152602001600063ffffffff168152602001600063ffffffff168152602001600063ffffffff1681526020016000151581525090505b919050565b60006144fe848484614560565b90509392505050565b60008160405160200161451a9190615692565b60405160208183030381529060405280519060200120836040516020016145419190615692565b6040516020818303038152906040528051906020012014905092915050565b6000806004856040516145739190615692565b908152602001604051809103902060008563ffffffff1663ffffffff168152602001908152602001600020905060005b818054905081101561460c5783805190602001208282815481106145ca576145c9615550565b5b906000526020600020016040516145e19190615f68565b6040518091039020036145f957600192505050614613565b80806146049061560e565b9150506145a3565b5060009150505b9392505050565b6040518060e00160405280600063ffffffff16815260200160608152602001606081526020016146486146d4565b81526020016000600281111561466157614660614ad6565b5b8152602001600063ffffffff168152602001606081525090565b8280548282559060005260206000209081019282156146c3579160200282015b828111156146c25782518290816146b291906158e7565b509160200191906001019061469b565b5b5090506146d09190614731565b5090565b6040518060e00160405280600063ffffffff168152602001600063ffffffff16815260200160608152602001600063ffffffff168152602001600063ffffffff168152602001600063ffffffff1681526020016000151581525090565b5b8082111561475157600081816147489190614755565b50600101614732565b5090565b508054614761906155ae565b6000825580601f106147735750614792565b601f0160209004906000526020600020908101906147919190614795565b5b50565b5b808211156147ae576000816000905550600101614796565b5090565b6000604051905090565b600080fd5b600080fd5b600080fd5b600080fd5b6000601f19601f8301169050919050565b7f4e487b7100000000000000000000000000000000000000000000000000000000600052604160045260246000fd5b614819826147d0565b810181811067ffffffffffffffff82111715614838576148376147e1565b5b80604052505050565b600061484b6147b2565b90506148578282614810565b919050565b600067ffffffffffffffff821115614877576148766147e1565b5b614880826147d0565b9050602081019050919050565b82818337600083830152505050565b60006148af6148aa8461485c565b614841565b9050828152602081018484840111156148cb576148ca6147cb565b5b6148d684828561488d565b509392505050565b600082601f8301126148f3576148f26147c6565b5b813561490384826020860161489c565b91505092915050565b600060208284031215614922576149216147bc565b5b600082013567ffffffffffffffff8111156149405761493f6147c1565b5b61494c848285016148de565b91505092915050565b600081519050919050565b600082825260208201905092915050565b6000819050602082019050919050565b600063ffffffff82169050919050565b61499a81614981565b82525050565b600081519050919050565b600082825260208201905092915050565b60005b838110156149da5780820151818401526020810190506149bf565b60008484015250505050565b60006149f1826149a0565b6149fb81856149ab565b9350614a0b8185602086016149bc565b614a14816147d0565b840191505092915050565b60008115159050919050565b614a3481614a1f565b82525050565b600060e083016000830151614a526000860182614991565b506020830151614a656020860182614991565b5060408301518482036040860152614a7d82826149e6565b9150506060830151614a926060860182614991565b506080830151614aa56080860182614991565b5060a0830151614ab860a0860182614991565b5060c0830151614acb60c0860182614a2b565b508091505092915050565b7f4e487b7100000000000000000000000000000000000000000000000000000000600052602160045260246000fd5b60038110614b1657614b15614ad6565b5b50565b6000819050614b2782614b05565b919050565b6000614b3782614b19565b9050919050565b614b4781614b2c565b82525050565b600060e083016000830151614b656000860182614991565b5060208301518482036020860152614b7d82826149e6565b91505060408301518482036040860152614b9782826149e6565b91505060608301518482036060860152614bb18282614a3a565b9150506080830151614bc66080860182614b3e565b5060a0830151614bd960a0860182614991565b5060c083015184820360c0860152614bf182826149e6565b9150508091505092915050565b6000614c0a8383614b4d565b905092915050565b6000602082019050919050565b6000614c2a82614955565b614c348185614960565b935083602082028501614c4685614971565b8060005b85811015614c825784840389528151614c638582614bfe565b9450614c6e83614c12565b925060208a01995050600181019050614c4a565b50829750879550505050505092915050565b60006020820190508181036000830152614cae8184614c1f565b905092915050565b614cbf81614981565b8114614cca57600080fd5b50565b600081359050614cdc81614cb6565b92915050565b60008060408385031215614cf957614cf86147bc565b5b600083013567ffffffffffffffff811115614d1757614d166147c1565b5b614d23858286016148de565b9250506020614d3485828601614ccd565b9150509250929050565b614d4781614a1f565b82525050565b6000602082019050614d626000830184614d3e565b92915050565b600080600080600060a08688031215614d8457614d836147bc565b5b600086013567ffffffffffffffff811115614da257614da16147c1565b5b614dae888289016148de565b955050602086013567ffffffffffffffff811115614dcf57614dce6147c1565b5b614ddb888289016148de565b9450506040614dec88828901614ccd565b9350506060614dfd88828901614ccd565b925050608086013567ffffffffffffffff811115614e1e57614e1d6147c1565b5b614e2a888289016148de565b9150509295509295909350565b6000819050919050565b614e4a81614e37565b8114614e5557600080fd5b50565b600081359050614e6781614e41565b92915050565b600060208284031215614e8357614e826147bc565b5b6000614e9184828501614e58565b91505092915050565b600081519050919050565b600082825260208201905092915050565b6000819050602082019050919050565b6000614ed28383614a3a565b905092915050565b6000602082019050919050565b6000614ef282614e9a565b614efc8185614ea5565b935083602082028501614f0e85614eb6565b8060005b85811015614f4a5784840389528151614f2b8582614ec6565b9450614f3683614eda565b925060208a01995050600181019050614f12565b50829750879550505050505092915050565b60006020820190508181036000830152614f768184614ee7565b905092915050565b600080600060608486031215614f9757614f966147bc565b5b600084013567ffffffffffffffff811115614fb557614fb46147c1565b5b614fc1868287016148de565b9350506020614fd286828701614ccd565b9250506040614fe386828701614e58565b9150509250925092565b600082825260208201905092915050565b6000615009826149a0565b6150138185614fed565b93506150238185602086016149bc565b61502c816147d0565b840191505092915050565b600060208201905081810360008301526150518184614ffe565b905092915050565b600073ffffffffffffffffffffffffffffffffffffffff82169050919050565b600061508482615059565b9050919050565b61509481615079565b82525050565b60006020820190506150af600083018461508b565b92915050565b6150be81614a1f565b81146150c957600080fd5b50565b6000813590506150db816150b5565b92915050565b60008060008060008060c087890312156150fe576150fd6147bc565b5b600087013567ffffffffffffffff81111561511c5761511b6147c1565b5b61512889828a016148de565b965050602061513989828a01614ccd565b955050604061514a89828a01614ccd565b945050606061515b89828a01614ccd565b935050608061516c89828a01614ccd565b92505060a061517d89828a016150cc565b9150509295509295509295565b61519381614981565b82525050565b600060e0830160008301516151b16000860182614991565b5060208301516151c46020860182614991565b50604083015184820360408601526151dc82826149e6565b91505060608301516151f16060860182614991565b5060808301516152046080860182614991565b5060a083015161521760a0860182614991565b5060c083015161522a60c0860182614a2b565b508091505092915050565b61523e81614b2c565b82525050565b600060e082019050615259600083018a61518a565b818103602083015261526b8189614ffe565b9050818103604083015261527f8188614ffe565b905081810360608301526152938187615199565b90506152a26080830186615235565b6152af60a083018561518a565b81810360c08301526152c18184614ffe565b905098975050505050505050565b600060e0820190506152e4600083018a61518a565b6152f1602083018961518a565b81810360408301526153038188614ffe565b9050615312606083018761518a565b61531f608083018661518a565b61532c60a083018561518a565b61533960c0830184614d3e565b98975050505050505050565b6000806000806080858703121561535f5761535e6147bc565b5b600085013567ffffffffffffffff81111561537d5761537c6147c1565b5b615389878288016148de565b945050602061539a87828801614ccd565b93505060406153ab87828801614ccd565b925050606085013567ffffffffffffffff8111156153cc576153cb6147c1565b5b6153d8878288016148de565b91505092959194509250565b6000602082840312156153fa576153f96147bc565b5b600061540884828501614ccd565b91505092915050565b6000602082019050818103600083015261542b8184615199565b905092915050565b60008060006060848603121561544c5761544b6147bc565b5b600084013567ffffffffffffffff81111561546a576154696147c1565b5b615476868287016148de565b935050602061548786828701614ccd565b925050604084013567ffffffffffffffff8111156154a8576154a76147c1565b5b6154b4868287016148de565b9150509250925092565b7f4f6e6c7920746865206865616c7468206f7267616e697a6174696f6e2063616e60008201527f206578656375746520746869732066756e6374696f6e2e000000000000000000602082015250565b600061551a603783614fed565b9150615525826154be565b604082019050919050565b600060208201905081810360008301526155498161550d565b9050919050565b7f4e487b7100000000000000000000000000000000000000000000000000000000600052603260045260246000fd5b7f4e487b7100000000000000000000000000000000000000000000000000000000600052602260045260246000fd5b600060028204905060018216806155c657607f821691505b6020821081036155d9576155d861557f565b5b50919050565b7f4e487b7100000000000000000000000000000000000000000000000000000000600052601160045260246000fd5b600061561982614e37565b91507fffffffffffffffffffffffffffffffffffffffffffffffffffffffffffffffff820361564b5761564a6155df565b5b600182019050919050565b600081905092915050565b600061566c826149a0565b6156768185615656565b93506156868185602086016149bc565b80840191505092915050565b600061569e8284615661565b915081905092915050565b7f596f75206861766520616c7265616479207375626d6974746564206120636c6160008201527f696d20666f72207468697320636c61696d20747970652e000000000000000000602082015250565b6000615705603783614fed565b9150615710826156a9565b604082019050919050565b60006020820190508181036000830152615734816156f8565b9050919050565b60008190508160005260206000209050919050565b60006020601f8301049050919050565b600082821b905092915050565b60006008830261579d7fffffffffffffffffffffffffffffffffffffffffffffffffffffffffffffffff82615760565b6157a78683615760565b95508019841693508086168417925050509392505050565b6000819050919050565b60006157e46157df6157da84614e37565b6157bf565b614e37565b9050919050565b6000819050919050565b6157fe836157c9565b61581261580a826157eb565b84845461576d565b825550505050565b600090565b61582761581a565b6158328184846157f5565b505050565b5b818110156158565761584b60008261581f565b600181019050615838565b5050565b601f82111561589b5761586c8161573b565b61587584615750565b81016020851015615884578190505b61589861589085615750565b830182615837565b50505b505050565b600082821c905092915050565b60006158be600019846008026158a0565b1980831691505092915050565b60006158d783836158ad565b9150826002028217905092915050565b6158f0826149a0565b67ffffffffffffffff811115615909576159086147e1565b5b61591382546155ae565b61591e82828561585a565b600060209050601f831160018114615951576000841561593f578287015190505b61594985826158cb565b8655506159b1565b601f19841661595f8661573b565b60005b8281101561598757848901518255600182019150602085019450602081019050615962565b868310156159a457848901516159a0601f8916826158ad565b8355505b6001600288020188555050505b505050505050565b60006159c482614981565b915063ffffffff82036159da576159d96155df565b5b600182019050919050565b6000615a006159fb6159f684614981565b6157bf565b614e37565b9050919050565b615a10816159e5565b82525050565b6000602082019050615a2b6000830184615a07565b92915050565b7f496e737572616e636520636f6d70616e7920616464726573732068617320616c60008201527f7265616479206265656e207365742e0000000000000000000000000000000000602082015250565b6000615a8d602f83614fed565b9150615a9882615a31565b604082019050919050565b60006020820190508181036000830152615abc81615a80565b9050919050565b7f436c61696d7320617272617920697320656d7074792e00000000000000000000600082015250565b6000615af9601683614fed565b9150615b0482615ac3565b602082019050919050565b60006020820190508181036000830152615b2881615aec565b9050919050565b7f436c61696d2077697468207468697320696420646f6573206e6f74206578697360008201527f742e000000000000000000000000000000000000000000000000000000000000602082015250565b6000615b8b602283614fed565b9150615b9682615b2f565b604082019050919050565b60006020820190508181036000830152615bba81615b7e565b9050919050565b7f54686520636c61696d2068617320616c7265616479206265656e20617070726f60008201527f766564206f722064656e6965642e000000000000000000000000000000000000602082015250565b6000615c1d602e83614fed565b9150615c2882615bc1565b604082019050919050565b60006020820190508181036000830152615c4c81615c10565b9050919050565b6000615c5e82614981565b9150615c6983614981565b9250828202615c7781614981565b9150808214615c8957615c886155df565b5b5092915050565b7f4e487b7100000000000000000000000000000000000000000000000000000000600052601260045260246000fd5b6000615cca82614981565b9150615cd583614981565b925082615ce557615ce4615c90565b5b828204905092915050565b615cf981614e37565b82525050565b6000602082019050615d146000830184615cf0565b92915050565b7f4f6e6c792074686520696e737572616e63652063616e2065786563757465207460008201527f6869732066756e6374696f6e2e00000000000000000000000000000000000000602082015250565b6000615d76602d83614fed565b9150615d8182615d1a565b604082019050919050565b60006020820190508181036000830152615da581615d69565b9050919050565b7f4865616c7468206f7267616e697a6174696f6e2061646472657373206861732060008201527f616c7265616479206265656e207365742e000000000000000000000000000000602082015250565b6000615e08603183614fed565b9150615e1382615dac565b604082019050919050565b60006020820190508181036000830152615e3781615dfb565b9050919050565b7f436f76657261676520616c726561647920657869747300000000000000000000600082015250565b6000615e74601683614fed565b9150615e7f82615e3e565b602082019050919050565b60006020820190508181036000830152615ea381615e67565b9050919050565b6000602082019050615ebf600083018461518a565b92915050565b600081905092915050565b60008190508160005260206000209050919050565b60008154615ef2816155ae565b615efc8186615ec5565b94506001821660008114615f175760018114615f2c57615f5f565b60ff1983168652811515820286019350615f5f565b615f3585615ed0565b60005b83811015615f5757815481890152600182019150602081019050615f38565b838801955050505b50505092915050565b6000615f748284615ee5565b91508190509291505056fea2646970667358221220847b2b7102b45af8f3a24b14593fd28b96b2882fa98484d4e2a876cb6ed7970664736f6c63430008110033",
  "immutableReferences": {},
  "source": "// SPDX-License-Identifier: UNLICENSED\r\npragma solidity ^0.8.0;\r\n\r\nimport \"./HealthPolicy.sol\";\r\n\r\ncontract ClaimContract is HealthPolicy {\r\n    uint32 ClaimContractCount = 0;\r\n\r\n    // Enumeration for claim status\r\n    enum ClaimStatus { Submitted, Approved, Denied }\r\n\r\n    mapping(string => mapping(uint32 => string[])) public individualByClaim;\r\n\r\n    // Variables to store the claims\r\n    Claim[] public claims;\r\n\r\n    // Variables to store the contract insurance company, individual and the health organization\r\n    address public healthOrganizationAddress;\r\n\r\n    // Struct to store the claim details\r\n    struct Claim {\r\n        uint32 id;\r\n        string requester;\r\n        string claimant;\r\n        HealthContract healthContract;\r\n        ClaimStatus status;\r\n        uint32 claimAmount;\r\n        string claimType;\r\n    }\r\n\r\n    // Modifier to ensure only the health organization can execute the function\r\n    modifier onlyHealthOrganization {\r\n        require(msg.sender == healthOrganizationAddress, \"Only the health organization can execute this function.\");\r\n        _;\r\n    }\r\n     // Modifier to ensure only the individual can execute the function\r\n    modifier onlyIndividual {\r\n        require(msg.sender != insuranceCompanyAddress && msg.sender != healthOrganizationAddress, \"Only the individual can execute this function.\");\r\n        _;\r\n    }\r\n\r\n    // Events\r\n    event returnClaimID(uint id);\r\n    event LogClaimLimit(uint);\r\n    event HealthOrganizationAddressSetup(address);\r\n\r\n    function setHealthOrganizationAddress() public {\r\n        require(healthOrganizationAddress == address(0), \"Health organization address has already been set.\");\r\n        healthOrganizationAddress = msg.sender;\r\n        emit HealthOrganizationAddressSetup(healthOrganizationAddress);\r\n    }\r\n\r\n    function hasIndividualClaim(string memory _username, uint32 _healthContractID, string memory _claimType) public view returns (bool){\r\n        return checkClaimType(_username, _healthContractID, _claimType);\r\n    }\r\n\r\n    /**\r\n        @dev Submit a new claim\r\n        @param _username The username of the user who submitted the claim\r\n        @param _individual The individual's name who is submitting the claim\r\n        @param _claimAmount The amount being claimed\r\n        @param _healthContractID The ID of the health contract related to the claim\r\n        @param _claimType The type of claim being submitted\r\n    */\r\n    function submitClaim(string memory _username, string memory _individual, uint32 _claimAmount,\r\n                        uint32 _healthContractID, string memory _claimType) public onlyHealthOrganization {\r\n\r\n        // Check if the health contract and claim type have not already been submitted\r\n        if (checkHealthContractMapping(_individual,  _healthContractID)){\r\n            require(!checkClaimType(_individual, _healthContractID, _claimType), \"You have already submitted a claim for this claim type.\");\r\n        } else {\r\n            // Create a new claim list for the individual and health contract mapping\r\n            individualByClaim[_individual][_healthContractID] = new string[](0);\r\n        }\r\n        // Add the claim type to the list of claims for this individual and health contract\r\n        individualByClaim[_individual][_healthContractID].push(_claimType);\r\n\r\n        // Get the health contract for this claim\r\n        HealthContract memory _healthContract = getHealthContract(_healthContractID);\r\n\r\n        // Create a new claim ID\r\n        uint32 claimID = ClaimContractCount++;\r\n\r\n        // Create a new claim object with the provided information\r\n        Claim memory newClaim = Claim({\r\n            id: claimID,\r\n            requester: _username,\r\n            claimant: _individual,\r\n            healthContract: _healthContract,\r\n            claimAmount: _claimAmount,\r\n            status: ClaimStatus.Submitted,\r\n            claimType: _claimType\r\n        });\r\n\r\n        // Add the new claim to the claims array\r\n        claims.push(newClaim);\r\n\r\n        // Approve/disapprove the claim based on the health contract approval status\r\n        if (_healthContract.approval){\r\n            approveClaim(newClaim.id);\r\n        }\r\n\r\n        // Emit the claim ID\r\n        emit returnClaimID(newClaim.id);\r\n    }\r\n\r\n\r\n    /**\r\n        @dev This function allows an individual to request a claim.\r\n        @param _username The username of the individual requesting the claim.\r\n        @param _claimAmount The amount of the claim requested.\r\n        @param _healthContractID The ID of the health contract for which the claim is being requested.\r\n        @param _claimType The type of claim being requested.\r\n    */\r\n    function requestClaim(string memory _username, uint32 _claimAmount, uint32 _healthContractID, string memory _claimType) public {\r\n        // Check if the user has a valid health contract for the specified health contract ID\r\n        if (checkHealthContractMapping(_username,  _healthContractID)){\r\n            // Check if the user has already submitted a claim for this claim type\r\n            require(!checkClaimType(_username, _healthContractID, _claimType), \"You have already submitted a claim for this claim type.\");\r\n        } else {\r\n            // Create a new claim type array for the user and the specified health contract\r\n            individualByClaim[_username][_healthContractID] = new string[](0);\r\n        }\r\n\r\n\r\n        // Add the claim type to the user's array of claim types for the specified health contract\r\n        individualByClaim[_username][_healthContractID].push(_claimType);\r\n\r\n        // Get the HealthContract information for the specified health contract ID\r\n        HealthContract memory _healthContract = getHealthContract(_healthContractID);\r\n        \r\n        // Generate a new claim ID\r\n        uint32 claimID = ClaimContractCount++;\r\n\r\n        // Create a new claim\r\n        Claim memory newClaim = Claim({\r\n            id: claimID,\r\n            requester: _username,\r\n            claimant: _username,\r\n            healthContract: _healthContract,\r\n            claimAmount: _claimAmount,\r\n            status: ClaimStatus.Submitted,\r\n            claimType: _claimType\r\n        });\r\n\r\n        // Add the claim to the list of claims\r\n        claims.push(newClaim);\r\n\r\n        // Approve/Disapprove claim\r\n        if (_healthContract.approval){\r\n            approveClaim(newClaim.id);\r\n        }\r\n\r\n        emit returnClaimID(newClaim.id);\r\n    }\r\n    \r\n    /**\r\n        @dev This function allows to approve or disapprove automatically a claim.\r\n        @param _claimId The claim id to approve/disapprove.\r\n    */\r\n    function approveClaim(uint _claimId) public  {\r\n        require(claims.length > 0, \"Claims array is empty.\");\r\n        require(_claimId < claims.length, \"Claim with this id does not exist.\");\r\n\r\n       // Get the claim from the list of claims\r\n        Claim memory claim = claims[_claimId];\r\n\r\n        // Check if the claim has already been approved or denied\r\n        require(claim.status == ClaimStatus.Submitted, \"The claim has already been approved or denied.\");\r\n\r\n        // calculate teh claim limit based on the claim type\r\n        uint claimLimit = 0;\r\n        if (compareString(claim.claimType,\"eyeCare\")){\r\n            claimLimit = (claim.healthContract.premium  * claim.healthContract.eyeCare) / 100;\r\n        } else if (compareString(claim.claimType,\"generalCare\")){\r\n            claimLimit = (claim.healthContract.premium  * claim.healthContract.generalCare) / 100;\r\n        } else {\r\n            claimLimit = (claim.healthContract.premium  * claim.healthContract.dental) / 100;\r\n        }\r\n\r\n        // Approve the claim if the claim amount is within the coverage limit\r\n        if (claim.claimAmount <= claimLimit) {\r\n            claim.status = ClaimStatus.Approved;\r\n        } else {\r\n            claim.status = ClaimStatus.Denied;\r\n        }\r\n        claims[_claimId] = claim;\r\n\r\n        emit LogClaimLimit(claimLimit);\r\n    }\r\n\r\n    function adminApproval(uint _claimID) public {\r\n        // Get the claim from the list of claims\r\n        Claim memory claim = claims[_claimID];\r\n        // Set the claim status to approve\r\n        claim.status = ClaimStatus.Approved;\r\n        // update the claim in the map\r\n        claims[_claimID] = claim;\r\n    }\r\n\r\n    function adminDisapproval(uint _claimID) public {\r\n        // Get the claim from the list of claims\r\n        Claim memory claim = claims[_claimID];\r\n        // Set the claim status to approve\r\n        claim.status = ClaimStatus.Denied;\r\n        // update the claim in the map\r\n        claims[_claimID] = claim;\r\n    }\r\n\r\n    // Function to get all claims that can only be executed by the insurance\r\n    function getAllClaims() public onlyInsurance view returns (Claim[] memory){\r\n        // Returns an array of all claims stored in the contract\r\n        return claims;\r\n    }\r\n\r\n    // function for the health organization to get all claims related to him\r\n    function getOrganizationClaims(string memory _username) public onlyHealthOrganization view returns (Claim[] memory) {\r\n        uint count = 0;\r\n        // Count the number of claims submitted by the health organization\r\n        for (uint i = 0; i < claims.length; i++) {\r\n            if (compareString(claims[i].requester, _username)) {\r\n                count++;\r\n            }\r\n        }\r\n\r\n        // Create an array to store the claims\r\n        Claim[] memory result = new Claim[](count);\r\n        uint index = 0;\r\n\r\n        // Store the claims in the array\r\n        for (uint i = 0; i < claims.length; i++) {\r\n            if (compareString(claims[i].requester, _username)) {\r\n                result[index] = claims[i];\r\n                index++;\r\n            }\r\n        }\r\n        return result;\r\n    }\r\n\r\n    /**\r\n    * @dev Retrieves all claims made by a particular individual.\r\n    * @param _username The username of the individual.\r\n    * @return An array of claims made by the individual.\r\n    */\r\n    function getIndividualClaims(string memory _username) public view returns (Claim[] memory) {\r\n        // Count the number of claims made by the individual\r\n        uint count = 0;\r\n        for (uint i = 0; i < claims.length; i++) {\r\n            if (compareString(claims[i].claimant, _username)) {\r\n                count++;\r\n            }\r\n        }\r\n        \r\n        // Create an array to hold the claims\r\n        Claim[] memory result = new Claim[](count);\r\n        uint index = 0;\r\n        \r\n        // Fill the array with the claims made by the individual\r\n        for (uint i = 0; i < claims.length; i++) {\r\n            if (compareString(claims[i].claimant, _username)) {\r\n                result[index] = claims[i];\r\n                index++;\r\n            }\r\n        }\r\n        \r\n        // Return the array of claims made by the individual\r\n        return result;\r\n    }\r\n\r\n\r\n    function compareString(string memory a, string memory b) private pure returns (bool) {\r\n        return keccak256(abi.encodePacked(a)) == keccak256(abi.encodePacked(b));\r\n    }\r\n\r\n    /**\r\n        @dev Internal function to check if a claim type exists for an individual in a specific health contract.\r\n        @param key1 The key representing the individual.\r\n        @param key2 The key representing the health contract ID.\r\n        @param value The value representing the claim type to check for.\r\n        @return A boolean indicating whether or not the claim type exists.\r\n    */\r\n    function checkClaimType(string memory key1, uint32 key2, string memory value) internal view returns (bool) {\r\n        // Retrieve the array of values at key2\r\n        string[] storage claimValues = individualByClaim[key1][key2];\r\n        // Loop through the array\r\n        for (uint i = 0; i < claimValues.length; i++) {\r\n        // Check if the value exists\r\n            if (keccak256(bytes(claimValues[i])) == keccak256(bytes(value))) {\r\n                return true;\r\n            }\r\n        }\r\n        return false;\r\n    }\r\n\r\n    function checkHealthContractMapping(string memory individual, uint32 healthContractId) public view returns (bool) {\r\n        return individualByClaim[individual][healthContractId].length > 0;\r\n    }\r\n}\r\n",
  "sourcePath": "C:\\Users\\avine\\OneDrive - Middlesex University\\Documents\\MDX\\Year 3\\CST3990 Undergraduate Individual Project\\Undergraduate-Individual-Project\\back-end\\contracts\\ClaimContract.sol",
  "compiler": {
    "name": "solc",
    "version": "0.8.17+commit.8df45f5f.Emscripten.clang"
  },
  "schemaVersion": "3.4.11",
  "updatedAt": "2023-05-02T16:18:59.301Z",
  "networkType": "ethereum",
  "devdoc": {
    "kind": "dev",
    "methods": {
      "approveClaim(uint256)": {
        "details": "This function allows to approve or disapprove automatically a claim.",
        "params": {
          "_claimId": "The claim id to approve/disapprove."
        }
      },
      "getAllHealthContracts()": {
        "details": "Returns an array of all HealthContracts stored in the healthContracts array.",
        "returns": {
          "_0": "An array of HealthContract objects representing all stored health insurance policies."
        }
      },
      "getHealthContract(uint32)": {
        "details": "Returns the health insurance policy for a given health contract ID",
        "params": {
          "_healthContractId": "The unique ID of the health insurance policy"
        },
        "returns": {
          "_0": "The health insurance policy details as a struct"
        }
      },
      "getIndividualClaims(string)": {
        "details": "Retrieves all claims made by a particular individual.",
        "params": {
          "_username": "The username of the individual."
        },
        "returns": {
          "_0": "An array of claims made by the individual."
        }
      },
      "requestClaim(string,uint32,uint32,string)": {
        "details": "This function allows an individual to request a claim.",
        "params": {
          "_claimAmount": "The amount of the claim requested.",
          "_claimType": "The type of claim being requested.",
          "_healthContractID": "The ID of the health contract for which the claim is being requested.",
          "_username": "The username of the individual requesting the claim."
        }
      },
      "submitClaim(string,string,uint32,uint32,string)": {
        "details": "Submit a new claim",
        "params": {
          "_claimAmount": "The amount being claimed",
          "_claimType": "The type of claim being submitted",
          "_healthContractID": "The ID of the health contract related to the claim",
          "_individual": "The individual's name who is submitting the claim",
          "_username": "The username of the user who submitted the claim"
        }
      },
      "uploadPolicy(string,uint32,uint32,uint32,uint32,bool)": {
        "details": "Allows the insurance company to upload a new health insurance policy by providing the coverage type, premium, dental coverage, eye care coverage, general care coverage and approval status.",
        "params": {
          "_approval": "The approval status of the policy.",
          "_coverageType": "The type of coverage for the policy being uploaded.",
          "_dental": "The amount of dental coverage provided by the policy.",
          "_eyeCare": "The amount of eye care coverage provided by the policy.",
          "_generalCare": "The amount of general care coverage provided by the policy.",
          "_premium": "The amount of premium to be paid for the policy."
        }
      }
    },
    "version": 1
  },
  "userdoc": {
    "kind": "user",
    "methods": {},
    "version": 1
  }
}