{
  "contractName": "HealthOrganization",
  "abi": [
    {
      "anonymous": false,
      "inputs": [
        {
          "indexed": false,
          "internalType": "string",
          "name": "name",
          "type": "string"
        }
      ],
      "name": "LogRegisterdHO",
      "type": "event"
    },
    {
      "inputs": [],
      "name": "getHealthOrganization",
      "outputs": [
        {
          "internalType": "string",
          "name": "",
          "type": "string"
        },
        {
          "internalType": "string",
          "name": "",
          "type": "string"
        }
      ],
      "stateMutability": "view",
      "type": "function",
      "constant": true
    },
    {
      "inputs": [
        {
          "internalType": "string",
          "name": "_name",
          "type": "string"
        },
        {
          "internalType": "string",
          "name": "_email",
          "type": "string"
        },
        {
          "internalType": "string",
          "name": "_password",
          "type": "string"
        }
      ],
      "name": "registerHealthOrganization",
      "outputs": [],
      "stateMutability": "nonpayable",
      "type": "function"
    },
    {
      "inputs": [],
      "name": "isHealthOrganizationRegistered",
      "outputs": [
        {
          "internalType": "bool",
          "name": "",
          "type": "bool"
        }
      ],
      "stateMutability": "view",
      "type": "function",
      "constant": true
    },
    {
      "inputs": [
        {
          "internalType": "string",
          "name": "_email",
          "type": "string"
        },
        {
          "internalType": "string",
          "name": "_password",
          "type": "string"
        }
      ],
      "name": "authenticate",
      "outputs": [
        {
          "internalType": "bool",
          "name": "",
          "type": "bool"
        },
        {
          "internalType": "string",
          "name": "",
          "type": "string"
        }
      ],
      "stateMutability": "view",
      "type": "function",
      "constant": true
    },
    {
      "inputs": [
        {
          "internalType": "string",
          "name": "a",
          "type": "string"
        }
      ],
      "name": "compareEmail",
      "outputs": [
        {
          "internalType": "bool",
          "name": "",
          "type": "bool"
        }
      ],
      "stateMutability": "view",
      "type": "function",
      "constant": true
    }
  ],
  "bytecode": "0x608060405234801561001057600080fd5b50610d35806100206000396000f3fe608060405234801561001057600080fd5b50600436106100575760003560e01c8063158d06611461005c578063544541b31461008c57806370ca745f146100bd5780639cdb7b3f146100db578063c04e99a0146100fa575b600080fd5b61007660048036038101906100719190610600565b610116565b6040516100839190610664565b60405180910390f35b6100a660048036038101906100a1919061067f565b61016f565b6040516100b4929190610776565b60405180910390f35b6100c561024c565b6040516100d29190610664565b60405180910390f35b6100e36102a3565b6040516100f19291906107a6565b60405180910390f35b610114600480360381019061010f91906107dd565b6103ca565b005b6000600260405160200161012a9190610987565b604051602081830303815290604052805190602001208260405160200161015191906109cf565b60405160208183030381529060405280519060200120149050919050565b6000606061017c84610116565b8015610191575060035461018f84610476565b145b1561022e576001808080546101a5906108b3565b80601f01602080910402602001604051908101604052809291908181526020018280546101d1906108b3565b801561021e5780601f106101f35761010080835404028352916020019161021e565b820191906000526020600020905b81548152906001019060200180831161020157829003601f168201915b5050505050905091509150610245565b600060405180602001604052806000815250915091505b9250929050565b60008073ffffffffffffffffffffffffffffffffffffffff1660008054906101000a900473ffffffffffffffffffffffffffffffffffffffff1673ffffffffffffffffffffffffffffffffffffffff161415905090565b606080600160028180546102b6906108b3565b80601f01602080910402602001604051908101604052809291908181526020018280546102e2906108b3565b801561032f5780601f106103045761010080835404028352916020019161032f565b820191906000526020600020905b81548152906001019060200180831161031257829003601f168201915b50505050509150808054610342906108b3565b80601f016020809104026020016040519081016040528092919081815260200182805461036e906108b3565b80156103bb5780601f10610390576101008083540402835291602001916103bb565b820191906000526020600020905b81548152906001019060200180831161039e57829003601f168201915b50505050509050915091509091565b336000806101000a81548173ffffffffffffffffffffffffffffffffffffffff021916908373ffffffffffffffffffffffffffffffffffffffff16021790555082600190816104199190610b87565b5081600290816104299190610b87565b5061043381610476565b6003819055507fb7ded70f93a332a3f4f01f82c40ec24a10c69dd7dcb23b451c38f45d98b3ef0f60016040516104699190610cdd565b60405180910390a1505050565b60008160405160200161048991906109cf565b604051602081830303815290604052805190602001209050919050565b6000604051905090565b600080fd5b600080fd5b600080fd5b600080fd5b6000601f19601f8301169050919050565b7f4e487b7100000000000000000000000000000000000000000000000000000000600052604160045260246000fd5b61050d826104c4565b810181811067ffffffffffffffff8211171561052c5761052b6104d5565b5b80604052505050565b600061053f6104a6565b905061054b8282610504565b919050565b600067ffffffffffffffff82111561056b5761056a6104d5565b5b610574826104c4565b9050602081019050919050565b82818337600083830152505050565b60006105a361059e84610550565b610535565b9050828152602081018484840111156105bf576105be6104bf565b5b6105ca848285610581565b509392505050565b600082601f8301126105e7576105e66104ba565b5b81356105f7848260208601610590565b91505092915050565b600060208284031215610616576106156104b0565b5b600082013567ffffffffffffffff811115610634576106336104b5565b5b610640848285016105d2565b91505092915050565b60008115159050919050565b61065e81610649565b82525050565b60006020820190506106796000830184610655565b92915050565b60008060408385031215610696576106956104b0565b5b600083013567ffffffffffffffff8111156106b4576106b36104b5565b5b6106c0858286016105d2565b925050602083013567ffffffffffffffff8111156106e1576106e06104b5565b5b6106ed858286016105d2565b9150509250929050565b600081519050919050565b600082825260208201905092915050565b60005b83811015610731578082015181840152602081019050610716565b60008484015250505050565b6000610748826106f7565b6107528185610702565b9350610762818560208601610713565b61076b816104c4565b840191505092915050565b600060408201905061078b6000830185610655565b818103602083015261079d818461073d565b90509392505050565b600060408201905081810360008301526107c0818561073d565b905081810360208301526107d4818461073d565b90509392505050565b6000806000606084860312156107f6576107f56104b0565b5b600084013567ffffffffffffffff811115610814576108136104b5565b5b610820868287016105d2565b935050602084013567ffffffffffffffff811115610841576108406104b5565b5b61084d868287016105d2565b925050604084013567ffffffffffffffff81111561086e5761086d6104b5565b5b61087a868287016105d2565b9150509250925092565b7f4e487b7100000000000000000000000000000000000000000000000000000000600052602260045260246000fd5b600060028204905060018216806108cb57607f821691505b6020821081036108de576108dd610884565b5b50919050565b600081905092915050565b60008190508160005260206000209050919050565b60008154610911816108b3565b61091b81866108e4565b94506001821660008114610936576001811461094b5761097e565b60ff198316865281151582028601935061097e565b610954856108ef565b60005b8381101561097657815481890152600182019150602081019050610957565b838801955050505b50505092915050565b60006109938284610904565b915081905092915050565b60006109a9826106f7565b6109b381856108e4565b93506109c3818560208601610713565b80840191505092915050565b60006109db828461099e565b915081905092915050565b60006020601f8301049050919050565b600082821b905092915050565b600060088302610a337fffffffffffffffffffffffffffffffffffffffffffffffffffffffffffffffff826109f6565b610a3d86836109f6565b95508019841693508086168417925050509392505050565b6000819050919050565b6000819050919050565b6000610a84610a7f610a7a84610a55565b610a5f565b610a55565b9050919050565b6000819050919050565b610a9e83610a69565b610ab2610aaa82610a8b565b848454610a03565b825550505050565b600090565b610ac7610aba565b610ad2818484610a95565b505050565b5b81811015610af657610aeb600082610abf565b600181019050610ad8565b5050565b601f821115610b3b57610b0c816108ef565b610b15846109e6565b81016020851015610b24578190505b610b38610b30856109e6565b830182610ad7565b50505b505050565b600082821c905092915050565b6000610b5e60001984600802610b40565b1980831691505092915050565b6000610b778383610b4d565b9150826002028217905092915050565b610b90826106f7565b67ffffffffffffffff811115610ba957610ba86104d5565b5b610bb382546108b3565b610bbe828285610afa565b600060209050601f831160018114610bf15760008415610bdf578287015190505b610be98582610b6b565b865550610c51565b601f198416610bff866108ef565b60005b82811015610c2757848901518255600182019150602085019450602081019050610c02565b86831015610c445784890151610c40601f891682610b4d565b8355505b6001600288020188555050505b505050505050565b60008154610c66816108b3565b610c708186610702565b94506001821660008114610c8b5760018114610ca157610cd4565b60ff198316865281151560200286019350610cd4565b610caa856108ef565b60005b83811015610ccc57815481890152600182019150602081019050610cad565b808801955050505b50505092915050565b60006020820190508181036000830152610cf78184610c59565b90509291505056fea264697066735822122063e7f17b3ead6e63d3b6ac32a86e9a65e5bd79253249e939c165f4df1ea06cc964736f6c63430008110033",
  "immutableReferences": {},
  "source": "// SPDX-License-Identifier: UNLICENSED\r\n\r\npragma solidity ^0.8.0;\r\n\r\ncontract HealthOrganization {\r\n    // fields\r\n    address healthorganizationAddress;\r\n    string name;\r\n    string email;\r\n    bytes32 password;\r\n\r\n    // events\r\n    event LogRegisterdHO(string name);\r\n\r\n    // functions\r\n    function hashPassword(string memory _password) private pure returns (bytes32) {\r\n            return keccak256(abi.encodePacked(_password));\r\n    }\r\n\r\n    function getHealthOrganization() public view returns (string memory, string memory){\r\n        return (\r\n            name,\r\n            email\r\n        );\r\n    }\r\n\r\n    function registerHealthOrganization(string memory _name, string memory _email, string memory _password) public {\r\n        healthorganizationAddress = msg.sender;\r\n        name = _name;\r\n        email = _email;\r\n        password = hashPassword(_password);\r\n\r\n        emit LogRegisterdHO(name);\r\n    }\r\n\r\n    function isHealthOrganizationRegistered() public view returns (bool) {\r\n        return healthorganizationAddress != address(0);\r\n    }\r\n\r\n    function authenticate(string memory _email, string memory _password) public view returns (bool, string memory) {\r\n        if (compareEmail(_email) && hashPassword(_password) == password){\r\n            return (true, name);\r\n        }\r\n        return (false, \"\");\r\n    }\r\n\r\n    function compareEmail(string memory a ) public view returns (bool) {\r\n        return keccak256(abi.encodePacked(a)) == keccak256(abi.encodePacked(email));\r\n    }\r\n}",
  "sourcePath": "C:\\Users\\avine\\OneDrive - Middlesex University\\Documents\\MDX\\Year 3\\CST3990 Undergraduate Individual Project\\Undergraduate-Individual-Project\\back-end\\contracts\\HealthOrganization.sol",
  "compiler": {
    "name": "solc",
    "version": "0.8.17+commit.8df45f5f.Emscripten.clang"
  },
  "schemaVersion": "3.4.11",
  "updatedAt": "2023-04-12T18:35:54.705Z",
  "networkType": "ethereum",
  "devdoc": {
    "kind": "dev",
    "methods": {},
    "version": 1
  },
  "userdoc": {
    "kind": "user",
    "methods": {},
    "version": 1
  }
}