{
  "contractName": "HealthPolicy",
  "abi": [
    {
      "anonymous": false,
      "inputs": [
        {
          "indexed": false,
          "internalType": "address",
          "name": "",
          "type": "address"
        }
      ],
      "name": "InsuranceAddressSetup",
      "type": "event"
    },
    {
      "anonymous": false,
      "inputs": [
        {
          "indexed": false,
          "internalType": "uint32",
          "name": "healthContractId",
          "type": "uint32"
        }
      ],
      "name": "NewPolicy",
      "type": "event"
    },
    {
      "inputs": [
        {
          "internalType": "uint256",
          "name": "",
          "type": "uint256"
        }
      ],
      "name": "healthContracts",
      "outputs": [
        {
          "internalType": "uint32",
          "name": "healthcontractID",
          "type": "uint32"
        },
        {
          "internalType": "uint32",
          "name": "premium",
          "type": "uint32"
        },
        {
          "internalType": "string",
          "name": "coverageType",
          "type": "string"
        },
        {
          "internalType": "uint32",
          "name": "dental",
          "type": "uint32"
        },
        {
          "internalType": "uint32",
          "name": "eyeCare",
          "type": "uint32"
        },
        {
          "internalType": "uint32",
          "name": "generalCare",
          "type": "uint32"
        },
        {
          "internalType": "bool",
          "name": "approval",
          "type": "bool"
        }
      ],
      "stateMutability": "view",
      "type": "function"
    },
    {
      "inputs": [
        {
          "internalType": "string",
          "name": "",
          "type": "string"
        }
      ],
      "name": "iscoverageTypeExists",
      "outputs": [
        {
          "internalType": "bool",
          "name": "",
          "type": "bool"
        }
      ],
      "stateMutability": "view",
      "type": "function"
    },
    {
      "inputs": [],
      "name": "setInsuranceCompanyAddress",
      "outputs": [],
      "stateMutability": "nonpayable",
      "type": "function"
    },
    {
      "inputs": [],
      "name": "getInsuranceCompanyAddress",
      "outputs": [
        {
          "internalType": "address",
          "name": "",
          "type": "address"
        }
      ],
      "stateMutability": "view",
      "type": "function"
    },
    {
      "inputs": [
        {
          "internalType": "uint32",
          "name": "_healthContractId",
          "type": "uint32"
        }
      ],
      "name": "getHealthContract",
      "outputs": [
        {
          "components": [
            {
              "internalType": "uint32",
              "name": "healthcontractID",
              "type": "uint32"
            },
            {
              "internalType": "uint32",
              "name": "premium",
              "type": "uint32"
            },
            {
              "internalType": "string",
              "name": "coverageType",
              "type": "string"
            },
            {
              "internalType": "uint32",
              "name": "dental",
              "type": "uint32"
            },
            {
              "internalType": "uint32",
              "name": "eyeCare",
              "type": "uint32"
            },
            {
              "internalType": "uint32",
              "name": "generalCare",
              "type": "uint32"
            },
            {
              "internalType": "bool",
              "name": "approval",
              "type": "bool"
            }
          ],
          "internalType": "struct HealthPolicy.HealthContract",
          "name": "",
          "type": "tuple"
        }
      ],
      "stateMutability": "view",
      "type": "function"
    },
    {
      "inputs": [
        {
          "internalType": "string",
          "name": "_coverageType",
          "type": "string"
        },
        {
          "internalType": "uint32",
          "name": "_premium",
          "type": "uint32"
        },
        {
          "internalType": "uint32",
          "name": "_dental",
          "type": "uint32"
        },
        {
          "internalType": "uint32",
          "name": "_eyeCare",
          "type": "uint32"
        },
        {
          "internalType": "uint32",
          "name": "_generalCare",
          "type": "uint32"
        },
        {
          "internalType": "bool",
          "name": "_approval",
          "type": "bool"
        }
      ],
      "name": "uploadPolicy",
      "outputs": [],
      "stateMutability": "nonpayable",
      "type": "function"
    },
    {
      "inputs": [],
      "name": "getAllHealthContracts",
      "outputs": [
        {
          "components": [
            {
              "internalType": "uint32",
              "name": "healthcontractID",
              "type": "uint32"
            },
            {
              "internalType": "uint32",
              "name": "premium",
              "type": "uint32"
            },
            {
              "internalType": "string",
              "name": "coverageType",
              "type": "string"
            },
            {
              "internalType": "uint32",
              "name": "dental",
              "type": "uint32"
            },
            {
              "internalType": "uint32",
              "name": "eyeCare",
              "type": "uint32"
            },
            {
              "internalType": "uint32",
              "name": "generalCare",
              "type": "uint32"
            },
            {
              "internalType": "bool",
              "name": "approval",
              "type": "bool"
            }
          ],
          "internalType": "struct HealthPolicy.HealthContract[]",
          "name": "",
          "type": "tuple[]"
        }
      ],
      "stateMutability": "view",
      "type": "function"
    }
  ],
  "bytecode": "0x608060405260016000806101000a81548163ffffffff021916908363ffffffff16021790555034801561003157600080fd5b506119b4806100416000396000f3fe608060405234801561001057600080fd5b506004361061007d5760003560e01c8063a57a90551161005b578063a57a9055146100da578063b2e85a04146100f6578063c1e71f0b14610114578063dd056b121461014a5761007d565b8063437b2931146100825780634f01babf1461008c57806377ca2602146100aa575b600080fd5b61008a61017a565b005b6100946102a7565b6040516100a19190610ec0565b60405180910390f35b6100c460048036038101906100bf919061102b565b610471565b6040516100d19190611083565b60405180910390f35b6100f460048036038101906100ef91906110f6565b6104a7565b005b6100fe61081e565b60405161010b91906111e0565b60405180910390f35b61012e60048036038101906101299190611231565b610848565b60405161014197969594939291906112b7565b60405180910390f35b610164600480360381019061015f919061132d565b61097f565b60405161017191906113f6565b60405180910390f35b600073ffffffffffffffffffffffffffffffffffffffff16600360009054906101000a900473ffffffffffffffffffffffffffffffffffffffff1673ffffffffffffffffffffffffffffffffffffffff161461020b576040517f08c379a00000000000000000000000000000000000000000000000000000000081526004016102029061148a565b60405180910390fd5b33600360006101000a81548173ffffffffffffffffffffffffffffffffffffffff021916908373ffffffffffffffffffffffffffffffffffffffff1602179055507fb25c977d989f4187a94e00597c58c74e9ed5170ac48853fe1ce61a5892470ee3600360009054906101000a900473ffffffffffffffffffffffffffffffffffffffff1660405161029d91906111e0565b60405180910390a1565b60606001805480602002602001604051908101604052809291908181526020016000905b8282101561046857838290600052602060002090600302016040518060e00160405290816000820160009054906101000a900463ffffffff1663ffffffff1663ffffffff1681526020016000820160049054906101000a900463ffffffff1663ffffffff1663ffffffff16815260200160018201805461034a906114d9565b80601f0160208091040260200160405190810160405280929190818152602001828054610376906114d9565b80156103c35780601f10610398576101008083540402835291602001916103c3565b820191906000526020600020905b8154815290600101906020018083116103a657829003601f168201915b505050505081526020016002820160009054906101000a900463ffffffff1663ffffffff1663ffffffff1681526020016002820160049054906101000a900463ffffffff1663ffffffff1663ffffffff1681526020016002820160089054906101000a900463ffffffff1663ffffffff1663ffffffff16815260200160028201600c9054906101000a900460ff161515151581525050815260200190600101906102cb565b50505050905090565b6002818051602081018201805184825260208301602085012081835280955050505050506000915054906101000a900460ff1681565b600360009054906101000a900473ffffffffffffffffffffffffffffffffffffffff1673ffffffffffffffffffffffffffffffffffffffff163373ffffffffffffffffffffffffffffffffffffffff1614610537576040517f08c379a000000000000000000000000000000000000000000000000000000000815260040161052e9061157c565b60405180910390fd5b60028660405161054791906115d8565b908152602001604051809103902060009054906101000a900460ff16156105a3576040517f08c379a000000000000000000000000000000000000000000000000000000000815260040161059a9061163b565b60405180910390fd5b6105ab610c3b565b600080600081819054906101000a900463ffffffff16809291906105ce9061168a565b91906101000a81548163ffffffff021916908363ffffffff160217905550905080826000019063ffffffff16908163ffffffff168152505087826040018190525086826020019063ffffffff16908163ffffffff168152505085826060019063ffffffff16908163ffffffff168152505084826080019063ffffffff16908163ffffffff1681525050838260a0019063ffffffff16908163ffffffff1681525050828260c0019015159081151581525050600160028960405161069191906115d8565b908152602001604051809103902060006101000a81548160ff021916908315150217905550600182908060018154018082558091505060019003906000526020600020906003020160009091909190915060008201518160000160006101000a81548163ffffffff021916908363ffffffff16021790555060208201518160000160046101000a81548163ffffffff021916908363ffffffff16021790555060408201518160010190816107459190611862565b5060608201518160020160006101000a81548163ffffffff021916908363ffffffff16021790555060808201518160020160046101000a81548163ffffffff021916908363ffffffff16021790555060a08201518160020160086101000a81548163ffffffff021916908363ffffffff16021790555060c082015181600201600c6101000a81548160ff02191690831515021790555050507f031d20a59b889ee74434a2a116512fa3ae2bd590c47882d5b7333db6cbe305c48160405161080c9190611934565b60405180910390a15050505050505050565b6000600360009054906101000a900473ffffffffffffffffffffffffffffffffffffffff16905090565b6001818154811061085857600080fd5b90600052602060002090600302016000915090508060000160009054906101000a900463ffffffff16908060000160049054906101000a900463ffffffff16908060010180546108a7906114d9565b80601f01602080910402602001604051908101604052809291908181526020018280546108d3906114d9565b80156109205780601f106108f557610100808354040283529160200191610920565b820191906000526020600020905b81548152906001019060200180831161090357829003601f168201915b5050505050908060020160009054906101000a900463ffffffff16908060020160049054906101000a900463ffffffff16908060020160089054906101000a900463ffffffff169080600201600c9054906101000a900460ff16905087565b610987610c3b565b60005b6001805490508163ffffffff161015610ba4578263ffffffff1660018263ffffffff16815481106109be576109bd61194f565b5b906000526020600020906003020160000160009054906101000a900463ffffffff1663ffffffff1603610b915760018163ffffffff1681548110610a0557610a0461194f565b5b90600052602060002090600302016040518060e00160405290816000820160009054906101000a900463ffffffff1663ffffffff1663ffffffff1681526020016000820160049054906101000a900463ffffffff1663ffffffff1663ffffffff168152602001600182018054610a7a906114d9565b80601f0160208091040260200160405190810160405280929190818152602001828054610aa6906114d9565b8015610af35780601f10610ac857610100808354040283529160200191610af3565b820191906000526020600020905b815481529060010190602001808311610ad657829003601f168201915b505050505081526020016002820160009054906101000a900463ffffffff1663ffffffff1663ffffffff1681526020016002820160049054906101000a900463ffffffff1663ffffffff1663ffffffff1681526020016002820160089054906101000a900463ffffffff1663ffffffff1663ffffffff16815260200160028201600c9054906101000a900460ff161515151581525050915050610c36565b8080610b9c9061168a565b91505061098a565b506040518060e00160405280600063ffffffff168152602001600063ffffffff1681526020016040518060400160405280600581526020017f656d7074790000000000000000000000000000000000000000000000000000008152508152602001600063ffffffff168152602001600063ffffffff168152602001600063ffffffff1681526020016000151581525090505b919050565b6040518060e00160405280600063ffffffff168152602001600063ffffffff16815260200160608152602001600063ffffffff168152602001600063ffffffff168152602001600063ffffffff1681526020016000151581525090565b600081519050919050565b600082825260208201905092915050565b6000819050602082019050919050565b600063ffffffff82169050919050565b610cdd81610cc4565b82525050565b600081519050919050565b600082825260208201905092915050565b60005b83811015610d1d578082015181840152602081019050610d02565b60008484015250505050565b6000601f19601f8301169050919050565b6000610d4582610ce3565b610d4f8185610cee565b9350610d5f818560208601610cff565b610d6881610d29565b840191505092915050565b60008115159050919050565b610d8881610d73565b82525050565b600060e083016000830151610da66000860182610cd4565b506020830151610db96020860182610cd4565b5060408301518482036040860152610dd18282610d3a565b9150506060830151610de66060860182610cd4565b506080830151610df96080860182610cd4565b5060a0830151610e0c60a0860182610cd4565b5060c0830151610e1f60c0860182610d7f565b508091505092915050565b6000610e368383610d8e565b905092915050565b6000602082019050919050565b6000610e5682610c98565b610e608185610ca3565b935083602082028501610e7285610cb4565b8060005b85811015610eae5784840389528151610e8f8582610e2a565b9450610e9a83610e3e565b925060208a01995050600181019050610e76565b50829750879550505050505092915050565b60006020820190508181036000830152610eda8184610e4b565b905092915050565b6000604051905090565b600080fd5b600080fd5b600080fd5b600080fd5b7f4e487b7100000000000000000000000000000000000000000000000000000000600052604160045260246000fd5b610f3882610d29565b810181811067ffffffffffffffff82111715610f5757610f56610f00565b5b80604052505050565b6000610f6a610ee2565b9050610f768282610f2f565b919050565b600067ffffffffffffffff821115610f9657610f95610f00565b5b610f9f82610d29565b9050602081019050919050565b82818337600083830152505050565b6000610fce610fc984610f7b565b610f60565b905082815260208101848484011115610fea57610fe9610efb565b5b610ff5848285610fac565b509392505050565b600082601f83011261101257611011610ef6565b5b8135611022848260208601610fbb565b91505092915050565b60006020828403121561104157611040610eec565b5b600082013567ffffffffffffffff81111561105f5761105e610ef1565b5b61106b84828501610ffd565b91505092915050565b61107d81610d73565b82525050565b60006020820190506110986000830184611074565b92915050565b6110a781610cc4565b81146110b257600080fd5b50565b6000813590506110c48161109e565b92915050565b6110d381610d73565b81146110de57600080fd5b50565b6000813590506110f0816110ca565b92915050565b60008060008060008060c0878903121561111357611112610eec565b5b600087013567ffffffffffffffff81111561113157611130610ef1565b5b61113d89828a01610ffd565b965050602061114e89828a016110b5565b955050604061115f89828a016110b5565b945050606061117089828a016110b5565b935050608061118189828a016110b5565b92505060a061119289828a016110e1565b9150509295509295509295565b600073ffffffffffffffffffffffffffffffffffffffff82169050919050565b60006111ca8261119f565b9050919050565b6111da816111bf565b82525050565b60006020820190506111f560008301846111d1565b92915050565b6000819050919050565b61120e816111fb565b811461121957600080fd5b50565b60008135905061122b81611205565b92915050565b60006020828403121561124757611246610eec565b5b60006112558482850161121c565b91505092915050565b61126781610cc4565b82525050565b600082825260208201905092915050565b600061128982610ce3565b611293818561126d565b93506112a3818560208601610cff565b6112ac81610d29565b840191505092915050565b600060e0820190506112cc600083018a61125e565b6112d9602083018961125e565b81810360408301526112eb818861127e565b90506112fa606083018761125e565b611307608083018661125e565b61131460a083018561125e565b61132160c0830184611074565b98975050505050505050565b60006020828403121561134357611342610eec565b5b6000611351848285016110b5565b91505092915050565b600060e0830160008301516113726000860182610cd4565b5060208301516113856020860182610cd4565b506040830151848203604086015261139d8282610d3a565b91505060608301516113b26060860182610cd4565b5060808301516113c56080860182610cd4565b5060a08301516113d860a0860182610cd4565b5060c08301516113eb60c0860182610d7f565b508091505092915050565b60006020820190508181036000830152611410818461135a565b905092915050565b7f496e737572616e636520636f6d70616e7920616464726573732068617320616c60008201527f7265616479206265656e207365742e0000000000000000000000000000000000602082015250565b6000611474602f8361126d565b915061147f82611418565b604082019050919050565b600060208201905081810360008301526114a381611467565b9050919050565b7f4e487b7100000000000000000000000000000000000000000000000000000000600052602260045260246000fd5b600060028204905060018216806114f157607f821691505b602082108103611504576115036114aa565b5b50919050565b7f4f6e6c792074686520696e737572616e63652063616e2065786563757465207460008201527f6869732066756e6374696f6e2e00000000000000000000000000000000000000602082015250565b6000611566602d8361126d565b91506115718261150a565b604082019050919050565b6000602082019050818103600083015261159581611559565b9050919050565b600081905092915050565b60006115b282610ce3565b6115bc818561159c565b93506115cc818560208601610cff565b80840191505092915050565b60006115e482846115a7565b915081905092915050565b7f436f76657261676520616c726561647920657869747300000000000000000000600082015250565b600061162560168361126d565b9150611630826115ef565b602082019050919050565b6000602082019050818103600083015261165481611618565b9050919050565b7f4e487b7100000000000000000000000000000000000000000000000000000000600052601160045260246000fd5b600061169582610cc4565b915063ffffffff82036116ab576116aa61165b565b5b600182019050919050565b60008190508160005260206000209050919050565b60006020601f8301049050919050565b600082821b905092915050565b6000600883026117187fffffffffffffffffffffffffffffffffffffffffffffffffffffffffffffffff826116db565b61172286836116db565b95508019841693508086168417925050509392505050565b6000819050919050565b600061175f61175a611755846111fb565b61173a565b6111fb565b9050919050565b6000819050919050565b61177983611744565b61178d61178582611766565b8484546116e8565b825550505050565b600090565b6117a2611795565b6117ad818484611770565b505050565b5b818110156117d1576117c660008261179a565b6001810190506117b3565b5050565b601f821115611816576117e7816116b6565b6117f0846116cb565b810160208510156117ff578190505b61181361180b856116cb565b8301826117b2565b50505b505050565b600082821c905092915050565b60006118396000198460080261181b565b1980831691505092915050565b60006118528383611828565b9150826002028217905092915050565b61186b82610ce3565b67ffffffffffffffff81111561188457611883610f00565b5b61188e82546114d9565b6118998282856117d5565b600060209050601f8311600181146118cc57600084156118ba578287015190505b6118c48582611846565b86555061192c565b601f1984166118da866116b6565b60005b82811015611902578489015182556001820191506020850194506020810190506118dd565b8683101561191f578489015161191b601f891682611828565b8355505b6001600288020188555050505b505050505050565b6000602082019050611949600083018461125e565b92915050565b7f4e487b7100000000000000000000000000000000000000000000000000000000600052603260045260246000fdfea2646970667358221220c829068be8d79b377d792ef37daddfaa7bca6e3ee071bce5c7d14ca6339fdf0a64736f6c63430008110033",
  "immutableReferences": {},
  "source": "// SPDX-License-Identifier: UNLICENSED\r\npragma solidity ^0.8.0;\r\n\r\ncontract HealthPolicy {\r\n    uint32 healthContractId = 1;\r\n\r\n    struct HealthContract {\r\n        uint32 healthcontractID;\r\n        uint32 premium;\r\n        string coverageType;\r\n        uint32 dental;\r\n        uint32 eyeCare;\r\n        uint32 generalCare;\r\n        bool approval;\r\n    }\r\n\r\n    HealthContract[] public healthContracts;\r\n    // mapping(uint32 => HealthContract) public healthContracts;\r\n    mapping(string => bool) public iscoverageTypeExists;\r\n    address insuranceCompanyAddress;\r\n\r\n    // Events\r\n    event NewPolicy(uint32 healthContractId);\r\n    event InsuranceAddressSetup(address);\r\n\r\n    // Modifier to ensure only the contract owner can execute the function\r\n    modifier onlyInsurance {\r\n        require(msg.sender == insuranceCompanyAddress, \"Only the insurance can execute this function.\");\r\n        _;\r\n    }\r\n\r\n    // Functions\r\n    function setInsuranceCompanyAddress() public {\r\n        require(insuranceCompanyAddress == address(0), \"Insurance company address has already been set.\");\r\n        insuranceCompanyAddress = msg.sender;\r\n        emit InsuranceAddressSetup(insuranceCompanyAddress);\r\n    }\r\n    \r\n    function getInsuranceCompanyAddress() public view returns (address){\r\n        return insuranceCompanyAddress;\r\n    }\r\n    \r\n    function getHealthContract(uint32 _healthContractId) public view returns (HealthContract memory) {\r\n        for (uint32 i = 0; i < healthContracts.length; i++) {\r\n            if (healthContracts[i].healthcontractID == _healthContractId) {\r\n                return healthContracts[i];\r\n            }\r\n        }\r\n        return HealthContract(0,0,\"empty\",0,0,0,false);\r\n    }\r\n\r\n    // Function to upload the health insurance policy\r\n    function uploadPolicy(string memory _coverageType, uint32 _premium, uint32 _dental, uint32 _eyeCare, uint32 _generalCare, bool _approval) public  onlyInsurance {\r\n        require(!iscoverageTypeExists[_coverageType], \"Coverage already exits\");\r\n\r\n        HealthContract memory newHealthContract;\r\n        // Assign the policy information\r\n        uint32 policyId = healthContractId++;\r\n        newHealthContract.healthcontractID = policyId;\r\n        newHealthContract.coverageType = _coverageType;\r\n        newHealthContract.premium = _premium;\r\n        newHealthContract.dental = _dental;\r\n        newHealthContract.eyeCare = _eyeCare;\r\n        newHealthContract.generalCare = _generalCare;\r\n        newHealthContract.approval = _approval;\r\n\r\n        iscoverageTypeExists[_coverageType] = true;\r\n\r\n        healthContracts.push(newHealthContract);\r\n        emit NewPolicy(policyId);\r\n    }\r\n\r\n    function getAllHealthContracts() public view returns (HealthContract[] memory) {\r\n        return healthContracts;\r\n    }\r\n}\r\n",
  "sourcePath": "C:\\Users\\avine\\OneDrive - Middlesex University\\Documents\\MDX\\Year 3\\CST3990 Undergraduate Individual Project\\Undergraduate-Individual-Project\\back-end\\contracts\\HealthPolicy.sol",
  "compiler": {
    "name": "solc",
    "version": "0.8.17+commit.8df45f5f.Emscripten.clang"
  },
  "schemaVersion": "3.4.11",
  "updatedAt": "2023-04-13T12:12:32.308Z",
  "devdoc": {
    "kind": "dev",
    "methods": {},
    "version": 1
  },
  "userdoc": {
    "kind": "user",
    "methods": {},
    "version": 1
  }
}