{
  "contractName": "Individual",
  "abi": [
    {
      "anonymous": false,
      "inputs": [
        {
          "indexed": false,
          "internalType": "address",
          "name": "",
          "type": "address"
        },
        {
          "indexed": false,
          "internalType": "bool",
          "name": "success",
          "type": "bool"
        },
        {
          "indexed": false,
          "internalType": "uint32",
          "name": "",
          "type": "uint32"
        }
      ],
      "name": "LogHealthContractAssigned",
      "type": "event"
    },
    {
      "anonymous": false,
      "inputs": [
        {
          "indexed": false,
          "internalType": "address",
          "name": "",
          "type": "address"
        }
      ],
      "name": "LogIndividualAddress",
      "type": "event"
    },
    {
      "anonymous": false,
      "inputs": [
        {
          "indexed": false,
          "internalType": "uint32",
          "name": "",
          "type": "uint32"
        },
        {
          "indexed": false,
          "internalType": "string",
          "name": "username",
          "type": "string"
        }
      ],
      "name": "LogInsuredPersonRegistered",
      "type": "event"
    },
    {
      "inputs": [
        {
          "internalType": "address",
          "name": "",
          "type": "address"
        }
      ],
      "name": "addressByIndiviudalID",
      "outputs": [
        {
          "internalType": "uint32",
          "name": "",
          "type": "uint32"
        }
      ],
      "stateMutability": "view",
      "type": "function",
      "constant": true
    },
    {
      "inputs": [
        {
          "internalType": "string",
          "name": "",
          "type": "string"
        },
        {
          "internalType": "uint256",
          "name": "",
          "type": "uint256"
        }
      ],
      "name": "healthContractsAssigned",
      "outputs": [
        {
          "internalType": "uint32",
          "name": "",
          "type": "uint32"
        }
      ],
      "stateMutability": "view",
      "type": "function",
      "constant": true
    },
    {
      "inputs": [
        {
          "internalType": "uint32",
          "name": "",
          "type": "uint32"
        }
      ],
      "name": "individuals",
      "outputs": [
        {
          "internalType": "address",
          "name": "individualAddress",
          "type": "address"
        },
        {
          "internalType": "string",
          "name": "first_name",
          "type": "string"
        },
        {
          "internalType": "string",
          "name": "last_name",
          "type": "string"
        },
        {
          "internalType": "string",
          "name": "username",
          "type": "string"
        },
        {
          "internalType": "string",
          "name": "email",
          "type": "string"
        },
        {
          "internalType": "bytes32",
          "name": "password",
          "type": "bytes32"
        }
      ],
      "stateMutability": "view",
      "type": "function",
      "constant": true
    },
    {
      "inputs": [
        {
          "internalType": "string",
          "name": "",
          "type": "string"
        }
      ],
      "name": "individualsByUsername",
      "outputs": [
        {
          "internalType": "uint32",
          "name": "",
          "type": "uint32"
        }
      ],
      "stateMutability": "view",
      "type": "function",
      "constant": true
    },
    {
      "inputs": [
        {
          "internalType": "string",
          "name": "",
          "type": "string"
        }
      ],
      "name": "isUsernameExists",
      "outputs": [
        {
          "internalType": "bool",
          "name": "",
          "type": "bool"
        }
      ],
      "stateMutability": "view",
      "type": "function",
      "constant": true
    },
    {
      "inputs": [
        {
          "internalType": "string",
          "name": "",
          "type": "string"
        }
      ],
      "name": "usernameByIndividual",
      "outputs": [
        {
          "internalType": "address",
          "name": "individualAddress",
          "type": "address"
        },
        {
          "internalType": "string",
          "name": "first_name",
          "type": "string"
        },
        {
          "internalType": "string",
          "name": "last_name",
          "type": "string"
        },
        {
          "internalType": "string",
          "name": "username",
          "type": "string"
        },
        {
          "internalType": "string",
          "name": "email",
          "type": "string"
        },
        {
          "internalType": "bytes32",
          "name": "password",
          "type": "bytes32"
        }
      ],
      "stateMutability": "view",
      "type": "function",
      "constant": true
    },
    {
      "inputs": [
        {
          "internalType": "string",
          "name": "_firstname",
          "type": "string"
        },
        {
          "internalType": "string",
          "name": "_lastname",
          "type": "string"
        },
        {
          "internalType": "string",
          "name": "_username",
          "type": "string"
        },
        {
          "internalType": "string",
          "name": "_email",
          "type": "string"
        },
        {
          "internalType": "string",
          "name": "_password",
          "type": "string"
        }
      ],
      "name": "registerIndividual",
      "outputs": [],
      "stateMutability": "nonpayable",
      "type": "function"
    },
    {
      "inputs": [
        {
          "internalType": "uint32",
          "name": "_individual_id",
          "type": "uint32"
        }
      ],
      "name": "getIndividual",
      "outputs": [
        {
          "internalType": "string",
          "name": "",
          "type": "string"
        },
        {
          "internalType": "address",
          "name": "",
          "type": "address"
        },
        {
          "internalType": "string",
          "name": "",
          "type": "string"
        }
      ],
      "stateMutability": "view",
      "type": "function",
      "constant": true
    },
    {
      "inputs": [
        {
          "internalType": "string",
          "name": "_username",
          "type": "string"
        }
      ],
      "name": "getIndividualId",
      "outputs": [
        {
          "internalType": "uint32",
          "name": "",
          "type": "uint32"
        }
      ],
      "stateMutability": "view",
      "type": "function",
      "constant": true
    },
    {
      "inputs": [
        {
          "internalType": "string",
          "name": "_username",
          "type": "string"
        },
        {
          "internalType": "uint32",
          "name": "_healthContractId",
          "type": "uint32"
        }
      ],
      "name": "signHealthContract",
      "outputs": [],
      "stateMutability": "nonpayable",
      "type": "function"
    },
    {
      "inputs": [
        {
          "internalType": "string",
          "name": "_username",
          "type": "string"
        }
      ],
      "name": "getHealthContracts",
      "outputs": [
        {
          "internalType": "uint32[]",
          "name": "",
          "type": "uint32[]"
        }
      ],
      "stateMutability": "view",
      "type": "function",
      "constant": true
    },
    {
      "inputs": [
        {
          "internalType": "string",
          "name": "_username",
          "type": "string"
        },
        {
          "internalType": "uint32",
          "name": "_healthContractId",
          "type": "uint32"
        }
      ],
      "name": "isHealthContractSigned",
      "outputs": [
        {
          "internalType": "bool",
          "name": "",
          "type": "bool"
        }
      ],
      "stateMutability": "view",
      "type": "function",
      "constant": true
    },
    {
      "inputs": [
        {
          "internalType": "string",
          "name": "_username",
          "type": "string"
        },
        {
          "internalType": "string",
          "name": "_password",
          "type": "string"
        }
      ],
      "name": "authenticate",
      "outputs": [
        {
          "internalType": "bool",
          "name": "",
          "type": "bool"
        }
      ],
      "stateMutability": "view",
      "type": "function",
      "constant": true
    },
    {
      "inputs": [],
      "name": "getAllIndividuals",
      "outputs": [
        {
          "components": [
            {
              "internalType": "address",
              "name": "individualAddress",
              "type": "address"
            },
            {
              "internalType": "string",
              "name": "first_name",
              "type": "string"
            },
            {
              "internalType": "string",
              "name": "last_name",
              "type": "string"
            },
            {
              "internalType": "string",
              "name": "username",
              "type": "string"
            },
            {
              "internalType": "string",
              "name": "email",
              "type": "string"
            },
            {
              "internalType": "bytes32",
              "name": "password",
              "type": "bytes32"
            },
            {
              "internalType": "uint32[]",
              "name": "healthContractId",
              "type": "uint32[]"
            }
          ],
          "internalType": "struct Individual.individual[]",
          "name": "",
          "type": "tuple[]"
        }
      ],
      "stateMutability": "view",
      "type": "function",
      "constant": true
    }
  ],
  "bytecode": "0x608060405260008060006101000a81548163ffffffff021916908363ffffffff16021790555034801561003157600080fd5b506129dc806100416000396000f3fe608060405234801561001057600080fd5b50600436106100ea5760003560e01c8063679347101161008c578063baa2f33c11610066578063baa2f33c146102b0578063e4510223146102cc578063e5df201d146102fc578063e735b93f14610331576100ea565b8063679347101461022d57806368350c0a1461025d578063b13d36ca1461027b576100ea565b8063269a2914116100c8578063269a291414610181578063342ca087146101b15780635140bbef146101e1578063544541b3146101fd576100ea565b80630cd676a3146100ef5780630eb8554a1461011f5780631a31455214610151575b600080fd5b61010960048036038101906101049190611ae0565b610361565b6040516101169190611b5b565b60405180910390f35b61013960048036038101906101349190611ba2565b6103c0565b60405161014893929190611c8f565b60405180910390f35b61016b60048036038101906101669190611cd4565b610572565b6040516101789190611d38565b60405180910390f35b61019b60048036038101906101969190611cd4565b6105a8565b6040516101a89190611b5b565b60405180910390f35b6101cb60048036038101906101c69190611d53565b6105e0565b6040516101d89190611d38565b60405180910390f35b6101fb60048036038101906101f69190611daf565b610674565b005b61021760048036038101906102129190611eb6565b6109a7565b6040516102249190611d38565b60405180910390f35b61024760048036038101906102429190611f5a565b610a52565b6040516102549190611b5b565b60405180910390f35b610265610a75565b6040516102729190612231565b60405180910390f35b61029560048036038101906102909190611cd4565b610ea2565b6040516102a796959493929190612262565b60405180910390f35b6102ca60048036038101906102c59190611d53565b611134565b005b6102e660048036038101906102e19190611cd4565b6113ae565b6040516102f39190611b5b565b60405180910390f35b61031660048036038101906103119190611ba2565b6113e7565b60405161032896959493929190612262565b60405180910390f35b61034b60048036038101906103469190611cd4565b611663565b604051610358919061234e565b60405180910390f35b600482805160208101820180518482526020830160208501208183528095505050505050818154811061039357600080fd5b9060005260206000209060089182820401919006600402915091509054906101000a900463ffffffff1681565b606060006060600160008563ffffffff1663ffffffff168152602001908152602001600020600301600160008663ffffffff1663ffffffff16815260200190815260200160002060000160009054906101000a900473ffffffffffffffffffffffffffffffffffffffff16600160008763ffffffff1663ffffffff1681526020019081526020016000206004018280546104599061239f565b80601f01602080910402602001604051908101604052809291908181526020018280546104859061239f565b80156104d25780601f106104a7576101008083540402835291602001916104d2565b820191906000526020600020905b8154815290600101906020018083116104b557829003601f168201915b505050505092508080546104e59061239f565b80601f01602080910402602001604051908101604052809291908181526020018280546105119061239f565b801561055e5780601f106105335761010080835404028352916020019161055e565b820191906000526020600020905b81548152906001019060200180831161054157829003601f168201915b505050505090509250925092509193909250565b6006818051602081018201805184825260208301602085012081835280955050505050506000915054906101000a900460ff1681565b60006002826040516105ba919061240c565b908152602001604051809103902060009054906101000a900463ffffffff169050919050565b6000806004846040516105f3919061240c565b90815260200160405180910390208054905011610645576040517f08c379a000000000000000000000000000000000000000000000000000000000815260040161063c90612495565b60405180910390fd5b61066c600484604051610658919061240c565b908152602001604051809103902083611769565b905092915050565b600683604051610684919061240c565b908152602001604051809103902060009054906101000a900460ff16156106e0576040517f08c379a00000000000000000000000000000000000000000000000000000000081526004016106d790612501565b60405180910390fd5b600080600081819054906101000a900463ffffffff168092919061070390612550565b91906101000a81548163ffffffff021916908363ffffffff160217905550905033600160008363ffffffff1663ffffffff16815260200190815260200160002060000160006101000a81548173ffffffffffffffffffffffffffffffffffffffff021916908373ffffffffffffffffffffffffffffffffffffffff16021790555085600160008363ffffffff1663ffffffff16815260200190815260200160002060010190816107b39190612728565b5084600160008363ffffffff1663ffffffff16815260200190815260200160002060020190816107e39190612728565b5083600160008363ffffffff1663ffffffff16815260200190815260200160002060030190816108139190612728565b5082600160008363ffffffff1663ffffffff16815260200190815260200160002060040190816108439190612728565b5061084d826117fd565b600160008363ffffffff1663ffffffff168152602001908152602001600020600501819055506001600685604051610885919061240c565b908152602001604051809103902060006101000a81548160ff021916908315150217905550806002856040516108bb919061240c565b908152602001604051809103902060006101000a81548163ffffffff021916908363ffffffff16021790555080600560003373ffffffffffffffffffffffffffffffffffffffff1673ffffffffffffffffffffffffffffffffffffffff16815260200190815260200160002060006101000a81548163ffffffff021916908363ffffffff1602179055507feb9e9f635c8aebf7ef8edba40171aaa41fbb53b2e4cdded19b46ad6858a5bce281600160008463ffffffff1663ffffffff16815260200190815260200160002060030160405161099792919061287e565b60405180910390a1505050505050565b6000806002846040516109ba919061240c565b908152602001604051809103902060009054906101000a900463ffffffff1690506006846040516109eb919061240c565b908152602001604051809103902060009054906101000a900460ff16610a15576000915050610a4c565b6000610a20846117fd565b905080600160008463ffffffff1663ffffffff1681526020019081526020016000206005015414925050505b92915050565b60056020528060005260406000206000915054906101000a900463ffffffff1681565b606060008060009054906101000a900463ffffffff1663ffffffff1667ffffffffffffffff811115610aaa57610aa961197f565b5b604051908082528060200260200182016040528015610ae357816020015b610ad061182d565b815260200190600190039081610ac85790505b50905060005b60008054906101000a900463ffffffff1663ffffffff168163ffffffff161015610e9a57600160008263ffffffff1663ffffffff1681526020019081526020016000206040518060e00160405290816000820160009054906101000a900473ffffffffffffffffffffffffffffffffffffffff1673ffffffffffffffffffffffffffffffffffffffff1673ffffffffffffffffffffffffffffffffffffffff168152602001600182018054610b9d9061239f565b80601f0160208091040260200160405190810160405280929190818152602001828054610bc99061239f565b8015610c165780601f10610beb57610100808354040283529160200191610c16565b820191906000526020600020905b815481529060010190602001808311610bf957829003601f168201915b50505050508152602001600282018054610c2f9061239f565b80601f0160208091040260200160405190810160405280929190818152602001828054610c5b9061239f565b8015610ca85780601f10610c7d57610100808354040283529160200191610ca8565b820191906000526020600020905b815481529060010190602001808311610c8b57829003601f168201915b50505050508152602001600382018054610cc19061239f565b80601f0160208091040260200160405190810160405280929190818152602001828054610ced9061239f565b8015610d3a5780601f10610d0f57610100808354040283529160200191610d3a565b820191906000526020600020905b815481529060010190602001808311610d1d57829003601f168201915b50505050508152602001600482018054610d539061239f565b80601f0160208091040260200160405190810160405280929190818152602001828054610d7f9061239f565b8015610dcc5780601f10610da157610100808354040283529160200191610dcc565b820191906000526020600020905b815481529060010190602001808311610daf57829003601f168201915b505050505081526020016005820154815260200160068201805480602002602001604051908101604052809291908181526020018280548015610e5a57602002820191906000526020600020906000905b82829054906101000a900463ffffffff1663ffffffff1681526020019060040190602082600301049283019260010382029150808411610e1d5790505b505050505081525050828263ffffffff1681518110610e7c57610e7b6128ae565b5b60200260200101819052508080610e9290612550565b915050610ae9565b508091505090565b6003818051602081018201805184825260208301602085012081835280955050505050506000915090508060000160009054906101000a900473ffffffffffffffffffffffffffffffffffffffff1690806001018054610f019061239f565b80601f0160208091040260200160405190810160405280929190818152602001828054610f2d9061239f565b8015610f7a5780601f10610f4f57610100808354040283529160200191610f7a565b820191906000526020600020905b815481529060010190602001808311610f5d57829003601f168201915b505050505090806002018054610f8f9061239f565b80601f0160208091040260200160405190810160405280929190818152602001828054610fbb9061239f565b80156110085780601f10610fdd57610100808354040283529160200191611008565b820191906000526020600020905b815481529060010190602001808311610feb57829003601f168201915b50505050509080600301805461101d9061239f565b80601f01602080910402602001604051908101604052809291908181526020018280546110499061239f565b80156110965780601f1061106b57610100808354040283529160200191611096565b820191906000526020600020905b81548152906001019060200180831161107957829003601f168201915b5050505050908060040180546110ab9061239f565b80601f01602080910402602001604051908101604052809291908181526020018280546110d79061239f565b80156111245780601f106110f957610100808354040283529160200191611124565b820191906000526020600020905b81548152906001019060200180831161110757829003601f168201915b5050505050908060050154905086565b61115b600483604051611147919061240c565b908152602001604051809103902082611769565b1561119b576040517f08c379a00000000000000000000000000000000000000000000000000000000081526004016111929061294f565b60405180910390fd5b60006004836040516111ad919061240c565b9081526020016040518091039020805490500361124157600067ffffffffffffffff8111156111df576111de61197f565b5b60405190808252806020026020018201604052801561120d5781602001602082028036833780820191505090505b5060048360405161121e919061240c565b9081526020016040518091039020908051906020019061123f929190611883565b505b600482604051611251919061240c565b90815260200160405180910390208190806001815401808255809150506001900390600052602060002090600891828204019190066004029091909190916101000a81548163ffffffff021916908363ffffffff1602179055506000600560003373ffffffffffffffffffffffffffffffffffffffff1673ffffffffffffffffffffffffffffffffffffffff16815260200190815260200160002060009054906101000a900463ffffffff169050600160008263ffffffff1663ffffffff1681526020019081526020016000206006018290806001815401808255809150506001900390600052602060002090600891828204019190066004029091909190916101000a81548163ffffffff021916908363ffffffff1602179055507fdae8a6327b8f65535848d5005495783e1baf43d4c692959d4e6ec10606a8486e336001846040516113a19392919061296f565b60405180910390a1505050565b6002818051602081018201805184825260208301602085012081835280955050505050506000915054906101000a900463ffffffff1681565b60016020528060005260406000206000915090508060000160009054906101000a900473ffffffffffffffffffffffffffffffffffffffff16908060010180546114309061239f565b80601f016020809104026020016040519081016040528092919081815260200182805461145c9061239f565b80156114a95780601f1061147e576101008083540402835291602001916114a9565b820191906000526020600020905b81548152906001019060200180831161148c57829003601f168201915b5050505050908060020180546114be9061239f565b80601f01602080910402602001604051908101604052809291908181526020018280546114ea9061239f565b80156115375780601f1061150c57610100808354040283529160200191611537565b820191906000526020600020905b81548152906001019060200180831161151a57829003601f168201915b50505050509080600301805461154c9061239f565b80601f01602080910402602001604051908101604052809291908181526020018280546115789061239f565b80156115c55780601f1061159a576101008083540402835291602001916115c5565b820191906000526020600020905b8154815290600101906020018083116115a857829003601f168201915b5050505050908060040180546115da9061239f565b80601f01602080910402602001604051908101604052809291908181526020018280546116069061239f565b80156116535780601f1061162857610100808354040283529160200191611653565b820191906000526020600020905b81548152906001019060200180831161163657829003601f168201915b5050505050908060050154905086565b60606000600483604051611677919061240c565b908152602001604051809103902080549050116116c9576040517f08c379a00000000000000000000000000000000000000000000000000000000081526004016116c090612495565b60405180910390fd5b6004826040516116d9919061240c565b908152602001604051809103902080548060200260200160405190810160405280929190818152602001828054801561175d57602002820191906000526020600020906000905b82829054906101000a900463ffffffff1663ffffffff16815260200190600401906020826003010492830192600103820291508084116117205790505b50505050509050919050565b600080600090505b83805490508163ffffffff1610156117f1578263ffffffff16848263ffffffff16815481106117a3576117a26128ae565b5b90600052602060002090600891828204019190066004029054906101000a900463ffffffff1663ffffffff16036117de5760019150506117f7565b80806117e990612550565b915050611771565b50600090505b92915050565b600081604051602001611810919061240c565b604051602081830303815290604052805190602001209050919050565b6040518060e00160405280600073ffffffffffffffffffffffffffffffffffffffff1681526020016060815260200160608152602001606081526020016060815260200160008019168152602001606081525090565b828054828255906000526020600020906007016008900481019282156119225791602002820160005b838211156118f057835183826101000a81548163ffffffff021916908363ffffffff16021790555092602001926004016020816003010492830192600103026118ac565b80156119205782816101000a81549063ffffffff02191690556004016020816003010492830192600103026118f0565b505b50905061192f9190611933565b5090565b5b8082111561194c576000816000905550600101611934565b5090565b6000604051905090565b600080fd5b600080fd5b600080fd5b600080fd5b6000601f19601f8301169050919050565b7f4e487b7100000000000000000000000000000000000000000000000000000000600052604160045260246000fd5b6119b78261196e565b810181811067ffffffffffffffff821117156119d6576119d561197f565b5b80604052505050565b60006119e9611950565b90506119f582826119ae565b919050565b600067ffffffffffffffff821115611a1557611a1461197f565b5b611a1e8261196e565b9050602081019050919050565b82818337600083830152505050565b6000611a4d611a48846119fa565b6119df565b905082815260208101848484011115611a6957611a68611969565b5b611a74848285611a2b565b509392505050565b600082601f830112611a9157611a90611964565b5b8135611aa1848260208601611a3a565b91505092915050565b6000819050919050565b611abd81611aaa565b8114611ac857600080fd5b50565b600081359050611ada81611ab4565b92915050565b60008060408385031215611af757611af661195a565b5b600083013567ffffffffffffffff811115611b1557611b1461195f565b5b611b2185828601611a7c565b9250506020611b3285828601611acb565b9150509250929050565b600063ffffffff82169050919050565b611b5581611b3c565b82525050565b6000602082019050611b706000830184611b4c565b92915050565b611b7f81611b3c565b8114611b8a57600080fd5b50565b600081359050611b9c81611b76565b92915050565b600060208284031215611bb857611bb761195a565b5b6000611bc684828501611b8d565b91505092915050565b600081519050919050565b600082825260208201905092915050565b60005b83811015611c09578082015181840152602081019050611bee565b60008484015250505050565b6000611c2082611bcf565b611c2a8185611bda565b9350611c3a818560208601611beb565b611c438161196e565b840191505092915050565b600073ffffffffffffffffffffffffffffffffffffffff82169050919050565b6000611c7982611c4e565b9050919050565b611c8981611c6e565b82525050565b60006060820190508181036000830152611ca98186611c15565b9050611cb86020830185611c80565b8181036040830152611cca8184611c15565b9050949350505050565b600060208284031215611cea57611ce961195a565b5b600082013567ffffffffffffffff811115611d0857611d0761195f565b5b611d1484828501611a7c565b91505092915050565b60008115159050919050565b611d3281611d1d565b82525050565b6000602082019050611d4d6000830184611d29565b92915050565b60008060408385031215611d6a57611d6961195a565b5b600083013567ffffffffffffffff811115611d8857611d8761195f565b5b611d9485828601611a7c565b9250506020611da585828601611b8d565b9150509250929050565b600080600080600060a08688031215611dcb57611dca61195a565b5b600086013567ffffffffffffffff811115611de957611de861195f565b5b611df588828901611a7c565b955050602086013567ffffffffffffffff811115611e1657611e1561195f565b5b611e2288828901611a7c565b945050604086013567ffffffffffffffff811115611e4357611e4261195f565b5b611e4f88828901611a7c565b935050606086013567ffffffffffffffff811115611e7057611e6f61195f565b5b611e7c88828901611a7c565b925050608086013567ffffffffffffffff811115611e9d57611e9c61195f565b5b611ea988828901611a7c565b9150509295509295909350565b60008060408385031215611ecd57611ecc61195a565b5b600083013567ffffffffffffffff811115611eeb57611eea61195f565b5b611ef785828601611a7c565b925050602083013567ffffffffffffffff811115611f1857611f1761195f565b5b611f2485828601611a7c565b9150509250929050565b611f3781611c6e565b8114611f4257600080fd5b50565b600081359050611f5481611f2e565b92915050565b600060208284031215611f7057611f6f61195a565b5b6000611f7e84828501611f45565b91505092915050565b600081519050919050565b600082825260208201905092915050565b6000819050602082019050919050565b611fbc81611c6e565b82525050565b600082825260208201905092915050565b6000611fde82611bcf565b611fe88185611fc2565b9350611ff8818560208601611beb565b6120018161196e565b840191505092915050565b6000819050919050565b61201f8161200c565b82525050565b600081519050919050565b600082825260208201905092915050565b6000819050602082019050919050565b61205a81611b3c565b82525050565b600061206c8383612051565b60208301905092915050565b6000602082019050919050565b600061209082612025565b61209a8185612030565b93506120a583612041565b8060005b838110156120d65781516120bd8882612060565b97506120c883612078565b9250506001810190506120a9565b5085935050505092915050565b600060e0830160008301516120fb6000860182611fb3565b50602083015184820360208601526121138282611fd3565b9150506040830151848203604086015261212d8282611fd3565b915050606083015184820360608601526121478282611fd3565b915050608083015184820360808601526121618282611fd3565b91505060a083015161217660a0860182612016565b5060c083015184820360c086015261218e8282612085565b9150508091505092915050565b60006121a783836120e3565b905092915050565b6000602082019050919050565b60006121c782611f87565b6121d18185611f92565b9350836020820285016121e385611fa3565b8060005b8581101561221f5784840389528151612200858261219b565b945061220b836121af565b925060208a019950506001810190506121e7565b50829750879550505050505092915050565b6000602082019050818103600083015261224b81846121bc565b905092915050565b61225c8161200c565b82525050565b600060c0820190506122776000830189611c80565b81810360208301526122898188611c15565b9050818103604083015261229d8187611c15565b905081810360608301526122b18186611c15565b905081810360808301526122c58185611c15565b90506122d460a0830184612253565b979650505050505050565b600082825260208201905092915050565b60006122fb82612025565b61230581856122df565b935061231083612041565b8060005b838110156123415781516123288882612060565b975061233383612078565b925050600181019050612314565b5085935050505092915050565b6000602082019050818103600083015261236881846122f0565b905092915050565b7f4e487b7100000000000000000000000000000000000000000000000000000000600052602260045260246000fd5b600060028204905060018216806123b757607f821691505b6020821081036123ca576123c9612370565b5b50919050565b600081905092915050565b60006123e682611bcf565b6123f081856123d0565b9350612400818560208601611beb565b80840191505092915050565b600061241882846123db565b915081905092915050565b7f4e6f206865616c746820636f6e7472616374732068617665206265656e20617360008201527f7369676e656420746f207468697320696e646976696475616c2e000000000000602082015250565b600061247f603a83611bda565b915061248a82612423565b604082019050919050565b600060208201905081810360008301526124ae81612472565b9050919050565b7f557365726e616d6520616c726561647920657869737473000000000000000000600082015250565b60006124eb601783611bda565b91506124f6826124b5565b602082019050919050565b6000602082019050818103600083015261251a816124de565b9050919050565b7f4e487b7100000000000000000000000000000000000000000000000000000000600052601160045260246000fd5b600061255b82611b3c565b915063ffffffff820361257157612570612521565b5b600182019050919050565b60008190508160005260206000209050919050565b60006020601f8301049050919050565b600082821b905092915050565b6000600883026125de7fffffffffffffffffffffffffffffffffffffffffffffffffffffffffffffffff826125a1565b6125e886836125a1565b95508019841693508086168417925050509392505050565b6000819050919050565b600061262561262061261b84611aaa565b612600565b611aaa565b9050919050565b6000819050919050565b61263f8361260a565b61265361264b8261262c565b8484546125ae565b825550505050565b600090565b61266861265b565b612673818484612636565b505050565b5b818110156126975761268c600082612660565b600181019050612679565b5050565b601f8211156126dc576126ad8161257c565b6126b684612591565b810160208510156126c5578190505b6126d96126d185612591565b830182612678565b50505b505050565b600082821c905092915050565b60006126ff600019846008026126e1565b1980831691505092915050565b600061271883836126ee565b9150826002028217905092915050565b61273182611bcf565b67ffffffffffffffff81111561274a5761274961197f565b5b612754825461239f565b61275f82828561269b565b600060209050601f8311600181146127925760008415612780578287015190505b61278a858261270c565b8655506127f2565b601f1984166127a08661257c565b60005b828110156127c8578489015182556001820191506020850194506020810190506127a3565b868310156127e557848901516127e1601f8916826126ee565b8355505b6001600288020188555050505b505050505050565b600081546128078161239f565b6128118186611bda565b9450600182166000811461282c576001811461284257612875565b60ff198316865281151560200286019350612875565b61284b8561257c565b60005b8381101561286d5781548189015260018201915060208101905061284e565b808801955050505b50505092915050565b60006040820190506128936000830185611b4c565b81810360208301526128a581846127fa565b90509392505050565b7f4e487b7100000000000000000000000000000000000000000000000000000000600052603260045260246000fd5b7f596f75206861766520616c72656164792063686f73656e20746869732068656160008201527f6c746820636f6e74726163742e00000000000000000000000000000000000000602082015250565b6000612939602d83611bda565b9150612944826128dd565b604082019050919050565b600060208201905081810360008301526129688161292c565b9050919050565b60006060820190506129846000830186611c80565b6129916020830185611d29565b61299e6040830184611b4c565b94935050505056fea2646970667358221220fa1c3e503b1b85d46bc97287d095d0519cf858ac6881f92d7f83638a54d62c1264736f6c63430008110033",
  "immutableReferences": {},
  "source": "// SPDX-License-Identifier: UNLICENSED\r\n\r\npragma solidity ^0.8.0;\r\n\r\ncontract Individual {\r\n    uint32 individual_id = 0;\r\n\r\n    // structure for a sinhgle insured person\r\n    struct individual{\r\n        address individualAddress;\r\n        string first_name;\r\n        string last_name;\r\n        string username;\r\n        string email;\r\n        bytes32 password;\r\n        uint32[] healthContractId;\r\n    }\r\n\r\n    // This mapping maps an individual ID to an individual struct, containing the individual's details\r\n    mapping (uint32 => individual) public individuals;\r\n\r\n    // This mapping maps an individual's username to their corresponding individual ID\r\n    mapping (string => uint32) public individualsByUsername;\r\n\r\n    // This mapping maps an individual's username to their corresponding individual struct\r\n    mapping(string => individual) public usernameByIndividual;\r\n\r\n    // This mapping maps an insurance username to an array of individual IDs who have a health contract with that insurance\r\n    mapping (string => uint32[]) public healthContractsAssigned;\r\n\r\n    // This mapping maps an individual's Ethereum address to their corresponding individual ID\r\n    mapping (address => uint32) public addressByIndiviudalID;\r\n\r\n    // This mapping maps a username to a boolean value indicating whether the username exists or not\r\n    mapping (string => bool) public isUsernameExists;\r\n\r\n    // Events\r\n    event LogInsuredPersonRegistered(uint32, string username);\r\n    event LogHealthContractAssigned(address, bool success, uint32);\r\n    event LogIndividualAddress(address);\r\n\r\n    // functions\r\n\r\n    // Function to register a new provider\r\n    function registerIndividual(string memory _firstname, string memory _lastname, string memory _username,\r\n                                 string memory _email, string memory _password) public {\r\n        // Check if username already exists\r\n        require(!isUsernameExists[_username], \"Username already exists\");\r\n\r\n        uint32 userId = individual_id++;\r\n        individuals[userId].individualAddress = msg.sender;\r\n        individuals[userId].first_name = _firstname;\r\n        individuals[userId].last_name = _lastname;\r\n        individuals[userId].username = _username;\r\n        individuals[userId].email = _email;\r\n        individuals[userId].password = hashPassword(_password);\r\n\r\n        // Set the username as taken\r\n        isUsernameExists[_username] = true;\r\n\r\n        // Add username to mapping\r\n        individualsByUsername[_username] = userId;\r\n\r\n        // Add address to mapping\r\n        addressByIndiviudalID[msg.sender] = userId;\r\n       \r\n        // Emit a individual event\r\n        emit LogInsuredPersonRegistered(userId, individuals[userId].username);\r\n    }\r\n\r\n    function getIndividual(uint32 _individual_id) public view returns (string memory, address, string memory){\r\n        return (\r\n            individuals[_individual_id].username,\r\n            individuals[_individual_id].individualAddress,\r\n            individuals[_individual_id].email\r\n        );\r\n    }\r\n\r\n    function hashPassword(string memory _password) private pure returns (bytes32) {\r\n        return keccak256(abi.encodePacked(_password));\r\n    }\r\n    \r\n    function getIndividualId(string memory _username) public view returns (uint32) {\r\n        return individualsByUsername[_username];\r\n    }\r\n\r\n    /**\r\n    @dev This function allows the individual to sign a health contract.\r\n    @param _username The username of the individual.\r\n    @param _healthContractId The ID of the health contract to be signed.\r\n    Emits LogHealthContractAssigned event when a health contract is successfully signed.\r\n    */\r\n    function signHealthContract(string memory _username, uint32 _healthContractId) public {\r\n        // Check if the health contract has already been chosen by the individual\r\n        require(!contains(healthContractsAssigned[_username], _healthContractId), \"You have already chosen this health contract.\");\r\n\r\n        // If the individual has not chosen any health contracts before, initialize the array\r\n        if (healthContractsAssigned[_username].length == 0) {\r\n            healthContractsAssigned[_username] = new uint32[](0);\r\n        }\r\n\r\n        // Add the health contract ID to the list of chosen contracts for the individual\r\n        healthContractsAssigned[_username].push(_healthContractId);\r\n\r\n        // Add the health contract ID to the list of chosen contracts for the individual in the individuals mapping\r\n        uint32 _individual_id = addressByIndiviudalID[msg.sender];\r\n        individuals[_individual_id].healthContractId.push(_healthContractId);\r\n\r\n        // Emit an event to notify the front end that a health contract has been successfully signed\r\n        emit LogHealthContractAssigned(msg.sender, true, _healthContractId);\r\n    }\r\n\r\n\r\n    /**\r\n    @dev Returns an array of uint32 representing the health contracts assigned to a specific individual by their username\r\n    @param _username The username of the individual to retrieve the health contracts for\r\n    @return An array of uint32 representing the health contracts assigned to the individual\r\n    @notice This function can be called by anyone in a read-only fashion\r\n    */\r\n    function getHealthContracts(string memory _username) public view returns (uint32[] memory) {\r\n        // Check if the individual has any health contracts assigned to them\r\n        require(healthContractsAssigned[_username].length > 0, \"No health contracts have been assigned to this individual.\");\r\n        // Return the array of health contracts assigned to the individual\r\n        return healthContractsAssigned[_username];\r\n    }\r\n    \r\n\r\n    // Returns true if the health contract has been signed by the given individual\r\n    function isHealthContractSigned(string memory _username, uint32 _healthContractId) public view returns (bool) {\r\n        // Ensure that at least one health contract has been assigned to the individual\r\n        require(healthContractsAssigned[_username].length > 0, \"No health contracts have been assigned to this individual.\");\r\n        // Check if the given health contract ID is present in the list of health contracts assigned to the individual\r\n        return contains(healthContractsAssigned[_username], _healthContractId);\r\n    }\r\n\r\n\r\n    function contains(uint32[] storage arr, uint32 value) internal view returns (bool) {\r\n        for (uint32 i = 0; i < arr.length; i++) {\r\n            if (arr[i] == value) {\r\n                return true;\r\n            }\r\n        }\r\n        return false;\r\n    }\r\n \r\n    function authenticate(string memory _username, string memory _password) public view returns (bool) {\r\n        uint32 individualId = individualsByUsername[_username];\r\n        if (!isUsernameExists[_username]) {\r\n            // Username does not exist\r\n            return false;\r\n        }\r\n        bytes32 hashedPassword = hashPassword(_password);\r\n        return individuals[individualId].password == hashedPassword;\r\n    }\r\n\r\n    /**\r\n    @dev Retrieves an array of all individual structs created in the smart contract.\r\n    @return result An array of individual structs.\r\n    */\r\n    function getAllIndividuals() public view returns (individual[] memory) {\r\n        // Create an array to store all individual structs.\r\n        individual[] memory result = new individual[](individual_id);\r\n        \r\n        // Loop through the individuals mapping and add each individual struct to the result array.\r\n        for (uint32 i = 0; i < individual_id; i++) {\r\n            result[i] = individuals[i];\r\n        }\r\n\r\n        // Return the result array.\r\n        return result;\r\n    }\r\n\r\n}",
  "sourcePath": "C:\\Users\\avine\\OneDrive - Middlesex University\\Documents\\MDX\\Year 3\\CST3990 Undergraduate Individual Project\\Undergraduate-Individual-Project\\back-end\\contracts\\Individual.sol",
  "compiler": {
    "name": "solc",
    "version": "0.8.17+commit.8df45f5f.Emscripten.clang"
  },
  "schemaVersion": "3.4.11",
  "updatedAt": "2023-05-03T06:42:03.282Z",
  "networkType": "ethereum",
  "devdoc": {
    "kind": "dev",
    "methods": {
      "getAllIndividuals()": {
        "details": "Retrieves an array of all individual structs created in the smart contract.",
        "returns": {
          "_0": "result An array of individual structs."
        }
      },
      "getHealthContracts(string)": {
        "details": "Returns an array of uint32 representing the health contracts assigned to a specific individual by their username",
        "params": {
          "_username": "The username of the individual to retrieve the health contracts for"
        },
        "returns": {
          "_0": "An array of uint32 representing the health contracts assigned to the individual"
        }
      },
      "signHealthContract(string,uint32)": {
        "details": "This function allows the individual to sign a health contract.",
        "params": {
          "_healthContractId": "The ID of the health contract to be signed. Emits LogHealthContractAssigned event when a health contract is successfully signed.",
          "_username": "The username of the individual."
        }
      }
    },
    "version": 1
  },
  "userdoc": {
    "kind": "user",
    "methods": {
      "getHealthContracts(string)": {
        "notice": "This function can be called by anyone in a read-only fashion"
      }
    },
    "version": 1
  }
}