{
  "contractName": "InsuranceProvider",
  "abi": [
    {
      "anonymous": false,
      "inputs": [
        {
          "indexed": false,
          "internalType": "string",
          "name": "provider_name",
          "type": "string"
        },
        {
          "indexed": false,
          "internalType": "string",
          "name": "username",
          "type": "string"
        }
      ],
      "name": "NewProvider",
      "type": "event"
    },
    {
      "inputs": [],
      "name": "getInsuranceProvider",
      "outputs": [
        {
          "internalType": "string",
          "name": "",
          "type": "string"
        },
        {
          "internalType": "string",
          "name": "",
          "type": "string"
        }
      ],
      "stateMutability": "view",
      "type": "function",
      "constant": true
    },
    {
      "inputs": [
        {
          "internalType": "string",
          "name": "_name",
          "type": "string"
        },
        {
          "internalType": "string",
          "name": "_email",
          "type": "string"
        },
        {
          "internalType": "string",
          "name": "_password",
          "type": "string"
        }
      ],
      "name": "registerProvider",
      "outputs": [],
      "stateMutability": "nonpayable",
      "type": "function"
    },
    {
      "inputs": [],
      "name": "isInsuranceRegistered",
      "outputs": [
        {
          "internalType": "bool",
          "name": "",
          "type": "bool"
        }
      ],
      "stateMutability": "view",
      "type": "function",
      "constant": true
    },
    {
      "inputs": [
        {
          "internalType": "string",
          "name": "_email",
          "type": "string"
        },
        {
          "internalType": "string",
          "name": "_password",
          "type": "string"
        }
      ],
      "name": "authenticate",
      "outputs": [
        {
          "internalType": "bool",
          "name": "",
          "type": "bool"
        },
        {
          "internalType": "string",
          "name": "",
          "type": "string"
        }
      ],
      "stateMutability": "view",
      "type": "function",
      "constant": true
    },
    {
      "inputs": [
        {
          "internalType": "string",
          "name": "a",
          "type": "string"
        }
      ],
      "name": "compareEmail",
      "outputs": [
        {
          "internalType": "bool",
          "name": "",
          "type": "bool"
        }
      ],
      "stateMutability": "view",
      "type": "function",
      "constant": true
    }
  ],
  "bytecode": "0x608060405234801561001057600080fd5b50610c90806100206000396000f3fe608060405234801561001057600080fd5b50600436106100575760003560e01c8063158d06611461005c57806346c8913c1461008c578063544541b3146100ab578063aa704cad146100dc578063af3f6ac6146100fa575b600080fd5b61007660048036038101906100719190610601565b610116565b6040516100839190610665565b60405180910390f35b61009461016f565b6040516100a29291906106ff565b60405180910390f35b6100c560048036038101906100c09190610736565b610296565b6040516100d39291906107ae565b60405180910390f35b6100e4610373565b6040516100f19190610665565b60405180910390f35b610114600480360381019061010f91906107de565b6103ca565b005b6000600260405160200161012a9190610988565b604051602081830303815290604052805190602001208260405160200161015191906109d0565b60405160208183030381529060405280519060200120149050919050565b60608060016002818054610182906108b4565b80601f01602080910402602001604051908101604052809291908181526020018280546101ae906108b4565b80156101fb5780601f106101d0576101008083540402835291602001916101fb565b820191906000526020600020905b8154815290600101906020018083116101de57829003601f168201915b5050505050915080805461020e906108b4565b80601f016020809104026020016040519081016040528092919081815260200182805461023a906108b4565b80156102875780601f1061025c57610100808354040283529160200191610287565b820191906000526020600020905b81548152906001019060200180831161026a57829003601f168201915b50505050509050915091509091565b600060606102a384610116565b80156102b857506003546102b684610477565b145b15610355576001808080546102cc906108b4565b80601f01602080910402602001604051908101604052809291908181526020018280546102f8906108b4565b80156103455780601f1061031a57610100808354040283529160200191610345565b820191906000526020600020905b81548152906001019060200180831161032857829003601f168201915b505050505090509150915061036c565b600060405180602001604052806000815250915091505b9250929050565b60008073ffffffffffffffffffffffffffffffffffffffff1660008054906101000a900473ffffffffffffffffffffffffffffffffffffffff1673ffffffffffffffffffffffffffffffffffffffff161415905090565b336000806101000a81548173ffffffffffffffffffffffffffffffffffffffff021916908373ffffffffffffffffffffffffffffffffffffffff16021790555082600190816104199190610b88565b5081600290816104299190610b88565b5061043381610477565b6003819055507f6ffb0260e7f629aacdf7dd2a92109e71c0cbd6ca450f139ac3c8d45fa8706a48838360405161046a9291906106ff565b60405180910390a1505050565b60008160405160200161048a91906109d0565b604051602081830303815290604052805190602001209050919050565b6000604051905090565b600080fd5b600080fd5b600080fd5b600080fd5b6000601f19601f8301169050919050565b7f4e487b7100000000000000000000000000000000000000000000000000000000600052604160045260246000fd5b61050e826104c5565b810181811067ffffffffffffffff8211171561052d5761052c6104d6565b5b80604052505050565b60006105406104a7565b905061054c8282610505565b919050565b600067ffffffffffffffff82111561056c5761056b6104d6565b5b610575826104c5565b9050602081019050919050565b82818337600083830152505050565b60006105a461059f84610551565b610536565b9050828152602081018484840111156105c0576105bf6104c0565b5b6105cb848285610582565b509392505050565b600082601f8301126105e8576105e76104bb565b5b81356105f8848260208601610591565b91505092915050565b600060208284031215610617576106166104b1565b5b600082013567ffffffffffffffff811115610635576106346104b6565b5b610641848285016105d3565b91505092915050565b60008115159050919050565b61065f8161064a565b82525050565b600060208201905061067a6000830184610656565b92915050565b600081519050919050565b600082825260208201905092915050565b60005b838110156106ba57808201518184015260208101905061069f565b60008484015250505050565b60006106d182610680565b6106db818561068b565b93506106eb81856020860161069c565b6106f4816104c5565b840191505092915050565b6000604082019050818103600083015261071981856106c6565b9050818103602083015261072d81846106c6565b90509392505050565b6000806040838503121561074d5761074c6104b1565b5b600083013567ffffffffffffffff81111561076b5761076a6104b6565b5b610777858286016105d3565b925050602083013567ffffffffffffffff811115610798576107976104b6565b5b6107a4858286016105d3565b9150509250929050565b60006040820190506107c36000830185610656565b81810360208301526107d581846106c6565b90509392505050565b6000806000606084860312156107f7576107f66104b1565b5b600084013567ffffffffffffffff811115610815576108146104b6565b5b610821868287016105d3565b935050602084013567ffffffffffffffff811115610842576108416104b6565b5b61084e868287016105d3565b925050604084013567ffffffffffffffff81111561086f5761086e6104b6565b5b61087b868287016105d3565b9150509250925092565b7f4e487b7100000000000000000000000000000000000000000000000000000000600052602260045260246000fd5b600060028204905060018216806108cc57607f821691505b6020821081036108df576108de610885565b5b50919050565b600081905092915050565b60008190508160005260206000209050919050565b60008154610912816108b4565b61091c81866108e5565b94506001821660008114610937576001811461094c5761097f565b60ff198316865281151582028601935061097f565b610955856108f0565b60005b8381101561097757815481890152600182019150602081019050610958565b838801955050505b50505092915050565b60006109948284610905565b915081905092915050565b60006109aa82610680565b6109b481856108e5565b93506109c481856020860161069c565b80840191505092915050565b60006109dc828461099f565b915081905092915050565b60006020601f8301049050919050565b600082821b905092915050565b600060088302610a347fffffffffffffffffffffffffffffffffffffffffffffffffffffffffffffffff826109f7565b610a3e86836109f7565b95508019841693508086168417925050509392505050565b6000819050919050565b6000819050919050565b6000610a85610a80610a7b84610a56565b610a60565b610a56565b9050919050565b6000819050919050565b610a9f83610a6a565b610ab3610aab82610a8c565b848454610a04565b825550505050565b600090565b610ac8610abb565b610ad3818484610a96565b505050565b5b81811015610af757610aec600082610ac0565b600181019050610ad9565b5050565b601f821115610b3c57610b0d816108f0565b610b16846109e7565b81016020851015610b25578190505b610b39610b31856109e7565b830182610ad8565b50505b505050565b600082821c905092915050565b6000610b5f60001984600802610b41565b1980831691505092915050565b6000610b788383610b4e565b9150826002028217905092915050565b610b9182610680565b67ffffffffffffffff811115610baa57610ba96104d6565b5b610bb482546108b4565b610bbf828285610afb565b600060209050601f831160018114610bf25760008415610be0578287015190505b610bea8582610b6c565b865550610c52565b601f198416610c00866108f0565b60005b82811015610c2857848901518255600182019150602085019450602081019050610c03565b86831015610c455784890151610c41601f891682610b4e565b8355505b6001600288020188555050505b50505050505056fea264697066735822122021f8d9244c02796c991e79aac97f5cc1aa1362e9098099800455d0d948b9f58f64736f6c63430008110033",
  "immutableReferences": {},
  "source": "// SPDX-License-Identifier: UNLICENSED\r\n\r\npragma solidity ^0.8.0;\r\n\r\ncontract InsuranceProvider {\r\n    // fields\r\n    address insuranceProviderAddress;\r\n    string insuranceName;\r\n    string email;\r\n    bytes32 password;\r\n    address healthContractAddress;\r\n\r\n    // Events\r\n    event NewProvider(string provider_name, string username);\r\n\r\n    // functions\r\n    function getInsuranceProvider() public view returns (string memory, string memory){\r\n        return (\r\n            insuranceName,\r\n            email\r\n        );\r\n    }\r\n\r\n    // Function to register a single provider\r\n    function registerProvider(string memory _name, string memory _email, string memory _password) public {\r\n        insuranceProviderAddress= msg.sender;\r\n        insuranceName= _name;\r\n        email= _email;\r\n        password= hashPassword(_password);\r\n\r\n        // Emit a NewProvider event\r\n        emit NewProvider(_name, _email);\r\n    }\r\n\r\n    function hashPassword(string memory _password) private pure returns (bytes32) {\r\n        return keccak256(abi.encodePacked(_password));\r\n    }\r\n\r\n    function isInsuranceRegistered() public view returns (bool) {\r\n        return insuranceProviderAddress != address(0);\r\n    }\r\n\r\n    function authenticate(string memory _email, string memory _password) public view returns (bool, string memory) {\r\n        if (compareEmail(_email) && hashPassword(_password) == password){\r\n            return (true, insuranceName);\r\n        }\r\n        return (false, \"\");\r\n    }\r\n    \r\n    function compareEmail(string memory a ) public view returns (bool) {\r\n        return keccak256(abi.encodePacked(a)) == keccak256(abi.encodePacked(email));\r\n    }\r\n}",
  "sourcePath": "C:\\Users\\avine\\OneDrive - Middlesex University\\Documents\\MDX\\Year 3\\CST3990 Undergraduate Individual Project\\Undergraduate-Individual-Project\\back-end\\contracts\\InsuranceProvider.sol",
  "compiler": {
    "name": "solc",
    "version": "0.8.17+commit.8df45f5f.Emscripten.clang"
  },
  "schemaVersion": "3.4.11",
  "updatedAt": "2023-04-14T10:21:41.348Z",
  "networkType": "ethereum",
  "devdoc": {
    "kind": "dev",
    "methods": {},
    "version": 1
  },
  "userdoc": {
    "kind": "user",
    "methods": {},
    "version": 1
  }
}